:100000000C9462000C948A000C948A000C948A0070
:100010000C948A000C948A000C948A000C94560567
:100020000C948A000C948A000C948A000C948A0028
:100030000C948A000C948A000C948A000C948A0018
:100040000C94B4040C948A000C9424050C94FE04C3
:100050000C948A000C948A000C948A000C948A00F8
:100060000C948A000C948A00000000080002010031
:100070000003040700000000000000000000000072
:1000800023002600290000000000250028002B0086
:1000900000000000240027002A00040404040404D3
:1000A0000404020202020202030303030303010227
:1000B00004081020408001020408102001020408F6
:1000C00010207B0511241FBECFEFD8E0DEBFCDBFCF
:1000D00011E0A0E0B1E0ECEEF2E102C005900D927B
:1000E000A831B107D9F722E0A8E1B1E001C01D9223
:1000F000A032B207E1F710E0C2E6D0E004C02197D9
:10010000FE010E946909C136D107C9F70E940206A3
:100110000C9474090C94000090E0FC01E255FF4F30
:100120002491FC01E656FF4F8491882399F090E0DA
:10013000880F991FFC01E057FF4FA591B491FC0176
:10014000EA57FF4F859194918FB7F894EC91E22B89
:10015000EC938FBF0895DC0170E0FB01E255FF4F87
:10016000E4911496EC93149750E0FA01E255FF4F96
:10017000E4911596EC93159766567F4FFB01849199
:10018000E82FF0E0EE0FFF1FEA57FF4F85919491A3
:1001900017969C938E931697FA01E656FF4FE491BB
:1001A000F0E0EE0FFF1FE458FF4F859194911996F0
:1001B0009C938E931897FB016491E62FF0E0EE0F6D
:1001C000FF1FE057FF4F859194911B969C938E9350
:1001D0001A978DE89FE61D969C938E931C97089521
:1001E00090E0FC01E859FF4F2491FC01E255FF4FDC
:1001F0003491FC01E656FF4FE491EE2309F43CC034
:10020000222339F1233091F038F42130A9F0223043
:1002100001F584B58F7D12C0273091F02830A1F010
:100220002430B9F4809180008F7D03C080918000DC
:100230008F77809380000DC084B58F7784BD09C00F
:100240008091B0008F7703C08091B0008F7D809344
:10025000B000F0E0EE0FFF1FEA57FF4FA591B491F9
:100260009FB7F894611104C08C913095382302C077
:10027000EC913E2B3C939FBF0895CF93DF9360E0BA
:100280008CE00E94F00060E088E00E94F000C7E08F
:10029000D0E060E084E00E94F0008091E40190E012
:1002A0000C2E02C0959587950A94E2F780FF02C054
:1002B00061E001C060E088E00E94F00061E084E05D
:1002C0000E94F000219728F761E08CE0DF91CF9148
:1002D0000C94F0003FB7F894809143019091440151
:1002E000A0914501B091460126B5A89B05C02F3FBE
:1002F00019F00196A11DB11D3FBFBA2FA92F982F4C
:100300008827820F911DA11DB11DBC01CD0142E0C6
:10031000660F771F881F991F4A95D1F70895CF92CE
:10032000DF92EF92FF920F931F93CF93DF936C01B5
:100330007A018B01C0E0D0E0CE15DF0581F0D80155
:100340006D918D01D601ED91FC910190F081E02D30
:10035000C6010995892B11F02196EECF7E01C701C8
:10036000DF91CF911F910F91FF90EF90DF90CF9091
:100370000895089580E090E00895FC01538D448D28
:10038000252F30E0842F90E0821B930B541710F040
:10039000CF96089501970895FC01918D828D98174D
:1003A00061F0828DDF01A80FB11D5D968C91928D59
:1003B0009F5F9F73928F90E008958FEF9FEF089556
:1003C000FC01918D828D981731F0828DE80FF11D1F
:1003D000858D90E008958FEF9FEF0895FC01918D3A
:1003E000228D892F90E0805C9F4F821B91098F7333
:1003F0009927089587E491E00E94EE0121E0892B7E
:1004000009F420E0822F0895FC01848DDF01A80FFC
:10041000B11DA35ABF4F2C91848D90E001968F732C
:100420009927848FA689B7892C93A089B1898C914B
:10043000837080648C93938D848D981306C002889A
:10044000F389E02D80818F7D80830895EF92FF9264
:100450000F931F93CF93DF93EC0181E0888F9B8DE7
:100460008C8D981305C0E889F989808185FD26C0A7
:10047000F62E0B8D10E00F5F1F4F0F731127E02E2C
:100480008C8DE8120CC00FB607FCFACFE889F98909
:10049000808185FFF5CFCE010E940402F1CF8B8DC4
:1004A000FE01E80FF11DE35AFF4FF0829FB7F89469
:1004B0000B8FEA89FB89808180620AC09FB7F8941C
:1004C000EE89FF896083E889F9898081837080647F
:1004D00080839FBF81E090E0DF91CF911F910F91CA
:1004E000FF90EF900895CF93DF93EC01888D8823E0
:1004F000C9F0EA89FB89808185FD05C0A889B98991
:100500008C9186FD0FC00FB607FCF5CF808185FF6B
:10051000F2CFA889B9898C9185FFEDCFCE010E94D9
:100520000402E7CFDF91CF91089580E090E0892B1E
:1005300029F00E94FA0181110C9400000895FC0139
:100540008081823061F018F4813031F00895833079
:1005500049F0843049F008956093B30008956093A2
:10056000B400089567BD089568BD0895FC018081B9
:10057000823049F018F4813079F00895833031F0F9
:10058000843039F0089524E031E008C027E035E0F8
:1005900005C026E030E002C023E032E06230A9F07E
:1005A000643029F16130B9F581E090E0AC0101C01F
:1005B000440F3A95EAF73091E401432B01C0880FCC
:1005C0002A95EAF78095842322C081E090E0AC016F
:1005D00001C0440F3A95EAF7342F30954091E40179
:1005E000342301C0880F2A95EAF7832B10C041E01D
:1005F00050E0CA0101C0880F3A95EAF701C0440FE4
:100600002A95EAF7842B80959091E40189238093C1
:10061000E4010C943D0108950F931F93CF93DF9352
:10062000FC01A285B3859C918481892B8C93A68142
:10063000B7819C918481809589238C938BE090E095
:100640000197F1F7A681B7819C918481892B8C93C6
:1006500083E290E00197F1F7A681B7819C918481B4
:10066000809589238C93A285B3859C918481809504
:1006700089238C93A085B1859C918581892309F07C
:1006800058C0EF010E946A012C853D85890120E058
:1006900030E00855194E2F4F3F4FDC01CB01800F42
:1006A000911FA21FB31F8E879F87A88BB98BE885E8
:1006B000F98590818D81892361F40E946A010E85FC
:1006C0001F8528893989061717072807390778F7FA
:1006D00030C00E946A012C853D85DC01CB01820F70
:1006E000931FA11DB11D8E879F87A88BB98BE885AD
:1006F000F98590818D81892361F00E946A010E85C0
:100700001F8528893989061717072807390778F7B9
:1007100010C00E946A012C853D85A90145505109F0
:100720002E853F85FA01E21BF30BCF01860F971F41
:1007300002C080E090E0DF91CF911F910F9108956A
:100740004F925F926F927F928F929F92AF92BF92E1
:10075000CF92DF92EF92FF928EE092E00E940C0324
:10076000BC0180E090E059E3452E512C612C712CA6
:10077000A30192010E94470949015A0130932301C4
:10078000209322018CEF91E00E940C03BC0180E0D9
:1007900090E0A30192010E94470969017A01309318
:1007A0002501209324018AEE91E00E940C03BC01F4
:1007B00080E090E0A30192010E9447093093270155
:1007C0002093260180911C0190911D01880E991E95
:1007D00097FE03C08FEF881A980A95948794909299
:1007E00039018092380180911E0190911F01C80E3D
:1007F000D91ED7FE03C08FEFC81AD80AD594C79464
:10080000D0923B01C0923A01809120019091210148
:10081000280F391F37FF02C02F5F3F4F35952795AF
:1008200030933D0120933C0190921D0180921C0168
:10083000D0921F01C0921E0130932101209320010C
:10084000FF90EF90DF90CF90BF90AF909F908F90F0
:100850007F906F905F904F900895009769F0FC0132
:1008600001900020E9F73197AF01481B590BBC01FB
:1008700087E491E00C948F0180E090E008958F92DE
:100880009F92AF92BF92CF92DF92EF92FF920F931F
:100890001F93CF93DF93CDB7DEB7A1970FB6F89430
:1008A000DEBF0FBECDBF6B017C0197FF2BC06DE299
:1008B00087E491E00E9426028C0122273327A901B8
:1008C0002C193D094E095F0919A2CE0181967C01C0
:1008D0009AE0892E912CA12CB12CCA01B901A50155
:1008E00094010E944709605DF70162937F01211521
:1008F00031054105510589F7CF010E942D04800F74
:10090000911F1DC09B01AC0119A28E010F5D1F4FED
:100910008AE0C82ED12CE12CF12CCA01B901A70123
:1009200096010E944709605DF80162938F012115CD
:1009300031054105510589F7CF010E942D04A1968B
:100940000FB6F894DEBF0FBECDBFDF91CF911F91E0
:100950000F91FF90EF90DF90CF90BF90AF909F905E
:100960008F9008950E946F091F920F920FB60F92F9
:1009700011242F933F938F939F93AF93BF938091B5
:100980003F0190914001A0914101B091420130910D
:100990003E0123E0230F2D3720F40196A11DB11D48
:1009A00005C026E8230F0296A11DB11D20933E012C
:1009B00080933F0190934001A0934101B093420185
:1009C0008091430190914401A0914501B09146016D
:1009D0000196A11DB11D8093430190934401A09302
:1009E0004501B0934601BF91AF919F918F913F9187
:1009F0002F910F900FBE0F901F9018951F920F927E
:100A00000FB60F9211242F933F934F935F936F93E1
:100A10007F938F939F93AF93BF93EF93FF9387E45D
:100A200091E00E940402FF91EF91BF91AF919F91DD
:100A30008F917F916F915F914F913F912F910F9087
:100A40000FBE0F901F9018951F920F920FB60F9226
:100A500011242F938F939F93EF93FF93E09157016E
:100A6000F09158018081E0915D01F0915E0182FD7D
:100A700012C09081809160018F5F8F73209161011E
:100A8000821751F0E0916001F0E0E95BFE4F958F35
:100A90008093600101C08081FF91EF919F918F91C0
:100AA0002F910F900FBE0F901F9018951F920F92CD
:100AB0000FB60F9211242F933F934F935F936F9331
:100AC0007F938F939F93AF93BF93EF93FF93E0E058
:100AD000F0E00995FF91EF91BF91AF919F918F91B8
:100AE0007F916F915F914F913F912F910F900FBE2A
:100AF0000F901F901895CF93E7E4F1E013821282D4
:100B000088EE93E0A0E0B0E084839583A683B7836A
:100B100084E091E09183808385EC90E095878487E1
:100B200084EC90E09787868780EC90E0918B808BB7
:100B300081EC90E0938B828B82EC90E0958B848BA0
:100B400086EC90E0978B868B118E128E138E148E0E
:100B50001092E5014AE069E08EE092E00E94AB006D
:100B600040E161E18CEF91E00E94AB0042E163E182
:100B70008AEE91E00E94AB00E8EEF1E083E0808332
:100B8000C2E0C1838CE00E948C0087E00E948C0050
:100B900088E00E948C0084E00E948C001092E401A6
:100BA0000E943D0160E087E00E94F0000E943D014C
:100BB00084B5836884BD17BC86E00E948C00E6EE95
:100BC000F1E084E08083C1838CE00E948C0087E0A8
:100BD0000E948C0088E00E948C0084E00E948C00BF
:100BE0001092E4010E943D0160E087E00E94F00065
:100BF0000E943D0184B5836284BD18BC85E0CF911D
:100C00000C948C00789484B5826084BD84B5816036
:100C100084BD85B5826085BD85B5816085BD8091C7
:100C20006E00816080936E0010928100809181003F
:100C30008260809381008091810081608093810037
:100C4000809180008160809380008091B1008460F9
:100C50008093B1008091B00081608093B00080915A
:100C60007A00846080937A0080917A008260809319
:100C70007A0080917A00816080937A0080917A0076
:100C8000806880937A001092C100E0915701F09142
:100C9000580182E08083E0915301F0915401108269
:100CA000E0915501F09156018FEC808310925F0125
:100CB000E0915B01F0915C0186E08083E091590155
:100CC000F0915A01808180618083E0915901F09117
:100CD0005A01808188608083E0915901F0915A0126
:100CE000808180688083E0915901F0915A01808170
:100CF0008F7D808364E088EE91E00E94B60264E01C
:100D000086EE91E00E94B602812C912C80EAA82EFA
:100D100082E4B82E0E94A0036091380170913901DD
:100D2000072E000C880B990B0E943F0482E191E092
:100D30000E942D0460913A0170913B01072E000C36
:100D4000880B990B0E943F0482E191E00E942D04E0
:100D500060913C0170913D01072E000C880B990BAE
:100D60000E943F0484E191E00E942D0480913C01A7
:100D700090913D0108970CF4ACC0C0913801D0911E
:100D800039012A97C031D10514F0CFE0D0E0C13F3E
:100D90008FEFD80714F4C1EFDFEFE0903001F0904F
:100DA0003101EC0EFD1EF0923101E0923001BE01E6
:100DB0000D2E000C880B990B0E944E0820E030E0AD
:100DC00040EA51E40E94DA082B013C01B701FF0C14
:100DD000880B990B0E944E0820E030E0A9010E9488
:100DE000DA089B01AC01C301B2010E94AA076B01A2
:100DF0007C0180912C0190912D01BE01681B790B23
:100E0000072E000C880B990B0E944E0820E030E062
:100E100048E454E40E94DA089B01AC01C701B60122
:100E20000E94AA070E941608709329016093280166
:100E3000D0932D01C0932C01072E000C880B990B29
:100E40000E944E082B013C019B01AC0160E070E068
:100E50008CE093E40E94A9070E9416086B017C01B4
:100E6000EB0120E030E04CE053E4C301B2010E940A
:100E7000AA070E9416089B01C332D1053CF08601E7
:100E8000C93CD1052CF008EC10E002C003E210E0F0
:100E9000233231053CF0EB01693C71052CF0C8ECC4
:100EA000D0E002C0C3E2D0E061E088EE91E00E94B1
:100EB000B60261E086EE91E00E94B602602F88EEF5
:100EC00091E00E949F026C2F86EE91E00E949F02AB
:100ED0003DC08092340190923501A0923601B092CB
:100EE000370180913C0190913D0107977CF50E946C
:100EF000A00361E088EE91E00E94B60262E086EE17
:100F000091E00E94B60220E030E040EC5FE36091A7
:100F100034017091350180913601909137010E9422
:100F2000AA07609334017093350180933601909342
:100F300037010E941D08C62F88EE91E00E949F0293
:100F40006C2F86EE91E00E949F02CBCF0E9495020B
:100F5000E1CE5058BB27AA270E94C1070C94A008D5
:100F60000E94920838F00E94990820F039F49F3FBF
:100F700019F426F40C948F080EF4E095E7FB0C941A
:100F80008908E92F0E94B10858F3BA17620773075E
:100F90008407950720F079F4A6F50C94D3080EF495
:100FA000E0950B2EBA2FA02D0B01B90190010C0179
:100FB000CA01A0011124FF27591B99F0593F50F491
:100FC000503E68F11A16F040A22F232F342F4427E9
:100FD000585FF3CF469537952795A795F0405395E1
:100FE000C9F77EF41F16BA0B620B730B840BBAF0B1
:100FF0009150A1F0FF0FBB1F661F771F881FC2F71C
:101000000EC0BA0F621F731F841F48F4879577952F
:101010006795B795F7959E3F08F0B0CF9395880FE9
:1010200008F09927EE0F9795879508950E941D085F
:101030006894B1110C94D40808950E94B90888F0FE
:101040009F5798F0B92F9927B751B0F0E1F0660F8C
:10105000771F881F991F1AF0BA95C9F714C0B130CD
:1010600091F00E94D308B1E008950C94D308672F43
:10107000782F8827B85F39F0B93FCCF386957795FC
:101080006795B395D9F73EF49095809570956195E5
:101090007F4F8F4F9F4F0895E89409C097FB3EF410
:1010A00090958095709561957F4F8F4F9F4F9923B5
:1010B000A9F0F92F96E9BB279395F6958795779533
:1010C0006795B795F111F8CFFAF4BB0F11F460FFF3
:1010D0001BC06F5F7F4F8F4F9F4F16C0882311F04B
:1010E00096E911C0772321F09EE8872F762F05C05F
:1010F000662371F096E8862F70E060E02AF09A95FA
:10110000660F771F881FDAF7880F9695879597F9EE
:10111000089597F99F6780E870E060E008959FEF79
:1011200080EC089500240A9416161706180609067E
:10113000089500240A94121613061406050608954D
:10114000092E0394000C11F4882352F0BB0F40F4D5
:10115000BF2B11F460FF04C06F5F7F4F8F4F9F4F15
:10116000089557FD9058440F551F59F05F3F71F097
:101170004795880F97FB991F61F09F3F79F08795FE
:101180000895121613061406551FF2CF4695F1DF87
:1011900008C0161617061806991FF1CF8695710517
:1011A000610508940895E894BB2766277727CB014B
:1011B00097F908950E94ED080C94A0080E949208E7
:1011C00038F00E94990820F0952311F00C948908BA
:1011D0000C948F0811240C94D4080E94B10870F369
:1011E000959FC1F3950F50E0551F629FF001729FCC
:1011F000BB27F00DB11D639FAA27F00DB11DAA1FDB
:10120000649F6627B00DA11D661F829F2227B00D27
:10121000A11D621F739FB00DA11D621F839FA00DB2
:10122000611D221F749F3327A00D611D231F849F02
:10123000600D211D822F762F6A2F11249F57504059
:101240009AF0F1F088234AF0EE0FFF1FBB1F661FD4
:10125000771F881F91505040A9F79E3F510580F09D
:101260000C9489080C94D4085F3FE4F3983ED4F3BF
:10127000869577956795B795F795E7959F5FC1F741
:10128000FE2B880F911D9695879597F90895A1E2F9
:101290001A2EAA1BBB1BFD010DC0AA1FBB1FEE1FF0
:1012A000FF1FA217B307E407F50720F0A21BB30B3B
:1012B000E40BF50B661F771F881F991F1A9469F7B7
:1012C00060957095809590959B01AC01BD01CF0113
:1012D0000895EE0FFF1F0590F491E02D099481E031
:0C12E00090E0F8940C947409F894FFCF8F
:1012EC000000000026028F01BD017302EE01CC014B
:0812FC00E00120000D0A0000D2
:00000001FF
