:100000000C9462000C948A000C948A000C948A0070
:100010000C948A000C948A000C948A000C948A0038
:100020000C948A000C948A000C948A000C948A0028
:100030000C948A000C948A000C948A000C948A0018
:100040000C9448030C948A000C94B8030C9492030B
:100050000C948A000C948A000C948A000C948A00F8
:100060000C94EA030C948A00000000002300260090
:10007000290000000008000201000003040700003E
:1000800000000000000000000000250028002B00F8
:1000900000000000240027002A00040404040404D3
:1000A0000404020202020202030303030303010227
:1000B00004081020408001020408102001020408F6
:1000C0001020180511241FBECFEFD8E0DEBFCDBF32
:1000D00011E0A0E0B1E0ECE0FEE002C005900D927E
:1000E000A832B107D9F722E0A8E2B1E001C01D9221
:1000F000A537B207E1F710E0C2E6D0E004C02197CF
:10010000FE010E94F906C136D107C9F70E945105C8
:100110000C9404070C940000CF93DF9390E0FC0153
:10012000E255FF4F2491FC01E656FF4F849188234E
:10013000C1F090E0880F991FFC01E057FF4FC59177
:10014000D491FC01EA57FF4FA591B4919FB7F89461
:100150008881E22FE0958E2388838C91E823EC93AD
:100160009FBFDF91CF910895833081F028F48130D3
:1001700099F08230A1F008958730A9F08830B9F065
:100180008430D1F4809180008F7D03C08091800005
:100190008F7780938000089584B58F7702C084B5EF
:1001A0008F7D84BD08958091B0008F7703C08091CA
:1001B000B0008F7D8093B0000895CF93DF93282FF8
:1001C00030E0F901EE58FF4F8491F901E255FF4FFD
:1001D000D491F901E656FF4FC491CC2389F08111E7
:1001E0000E94B400EC2FF0E0EE0FFF1FEA57FF4F24
:1001F000A591B4918FB7F894EC91ED2BEC938FBF50
:10020000DF91CF910895CF93DF93282F30E0F9014C
:10021000EE58FF4F8491F901E255FF4FD491F90157
:10022000E656FF4FC491CC2391F081110E94B40097
:10023000EC2FF0E0EE0FFF1FE859FF4FA591B491AE
:10024000EC91ED2381E090E021F480E002C080E0B9
:1002500090E0DF91CF910895CF92DF92EF92FF92DD
:100260000F931F93CF93DF936C017A018B01C0E052
:10027000D0E0CE15DF0581F0D8016D918D01D6015A
:10028000ED91FC910190F081E02DC6010995892B3B
:1002900011F02196EECF7E01C701DF91CF911F9122
:1002A0000F91FF90EF90DF90CF900895E091BA0109
:1002B000F091BB01309729F01092B7011092B6016E
:1002C000099408950895FC01538D448D252F30E045
:1002D000842F90E0821B930B541710F0CF96089553
:1002E00001970895FC01918D828D981761F0828DA0
:1002F000DF01A80FB11D5D968C91928D9F5F9F735A
:10030000928F90E008958FEF9FEF0895FC01918DFB
:10031000828D981731F0828DE80FF11D858D90E068
:1003200008958FEF9FEF0895FC01918D228D892F05
:1003300090E0805C9F4F821B91098F7399270895ED
:100340008CEC91E00E94940121E0892B09F420E0DB
:10035000822F0895FC01848DDF01A80FB11DA35ADF
:10036000BF4F2C91848D90E001968F739927848FD5
:10037000A689B7892C93A089B1898C9183708064F8
:100380008C93938D848D981306C00288F389E02D99
:1003900080818F7D80830895EF92FF920F931F934A
:1003A000CF93DF93EC0181E0888F9B8D8C8D981328
:1003B00005C0E889F989808185FD26C0F62E0B8D60
:1003C00010E00F5F1F4F0F731127E02E8C8DE81286
:1003D0000CC00FB607FCFACFE889F989808185FF48
:1003E000F5CFCE010E94AA01F1CF8B8DFE01E80F5F
:1003F000F11DE35AFF4FF0829FB7F8940B8FEA8903
:10040000FB89808180620AC09FB7F894EE89FF89DA
:100410006083E889F98980818370806480839FBFCD
:1004200081E090E0DF91CF911F910F91FF90EF90CD
:100430000895CF93DF93EC01888D8823C9F0EA8972
:10044000FB89808185FD05C0A889B9898C9186FDCD
:100450000FC00FB607FCF5CF808185FFF2CFA889CA
:10046000B9898C9185FFEDCFCE010E94AA01E7CF1B
:10047000DF91CF91089580E090E0892B29F00E94D0
:10048000A00181110C940000089585ED8093BC00BB
:100490008091BC0084FDFCCF1092B501089540917D
:1004A0006801262F30E0240F311D21323105DCF4A4
:1004B0002091B5012430C9F4FC0180E090E086175A
:1004C00058F4309168012191DC01A85BBE4FA30F65
:1004D000B11D2C930196F3CF80916801680F609352
:1004E000680180E0089581E0089582E0089508950C
:1004F000E091B9018091B801E81730F4F0E0E85DCF
:10050000FE4F808190E008958FEF9FEF08959091C6
:10051000B9018091B801981750F4E92FF0E0E85D37
:10052000FE4F208130E09F5F9093B90102C02FEF12
:100530003FEFC90108958091B80190E02091B90181
:10054000821B91090895CF93DF93CB01EA01642FB9
:100550000E944F02CE01DF91CF910895CF93DF9398
:100560001F92CDB7DEB7698361E0CE0101960E948C
:100570004F0281E090E00F90DF91CF9108950895B0
:1005800080E090E008958F929F92AF92BF920F9378
:100590001F93CF93DF93CDB7DEB7A1970FB6F89433
:1005A000DEBF0FBECDBF19A2423008F44AE08E0173
:1005B0000F5D1F4F842E912CA12CB12CA50194010D
:1005C0000E94D706E62FB901CA0101501109EA308D
:1005D00014F4E05D01C0E95CD801EC93232B242BDB
:1005E000252B61F70115110571F0F801019000202C
:1005F000E9F73197AF01401B510BB8018CEC91E04A
:100600000E942C0102C080E090E0A1960FB6F89401
:10061000DEBF0FBECDBFDF91CF911F910F91BF9075
:10062000AF909F908F9008950E94FF06CF92DF9227
:10063000EF92FF92C090BC01D090BD016C2D89E675
:1006400092E00E94AE020D2C000CEE08FF08F7FEAF
:100650000EC06DE28CEC91E00E94CC0166277727FA
:10066000CB016C197D098E099F094AE003C04AE05D
:10067000C701B6010E94C30242E050E065E271E0AA
:100680008CEC91E0FF90EF90DF90CF900C942C01D8
:100690001F920F920FB60F9211242F933F938F93B7
:1006A0009F93AF93BF938091C8019091C901A0918E
:1006B000CA01B091CB013091C70123E0230F2D3740
:1006C00020F40196A11DB11D05C026E8230F029656
:1006D000A11DB11D2093C7018093C8019093C9014A
:1006E000A093CA01B093CB018091C3019091C40142
:1006F000A091C501B091C6010196A11DB11D8093C5
:10070000C3019093C401A093C501B093C601BF91EA
:10071000AF919F918F913F912F910F900FBE0F90AE
:100720001F9018951F920F920FB60F9211242F93BE
:100730003F934F935F936F937F938F939F93AF9369
:10074000BF93EF93FF938CEC91E00E94AA01FF917D
:10075000EF91BF91AF919F918F917F916F915F9139
:100760004F913F912F910F900FBE0F901F901895B2
:100770001F920F920FB60F9211242F938F939F9376
:10078000EF93FF93E091DC01F091DD018081E09136
:10079000E201F091E30182FD12C090818091E501B8
:1007A0008F5F8F732091E601821751F0E091E50190
:1007B000F0E0E453FE4F958F8093E50101C0808106
:1007C000FF91EF919F918F912F910F900FBE0F90FE
:1007D0001F9018951F920F920FB60F9211242F930E
:1007E0003F934F935F936F937F938F939F93AF93B9
:1007F000BF93EF93FF938091B900887F803609F40F
:100800009CC068F5883209F45BC090F4803109F42B
:1008100054C038F4882309F4F6C0883009F44DC078
:10082000F6C0883109F44CC0803209F45DC0EFC0D5
:10083000803409F468C048F4803309F455C0883323
:1008400009F0E5C080938B01D8C0803509F44FC012
:10085000883509F45DC0883409F0D9C0D6C088391C
:1008600009F4C7C0A8F4883709F467C038F488369B
:1008700009F463C0803709F460C0C9C0883809F43E
:10088000B8C0803909F45FC0803809F0C0C05BC0CF
:10089000803B09F486C038F4803A09F466C0883A8F
:1008A00009F47FC0B4C0803C09F4A7C0883C09F4B7
:1008B000A4C0883B09F48AC0AAC08091AE0110C0D0
:1008C0009091AD018091AC01981770F5E091AD0168
:1008D00081E08E0F8093AD01F0E0E457FE4F808100
:1008E0008093BB0085EC86C080938B018EC0E09125
:1008F000AD0181E08E0F8093AD018091BB00F0E0EF
:10090000E457FE4F80839091AD018091AC016EC0A1
:10091000E091AD0181E08E0F8093AD018091BB002D
:10092000F0E0E457FE4F80838091B40181116DC0E7
:1009300081E08093B30184EA61C083E08093B501D4
:1009400010928A01CFCF80918A01803208F051C085
:10095000E0918A0181E08E0F80938A018091BB0033
:10096000F0E0E659FE4F8083BDCF85EC8093BC005C
:100970001092B50180918A01803230F4E0918A01B1
:10098000F0E0E659FE4F108260918A0170E0E0913C
:10099000AF01F091B0018AE691E0099510928A01C9
:1009A00036C084E08093B50110926901109268010D
:1009B000E091B101F091B201099580916801811136
:1009C00005C081E08093680110924801E0916901BF
:1009D00081E08E0F80936901F0E0E85BFE4F80813B
:1009E0008093BB009091690180916801981708F489
:1009F00079CF85E88093BC000AC085EC8093BC0069
:100A00001092B50104C010928B010E944502FF9123
:100A1000EF91BF91AF919F918F917F916F915F9176
:100A20004F913F912F910F900FBE0F901F901895EF
:100A3000ECECF1E01382128288EE93E0A0E0B0E0EB
:100A400084839583A683B78325E031E031832083B7
:100A500025EC30E03587248724EC30E03787268783
:100A600020EC30E0318B208B21EC30E0338B228B7B
:100A700022EC30E0358B248B26EC30E0378B268B54
:100A8000118E128E138E148EE9E6F2E0138212821A
:100A900084839583A683B78387E191E091838083E4
:100AA0000895789484B5826084BD84B5816084BDE6
:100AB00085B5826085BD85B5816085BD80916E00FC
:100AC000816080936E00109281008091810082602D
:100AD000809381008091810081608093810080916A
:100AE00080008160809380008091B1008460809359
:100AF000B1008091B00081608093B00080917A0055
:100B0000846080937A0080917A00826080937A007A
:100B100080917A00816080937A0080917A00806869
:100B200080937A001092C1001092B9011092B8011E
:100B30001092B7011092B6011092B50181E0809336
:100B4000B4011092B30182E10E94DD0083E10E94B2
:100B5000DD008091B9008E7F8093B9008091B9004B
:100B60008D7F8093B90088E48093B80085E48093FA
:100B7000BC0086E591E09093B2018093B10182E6DA
:100B800091E09093B0018093AF0180E18093BA002F
:100B900086E193E09093BB018093BA01E091DC0180
:100BA000F091DD0182E08083E091D801F091D901DC
:100BB0001082E091DA01F091DB018FEC80831092DA
:100BC000E401E091E001F091E10186E08083E091B1
:100BD000DE01F091DF01808180618083E091DE01A0
:100BE000F091DF01808188608083E091DE01F091E7
:100BF000DF01808180688083E091DE01F091DF0178
:100C000080818F7D808382E00E948C0083E00E943F
:100C10008C0084E00E948C0085E00E948C0086E0BD
:100C20000E948C00C5E0D0E084E0682E712C96E034
:100C3000892E912C07E010E028E0E22EF12C39E01B
:100C4000C32ED12C4AE0A42EB12C82E00E940301D5
:100C5000282E8093BE0183E00E940301382E8093EA
:100C6000BF0184E00E940301482E8093C00185E00B
:100C70000E940301582E8093C10186E00E94030167
:100C80008093C201211014C031104DC041103AC0F0
:100C9000511027C081111DC080910001813009F0E1
:100CA00071C0D093BD01C093BC01109200017CC003
:100CB00091E0291279C0391256C049124BC059121D
:100CC00073C0813009F070C0D093BD01C093BC01E6
:100CD0006BC0813009F068C0D092BD01C092BC01E8
:100CE00063C091E0591260C0813029F4F092BD01D7
:100CF000E092BC0159C0811157C01093BD0100930F
:100D0000BC0152C091E049124FC0591207C0811175
:100D10004BC09092BD018092BC0146C0511044C0AE
:100D2000811142C0D1CF91E039123EC0491209C0B1
:100D300051103AC0811138C07092BD016092BC015F
:100D400033C0411031C051102FC081112DC083E03C
:100D500090E013C0411028C0511026C0811124C05A
:100D600082E090E00AC031101FC041101DC0511038
:100D70001BC0811119C081E090E09093BD01809368
:100D8000BC0112C08091BC019091BD0182309105DF
:100D900028F41092BD011092BC0106C0099721F4FD
:100DA000B092BD01A092BC010E943B024ECFA1E2D5
:100DB0001A2EAA1BBB1BFD010DC0AA1FBB1FEE1FD5
:100DC000FF1FA217B307E407F50720F0A21BB30B20
:100DD000E40BF50B661F771F881F991F1A9469F79C
:100DE00060957095809590959B01AC01BD01CF01F8
:100DF0000895EE0FFF1F0590F491E02D099481E016
:0C0E000090E0F8940C940407F894FFCFE5
:100E0C000100000000CC012C016301190294017255
:100E1C0001860100000000AE02A302C00277029B13
:080E2C0002870278020D0A00A2
:00000001FF
