:100000000C945D000C9485000C9485000C94850084
:100010000C9485000C9485000C9485000C9485004C
:100020000C9485000C9485000C9485000C9485003C
:100030000C9485000C9485000C9485000C9485002C
:100040000C94F4060C9485000C9464070C943E0701
:100050000C9485000C9485000C9485000C9485000C
:100060000C9485000C9485000000000024002700FB
:100070002A0000000000250028002B0004040404CE
:100080000404040402020202020203030303030342
:10009000010204081020408001020408102001021F
:1000A00004081020000000080002010000030407FB
:1000B0000000000000000000A00911241FBECFEFC7
:1000C000D8E0DEBFCDBF11E0A0E0B1E0E8EFF3E1A2
:1000D00002C005900D92A633B107D9F722E0A6E33E
:1000E000B1E001C01D92AC30B207E1F710E0CDE500
:1000F000D0E004C02197FE010E94EF09CC35D10762
:10010000C9F70E9496070C94FA090C940000FC01B0
:10011000538D448D252F30E0842F90E0821B930B6C
:10012000541710F0CF96089501970895FC01918D12
:10013000828D981761F0828DDF01A80FB11D5D9649
:100140008C91928D9F5F9F73928F90E008958FEFB7
:100150009FEF0895FC01918D828D981731F0828D6B
:10016000E80FF11D858D90E008958FEF9FEF0895C2
:10017000FC01918D228D892F90E0805C9F4F821B26
:1001800091098F7399270895FC01848DDF01A80FD1
:10019000B11DA35ABF4F2C91848D90E001968F73AF
:1001A0009927848FA689B7892C93A089B1898C91CE
:1001B000837080648C93938D848D981306C002881D
:1001C000F389E02D80818F7D80830895EF92FF92E7
:1001D0000F931F93CF93DF93EC0181E0888F9B8D6A
:1001E0008C8D981305C0E889F989808185FD26C02A
:1001F000F62E0B8D10E00F5F1F4F0F731127E02EAF
:100200008C8DE8120CC00FB607FCFACFE889F9898B
:10021000808185FFF5CFCE010E94C400F1CF8B8D88
:10022000FE01E80FF11DE35AFF4FF0829FB7F894EB
:100230000B8FEA89FB89808180620AC09FB7F8949E
:10024000EE89FF896083E889F98980818370806401
:1002500080839FBF81E090E0DF91CF911F910F914C
:10026000FF90EF900895CF93DF93EC01888D882362
:10027000C9F0EA89FB89808185FD05C0A889B98913
:100280008C9186FD0FC00FB607FCF5CF808185FFEE
:10029000F2CFA889B9898C9185FFEDCFCE010E945C
:1002A000C400E7CFDF91CF9108958FE691E00E94DF
:1002B000B80021E0892B09F420E0822F089580E026
:1002C00090E0892B29F00E94550181110C940000C7
:1002D000089590E0FC01EC55FF4F2491FC01E0579C
:1002E000FF4F3491FC01E458FF4FE491EE2309F4F1
:1002F0003CC0222339F1233091F038F42130A9F0A9
:10030000223001F584B58F7D12C0273091F028305E
:10031000A1F02430B9F4809180008F7D03C08091DA
:1003200080008F77809380000DC084B58F7784BD67
:1003300009C08091B0008F7703C08091B0008F7D9D
:100340008093B000F0E0EE0FFF1FEE58FF4FA59135
:10035000B4919FB7F894611104C08C913095382303
:1003600002C0EC913E2B3C939FBF0895CF93DF9347
:1003700090E0FC01E057FF4F2491FC01E458FF4F4F
:100380008491882361F190E0880F991FFC01E8595E
:10039000FF4FC591D491FC01EE58FF4FA591B49148
:1003A000611109C09FB7F8948881209582238883C2
:1003B000EC912E230BC0623061F49FB7F8948881D2
:1003C000322F309583238883EC912E2B2C939FBF63
:1003D00006C08FB7F894E8812E2B28838FBFDF915A
:1003E000CF9108958E3008F08E508770806480938E
:1003F0007C0080917A00806480937A0080917A00FA
:1004000086FDFCCF809178002091790090E0922BBE
:1004100008953FB7F89480916B0190916C01A09181
:100420006D01B0916E0126B5A89B05C02F3F19F054
:100430000196A11DB11D3FBFBA2FA92F982F882764
:10044000820F911DA11DB11DBC01CD0142E0660FBF
:10045000771F881F991F4A95D1F708958F929F9211
:10046000AF92BF92CF92DF92EF92FF926B017C012D
:100470000E9409024B015C01C114D104E104F104A2
:10048000F1F00E940902DC01CB0188199909AA093F
:10049000BB09883E9340A105B10570F321E0C21A63
:1004A000D108E108F10888EE880E83E0981EA11CAF
:1004B000B11CC114D104E104F10419F7DDCFFF90A0
:1004C000EF90DF90CF90BF90AF909F908F90089566
:1004D000CF92DF92EF92FF920F931F93CF93DF9310
:1004E0006C017A018B01C0E0D0E0CE15DF0581F010
:1004F000D8016D918D01D601ED91FC910190F081B3
:10050000E02DC6010995892B11F02196EECF7E01D1
:10051000C701DF91CF911F910F91FF90EF90DF9076
:10052000CF900895089580E090E0089580915C0157
:1005300090915D019C0123503109F901E25CFE4F6D
:1005400040814C3479F4DC01A35CBE4F8C91823540
:1005500049F430935D0120935C0182E4808381E063
:1005600090E002C080E090E020915C0130915D015C
:10057000A90143505109FA01E25CFE4F60816C34DD
:1005800081F4D901A35CBE4F2C91233551F4892B02
:1005900031F450935D0140935C0182E5808381E0FA
:1005A00090E020915C0130915D01A9014350510917
:1005B000FA01E25CFE4F6081623581F4D901A35CEF
:1005C000BE4F2C912C3451F4892B31F450935D01A2
:1005D00040935C0182E4808381E090E020915C01A3
:1005E00030915D01A90143505109FA01E25CFE4FCF
:1005F0006081633581F4D901A35CBE4F2C912C340A
:1006000051F4892B31F450935D0140935C0182E5F4
:10061000808381E090E020915C0130915D01A9012F
:1006200043505109FA01E25CFE4F6081633581F469
:10063000D901A35CBE4F2C91233551F4892B31F4A1
:1006400050935D0140935C0182E4808381E090E0FF
:1006500020915C0130915D01A90143505109FA01DB
:10066000E25CFE4F60816C3471F4D901A35CBE4F33
:100670002C912C3441F4892B31F450935D0140933B
:100680005C0183E5808380915C0190915D019C0118
:100690002F5F3F4FF901E25CFE4F44E44083FC01D1
:1006A000E25CFE4F428330935D0120935C0108952C
:1006B00083E00E94F201883C910504F561E087E047
:1006C0000E94690160E086E00E94690161E085E0C6
:1006D0000E94690160E088E00E94690161E070E0C9
:1006E00080E090E00E942E0261E087E00E946901B4
:1006F00060E086E00E94690160E025C082E00E941F
:10070000F20161E0883C910554F587E00E9469019F
:1007100060E086E00E94690161E085E00E94690175
:1007200060E088E00E94690161E070E080E090E0B4
:100730000E942E0260E087E00E94690160E086E08E
:100740000E94690161E085E00E94690160E088E043
:100750000E94690165E070E080E090E029C087E0D8
:100760000E94690160E086E00E94690161E085E025
:100770000E94690160E088E00E94690164E070E025
:1007800080E090E00E942E0260E087E00E94690114
:1007900060E086E00E94690160E085E00E946901F6
:1007A00060E088E00E94690161E070E080E090E034
:1007B0000C942E0282E00E94F201893C91050CF01B
:1007C00055C083E00E94F201893C91050CF04EC0B7
:1007D00082E00E94F201883C91056CF560E087E0C0
:1007E0000E94690161E086E00E94690161E085E0A4
:1007F0000E94690160E088E00E94690162E070E0A7
:1008000080E090E00E942E0260E087E00E94690193
:1008100060E086E00E94690160E085E00E94690175
:1008200060E088E00E94690161E070E080E090E0B3
:100830000E942E02CDCF8091380190913901892BF1
:1008400009F041C080915C0190915D01FC01E25C86
:10085000FE4F2CE42083019690935D0180935C0110
:1008600031978081823479F50C94960260E087E0BC
:100870000E94690161E086E00E94690161E085E013
:100880000E94690160E088E00E94690162E070E016
:1008900080E090E00E942E0260E087E00E94690103
:1008A00060E086E00E94690160E085E00E946901E5
:1008B00060E088E00E94690161E070E080E090E023
:1008C0000E942E0277CF089585E00E94F201909356
:1008D00065018093640184E00E94F20190933D01E0
:1008E00080933C0183E00E94F20190936101809328
:1008F000600182E00E94F20190935F0180935E01AB
:1009000081E00E94F20190933B0180933A0180E0E4
:100910000E94F20190936301809362010895009711
:1009200069F0FC0101900020E9F73197AF01481B05
:10093000590BBC018FE691E00C94680280E090E0D6
:1009400008950E94F5098F929F92AF92BF92CF9225
:10095000DF92EF92FF92CF93DF93CDB7DEB7A197EF
:100960000FB6F894DEBF0FBECDBF82E00E94F20149
:10097000893C91056CF161E087E00E94690160E0CB
:1009800086E00E94690160E085E00E94690161E003
:1009900088E00E94690162E070E080E090E00E94DF
:1009A0002E0260E087E00E94690160E086E00E941C
:1009B000690160E085E00E94690160E088E00E94D2
:1009C000690161E070E080E090E00E942E02CDCFEE
:1009D00082E00E94F201883C91056CF561E087E0BD
:1009E0000E94690160E086E00E94690160E085E0A4
:1009F0000E94690161E088E00E94690162E070E0A4
:100A000080E090E00E942E0260E087E00E94690191
:100A100060E086E00E94690160E085E00E94690173
:100A200060E088E00E94690161E070E080E090E0B1
:100A30000E942E02CDCF83E00E94F201883C9105F6
:100A40006CF561E087E00E94690160E086E00E9449
:100A5000690160E085E00E94690161E088E00E9430
:100A6000690162E070E080E090E00E942E0260E0A8
:100A700087E00E94690160E086E00E94690160E011
:100A800085E00E94690160E088E00E94690161E000
:100A900070E080E090E00E942E02CDCF809138017E
:100AA00090913901892B09F080C0E0915C01F091AF
:100AB0005D01E25CFE4F82E5808382E191E00E946D
:100AC0008F0484E191E00E948F0480915C019091F9
:100AD0005D01019690935D0180935C0187E191E057
:100AE0000E948F04C0905C01D0905D010D2C000C21
:100AF000EE08FF08F7FE25C06DE28FE691E00E9448
:100B0000E60022273327A9012C193D094E095F0968
:100B100019A2CE0181967C019AE0892E912CA12CFC
:100B2000B12CCA01B901A50194010E94CD09605DF3
:100B3000F70162937F01211531054105510589F7C0
:100B40001AC0A701960119A2CE0181967C018AE004
:100B5000882E912CA12CB12CCA01B901A5019401B8
:100B60000E94CD09605DF70162937F012115310577
:100B70004105510589F7C7010E948F0484E191E086
:100B80000E948F04E0915C01F0915D01E45CFE4FF6
:100B90008081823451F485E291E00E948F0484E1E7
:100BA00091E00E948F040E949602A1960FB6F894DD
:100BB000DEBF0FBECDBFDF91CF91FF90EF90DF90F2
:100BC000CF90BF90AF909F908F90089560E087E0A6
:100BD0000E94690160E086E00E94690160E085E0B2
:100BE0000E94690160E088E00E94690181E090E074
:100BF000909339018093380180915C0190915D015F
:100C0000FC01E25CFE4F24E42083019690935D0199
:100C100080935C0185E00E94F201893C9105ACF073
:100C200060E08DE00E94690166E970E080E090E09C
:100C30000E942E0261E08DE00E94690166E970E089
:100C400080E090E00E942E02E5CF64EF71E080E04A
:100C500090E00E942E020E946404809164019091B1
:100C60006501883C910554F4809162019091630183
:100C7000883C91051CF40E945803EDCFC0913601C9
:100C8000D0913701C25CDE4F8881843409F04FC0B7
:100C900061E087E00E94690160E086E00E946901EE
:100CA00061E085E00E94690160E088E00E946901DE
:100CB00064E670E080E090E00E942E0260E087E051
:100CC0000E94690160E086E00E94690160E085E0C1
:100CD0000E94690160E088E00E94690160E08DE0A7
:100CE0000E94690164EF71E080E090E00E942E02B2
:100CF00061E08DE00E94690168EC70E080E090E0C6
:100D00000E942E0260E08DE00E94690168EC70E0B4
:100D100080E090E00E942E0261E08DE00E94690177
:100D200064EF71E080E090E00E942E02D7CF8C3417
:100D3000C1F461E087E00E94690160E086E00E9402
:100D4000690161E085E00E94690160E088E00E943D
:100D5000690168EC70E080E090E00E942E020E9441
:100D6000DA0388818235C1F461E087E00E9469017D
:100D700060E086E00E94690161E085E00E9469010F
:100D800060E088E00E94690168EC70E080E090E03B
:100D90000E942E020E94A304C0913601D091370117
:100DA000FE01E25CFE4F80818335C1F461E087E0A3
:100DB0000E94690160E086E00E94690161E085E0CF
:100DC0000E94690160E088E00E94690168EC70E0BF
:100DD00080E090E00E942E020E9458032196D0935A
:100DE0003701C093360137CF1F920F920FB60F9283
:100DF00011242F933F938F939F93AF93BF93809131
:100E0000670190916801A0916901B0916A013091E8
:100E1000660123E0230F2D3720F40196A11DB11D9B
:100E200005C026E8230F0296A11DB11D209366017F
:100E30008093670190936801A0936901B0936A0160
:100E400080916B0190916C01A0916D01B0916E0148
:100E50000196A11DB11D80936B0190936C01A0932D
:100E60006D01B0936E01BF91AF919F918F913F91B2
:100E70002F910F900FBE0F901F9018951F920F92F9
:100E80000FB60F9211242F933F934F935F936F935D
:100E90007F938F939F93AF93BF93EF93FF938FE6CF
:100EA00091E00E94C400FF91EF91BF91AF919F919B
:100EB0008F917F916F915F914F913F912F910F9003
:100EC0000FBE0F901F9018951F920F920FB60F92A2
:100ED00011242F938F939F93EF93FF93E0917F01C2
:100EE000F09180018081E0918501F091860182FD81
:100EF00012C09081809188018F5F8F73209189014A
:100F0000821751F0E0918801F0E0E159FE4F958F92
:100F10008093880101C08081FF91EF919F918F9113
:100F20002F910F900FBE0F901F901895789484B555
:100F3000826084BD84B5816084BD85B5826085BDD5
:100F400085B5816085BD80916E00816080936E0063
:100F50001092810080918100826080938100809155
:100F60008100816080938100809180008160809306
:100F700080008091B10084608093B1008091B000C6
:100F800081608093B00080917A00846080937A00C1
:100F900080917A00826080937A0080917A008160EB
:100FA00080937A0080917A00806880937A00109212
:100FB000C10060E085E00E94B60160E084E00E942C
:100FC000B60160E083E00E94B60160E082E00E942A
:100FD000B60160E081E00E94B60160E080E00E941E
:100FE000B60161E087E00E94B60161E086E00E9400
:100FF000B60161E085E00E94B60161E088E00E94F0
:10100000B60161E08DE00E94B60161E08DE00E94D2
:10101000690168EE73E080E090E00E942E02C2E475
:10102000D3E50E94640420916401309165018091B0
:10103000620190916301283C3105A4F4883C91053C
:101040000CF047C08091600190916101893C91054D
:101050000CF071C180915E0190915F01893C910516
:10106000C4F169C1283C310509F462C0893C91058D
:10107000BCF161E087E00E94690160E086E00E94C7
:10108000690161E085E00E94690160E088E00E94FA
:10109000690168EC70E080E090E00E942E020E94FE
:1010A00064042091640130916501293C31053CF4D0
:1010B0008091620190916301893C910514F00E9436
:1010C000E605283C3105A1F1883C910589F10E9493
:1010D000DA038091640190916501893C910544F1A6
:1010E00061E087E00E94690160E086E00E9469019A
:1010F00061E085E00E94690160E088E00E9469018A
:1011000068EC70E080E090E00E942E020E9464048F
:101110008091640190916501883C910584F68091ED
:10112000620190916301883C91054CF60E94DA03BC
:101130008091620190916301893C91050CF475C026
:1011400061E087E00E94690160E086E00E94690139
:1011500061E085E00E94690160E088E00E94690129
:101160006EE170E080E090E00E942E020E94640434
:101170008091640190916501893C9105D4F06AEAFF
:1011800070E080E090E00E942E020E946404809152
:10119000620190916301893C910544F08091640162
:1011A00090916501893C91050CF089CF0E94DA038A
:1011B000C4C06AEA70E080E090E00E942E020E94C3
:1011C00064048091640190916501883C9105C4F4A8
:1011D0008091600190916101883C91058CF480912F
:1011E0005E0190915F01883C910554F48091620109
:1011F00090916301883C91051CF40E94A3049DC05A
:1012000080915C0190915D01FC01E25CFE4FD08316
:10121000019690935D0180935C01319780818234C7
:1012200011F40E9496020E9458030E946404809167
:10123000640190916501883C91050CF07EC080911D
:10124000600190916101883C91050CF076C080911D
:101250005E0190915F01883C91050CF06EC0809119
:10126000620190916301883C91050CF066C0809109
:101270003C0190913D01883C91050CF05EC080914D
:101280003A0190913B01883C91050CF056C061E019
:1012900087E00E94690160E086E00E94690161E0E8
:1012A00085E00E94690160E088E00E94690166E9CA
:1012B00070E080E090E00E942E0283E00E94F20144
:1012C000883C91055CF560E087E00E94690161E07F
:1012D00086E00E94690161E085E00E94690160E0AA
:1012E00088E00E94690162E070E080E090E00E9486
:1012F0002E0260E087E00E94690160E086E00E94C3
:10130000690160E085E00E94690160E088E00E9478
:10131000690161E070E080E090E0CDCF80915C01F8
:1013200090915D01FC01E25CFE4FC08301969093B9
:101330005D0180935C010E9458030E945F0171CEA1
:10134000EFE6F1E01382128288EE93E0A0E0B0E0D5
:1013500084839583A683B78384E091E0918380831F
:1013600085EC90E09587848784EC90E0978786876A
:1013700080EC90E0918B808B81EC90E0938B828B62
:1013800082EC90E0958B848B86EC90E0978B868B3B
:10139000118E128E138E148E0895A1E21A2EAA1B9E
:1013A000BB1BFD010DC0AA1FBB1FEE1FFF1FA21715
:1013B000B307E407F50720F0A21BB30BE40BF50B12
:1013C000661F771F881F991F1A9469F7609570959B
:1013D000809590959B01AC01BD01CF010895EE0F62
:1013E000FF1F0590F491E02D099481E090E0F894BE
:0813F0000C94FA09F894FFCFF8
:1013F80000000000E600680287003301B80096008C
:10140800AA0072000D0A0050617468206C656E674E
:1014180074683A200073686F7274656E696E67202D
:0614280070617468000011
:00000001FF
