:100000000C948A000C94B2000C94B2000C94F90584
:100010000C94B2000C94B2000C94B2000C94B20098
:100020000C94B2000C94B2000C94B2000C94B20088
:100030000C94B2000C94B2000C94B2000C94B20078
:100040000C9481040C94B2000C94B2000C94B20095
:100050000C94B2000C94B2000C94B2000C94B20058
:100060000C94CB040C94B200036EDB363D9A999944
:10007000993DABAAAA2A3E000000803F072C7AA532
:10008000BA6CC590DA3B9365FC8BBC53F810FD3C11
:100090005692834DBD879D3AB63DCBC9BF5BBE73BB
:1000A000DA0FC93F05A84CCDB2D44EB93836A902F3
:1000B0000C50B9918688083CA6AAAA2ABE00000066
:1000C000803F00000000250028002B0000000000F9
:1000D000230026002900040404040404040402028A
:1000E00002020202030303030303010204081020B7
:1000F00040800102040810200102040810200000C2
:1001000000080002010000030407000000000000D6
:100110000000551311241FBECFEFD8E0DEBFCDBFC6
:1001200011E0A0E0B1E0EAE2FFE202C005900D922A
:10013000A032B107D9F722E0A0E2B1E001C01D92E0
:10014000A73FB207E1F710E0CAE8D0E004C021976A
:10015000FE010E947917C938D107C9F70E94AB0781
:100160000C9493170C9400008091BB0290E02091B6
:10017000BC02821B91090895089508953FB7F89431
:1001800080918E0190918F01A0919001B091910189
:1001900026B5A89B05C02F3F19F00196A11DB11DE2
:1001A0003FBFBA2FA92F982F8827820F911DA11D1D
:1001B000B11DBC01CD0142E0660F771F881F991F5A
:1001C0004A95D1F708958F929F92AF92BF92CF92A6
:1001D000DF92EF92FF926B017C010E94BE004B0107
:1001E0005C01C114D104E104F104F1F00E94BE00ED
:1001F000DC01CB0188199909AA09BB09883E934003
:10020000A105B10570F321E0C21AD108E108F10897
:1002100088EE880E83E0981EA11CB11CC114D10485
:10022000E104F10419F7DDCFFF90EF90DF90CF905C
:10023000BF90AF909F908F90089585ED8093BC0004
:100240008091BC0084FDFCCF1092BA0208954091C9
:100250006601262F30E0240F311D21323105DCF4F8
:100260002091BA022430C9F4FC0180E090E08617A6
:1002700058F4309166012191DC01AA5BBE4FA30FB7
:10028000B11D2C930196F3CF80916601680F6093A6
:10029000660180E0089581E0089582E00895089560
:1002A000E091BC028091BB02E81730F4F0E0E35427
:1002B000FD4F808190E008958FEF9FEF089590911A
:1002C000BC028091BB02981750F4E92FF0E0E35490
:1002D000FD4F208130E09F5F9093BC0202C02FEF62
:1002E0003FEFC9010895CF92DF92EF92FF920F93F3
:1002F0001F93CF93DF937C01CB018A012091700281
:10030000222389F0EB016B01C40ED51ECC15DD054F
:1003100069F06991D701ED91FC910190F081E02D98
:10032000C7010995F3CF642F0E942701C801DF910F
:10033000CF911F910F91FF90EF90DF90CF90089594
:10034000CF93DF931F92CDB7DEB769832091700200
:100350002223D1F020919302203240F021E030E0BE
:10036000FC013383228380E090E015C0809171020C
:10037000E82FF0E0EE58FD4F998190838F5F8093D6
:1003800071028093930205C061E0CE0101960E9444
:10039000270181E090E00F90DF91CF9108950895BB
:1003A00080E090E008951F93CF93DF93E82FF0E073
:1003B000EE54FE4F1789E12FE770F0E0EE0FFF1FBC
:1003C000DF01A45CBE4F0D90BC91A02DEE54FE4FFA
:1003D00037858685AF0141505109EA01488150E0D7
:1003E000542F4427BF0162507109EB019881492BBA
:1003F00097812681A417B507DCF4E82FF0E0F32BF2
:10040000AE17BF070CF4DF01CA018A1B9B0BDC018E
:1004100024EF31E00E9431179A012E1B3F0B032E6F
:10042000000C440B550B0E94121717FF1CC020C074
:100430004A175B070CF530E0F901F92BEA17FB07C7
:100440000CF4DF01A41BB50B24EF31E00E9431173F
:100450009F01241B350B032E000C440B550B0E94EF
:10046000121717FF05C08CED95E0821B930B06C099
:10047000C90184529A4F02C08CED95E0DF91CF9173
:100480001F910895BF92CF92DF92EF92FF920F9348
:100490001F93CF93DF938091D101813009F0B1C0D8
:1004A000C091B001D091B10180937002C0939202CB
:1004B00010927102109293028BE390E00E94CA06A0
:1004C0000E9418076EE070E0CE010E94CF0681E026
:1004D0000E94D301909311028093100282E00E9447
:1004E000D30190930B0280930A0283E00E94D30110
:1004F000909333028093320284E00E94D301909360
:100500003102809330028091BB0290E02091BC02C6
:10051000821B91098E309105ECF38DED92E00E94E3
:100520005F01C82F8DED92E00E945F0120E030E076
:100530003C2F822B932B90933701809336018DEDC6
:1005400092E00E945F01C82F8DED92E00E945F0152
:1005500020E030E03C2F822B932B90933901809345
:1005600038018DED92E00E945F01C82F8DED92E081
:100570000E945F0120E030E03C2F822B932B909370
:100580003B0180933A018DED92E00E945F018DED79
:1005900092E00E945F018DED92E00E945F01C82F02
:1005A0008DED92E00E945F0120E030E03C2F822B35
:1005B000932B90939901809398018DED92E00E9486
:1005C0005F01C82F8DED92E00E945F0120E030E0D6
:1005D0003C2F822B932B90939B0180939A018DED5E
:1005E00092E00E945F01C82F8DED92E00E945F01B2
:1005F00020E030E03C2F822B932B90939D01809341
:100600009C018091AE019091AF01803D974009F02F
:100610004EC06091980170919901072E000C880BD3
:10062000990B0E94CF142091A2013091A301409117
:10063000A4015091A5010E9498130E9497147093F1
:1006400099016093980160919A0170919B01072E26
:10065000000C880B990B0E94CF142091A6013091B9
:10066000A7014091A8015091A9010E9498130E94EE
:10067000971470939B0160939A0160919C01709113
:100680009D01072E000C880B990B0E94CF1420911E
:10069000AA013091AB014091AC015091AD010E9493
:1006A00098130E94971470939D0160939C01C090D1
:1006B000CE010C2D037010E0000F111FF801EA5657
:1006C000FE4F60817181072E000C880B990B0E94F0
:1006D000CF14C7FC09C060936802709369028093CD
:1006E0006A0290936B020BC0DC01CB01B05880937F
:1006F000680290936902A0936A02B0936B02B09073
:10070000CF018B2D8370E82EF12CEE0CFF1CF7012E
:10071000EA56FE4F60817181072E000C880B990B01
:100720000E94CF14B7FC09C060936002709361020D
:1007300080936202909363020BC0DC01CB01B0583E
:100740008093600290936102A0936202B09363026F
:10075000D090D001CD2DC370D0E0CC0FDD1FFE01B5
:10076000EA56FE4F60817181072E000C880B990BB1
:100770000E94CF14D7FC09C06093580270935902AD
:1007800080935A0290935B020BC0DC01CB01B058FE
:100790008093580290935902A0935A02B0935B023F
:1007A000F701EC5CFE4F80819181092E000CAA0BB1
:1007B000BB0BB7FE07C0B095A095909581959F4F54
:1007C000AF4FBF4F80934C0290934D02A0934E02C7
:1007D000B0934F02F801EC5CFE4F80819181092EAD
:1007E000000CAA0BBB0BC7FE07C0B095A095909557
:1007F00081959F4FAF4FBF4F80934802909349021E
:10080000A0934A02B0934B02CC5CDE4F8881998161
:10081000092E000CAA0BBB0BD7FE07C0B095A09504
:10082000909581959F4FAF4FBF4F80934402909317
:100830004502A0934602B0934702DF91CF911F91EA
:100840000F91FF90EF90DF90CF90BF9008950E949E
:100850008E17833081F028F4813099F08230A1F036
:1008600008958730A9F08830B9F08430D1F48091B0
:1008700080008F7D03C0809180008F7780938000FF
:10088000089584B58F7702C084B58F7D84BD0895A7
:100890008091B0008F7703C08091B0008F7D8093EE
:1008A000B00008951F93CF93DF93282F30E0F90114
:1008B000E250FF4F8491F901E651FF4FD491F901C5
:1008C000EA52FF4FC491CC23C1F0162F81110E9430
:1008D0002904EC2FF0E0EE0FFF1FEE53FF4FA59120
:1008E000B4919FB7F894111104C08C91D095D8237E
:1008F00002C0EC91DE2BDC939FBFDF91CF911F9163
:1009000008951F920F920FB60F9211242F933F93C9
:100910008F939F93AF93BF9380918A0190918B01A6
:10092000A0918C01B0918D013091890123E0230FBA
:100930002D3720F40196A11DB11D05C026E8230F17
:100940000296A11DB11D2093890180938A01909385
:100950008B01A0938C01B0938D0180918E019091B9
:100960008F01A0919001B09191010196A11DB11D3F
:1009700080938E0190938F01A0939001B093910189
:10098000BF91AF919F918F913F912F910F900FBE8B
:100990000F901F9018951F920F920FB60F9211246F
:1009A0002F933F934F935F936F937F938F939F9377
:1009B000AF93BF93EF93FF938091B900887F803608
:1009C00009F49CC068F5883209F45BC090F480316A
:1009D00009F454C038F4882309F4F6C0883009F4C7
:1009E0004DC0F6C0883109F44CC0803209F45DC0B6
:1009F000EFC0803409F468C048F4803309F455C06E
:100A0000883309F0E5C08093B802D8C0803509F476
:100A10004FC0883509F45DC0883409F0D9C0D6C00C
:100A2000883909F4C7C0A8F4883709F467C038F4D6
:100A3000883609F463C0803709F460C0C9C08838BB
:100A400009F4B8C0803909F45FC0803809F0C0C02B
:100A50005BC0803B09F486C038F4803A09F466C074
:100A6000883A09F47FC0B4C0803C09F4A7C0883C30
:100A700009F4A4C0883B09F48AC0AAC08091B502D9
:100A800010C09091B7028091B602981770F5E0916E
:100A9000B70281E08E0F8093B702F0E0EC56FD4F75
:100AA00080818093BB0085EC86C08093B8028EC0A5
:100AB000E091B70281E08E0F8093B7028091BB0076
:100AC000F0E0EC56FD4F80839091B7028091B60222
:100AD0006EC0E091B70281E08E0F8093B7028091E3
:100AE000BB00F0E0EC56FD4F80838091B90281118C
:100AF0006DC081E08093B40284EA61C083E080939A
:100B0000BA0210928801CFCF80918801803208F01C
:100B100051C0E091880181E08E0F8093880180911F
:100B2000BB00F0E0E859FE4F8083BDCF85EC809399
:100B3000BC001092BA0280918801803230F4E091BA
:100B40008801F0E0E859FE4F10826091880170E062
:100B5000E0919201F091930188E691E0099510925D
:100B6000880136C084E08093BA0210926701109227
:100B70006601E0919401F0919501099580916601DB
:100B8000811105C081E08093660110924601E091D9
:100B9000670181E08E0F80936701F0E0EA5BFE4F12
:100BA00080818093BB0090916701809166019817C6
:100BB00008F479CF85E88093BC000AC085EC809367
:100BC000BC001092BA0204C01092B8020E941D012B
:100BD000FF91EF91BF91AF919F918F917F916F9115
:100BE0005F914F913F912F910F900FBE0F901F90EB
:100BF00018951F920F920FB60F9211242F933F93C7
:100C00004F935F936F937F938F939F93AF93BF9314
:100C1000EF93FF930E94BE0020913301189B0EC0FA
:100C200021111BC021E02093330160932F017093A9
:100C3000300180933101909332010FC0213069F46B
:100C40001092330120912F0130913001AB01421BF2
:100C5000530B50933F0140933E0120912E01199B6D
:100C60000EC021111BC021E020932E0160932A01A8
:100C700070932B0180932C0190932D010FC0213094
:100C800069F410922E0120912A0130912B01AB01C1
:100C9000421B530B50934101409340012091290185
:100CA0001A9B0EC021111BC021E0209329016093E3
:100CB00025017093260180932701909328010FC08E
:100CC000213069F4109229012091250130912601EB
:100CD000AB01421B530B50934301409342012091BF
:100CE00024011B9B0EC021111AC021E02093240176
:100CF000609320017093210180932201909323013E
:100D00000EC0213061F41092240120912001309115
:100D10002101621B730B7093450160934401FF91A5
:100D2000EF91BF91AF919F918F917F916F915F9163
:100D30004F913F912F910F900FBE0F901F901895DC
:100D4000CF92DF92EF92FF920F931F93CF93DF9397
:100D50006C017A018B01C0E0D0E0CE15DF0581F097
:100D6000D8016D918D01D601ED91FC910190F0813A
:100D7000E02DC6010995892B11F02196EECF7E0159
:100D8000C701DF91CF911F910F91FF90EF90DF90FE
:100D9000CF900895682F8DED92E00C94A001909172
:100DA000BA029111FCCF613208F060E291E09093B9
:100DB000BA029093B9022FEF2093B8021092B702B3
:100DC000260F2093B6029093B5029091B502880F3A
:100DD000892B8093B5028091B402813061F4109226
:100DE000B4028091B5028093BB008091BC0083FD6A
:100DF000F8CF85EC01C085EE8093BC008091BA02EB
:100E00008130E1F38091B702861710F46091B70248
:100E1000A4E9B2E0EDEBF2E080E0861721F09D91CD
:100E200091938F5FFACF1092BC028093BB0208951A
:100E300030919302313208F04BC08091BA02811197
:100E4000FCCF9091920222E02093BA0221E02093FD
:100E5000B9022FEF2093B8021092B7023093B60276
:100E6000E2E7F2E0A4E9B2E020E0321721F041919C
:100E70004D932F5FFACF1092B5022091B502990FD2
:100E8000922B9093B5029091B402913061F410923C
:100E9000B4029091B5029093BB009091BC0093FD79
:100EA000F8CF95EC01C095EE9093BC009091BA02FA
:100EB0009230E1F39091B8029F3F79F08091B802AF
:100EC000803241F08091B802803331F084E005C077
:100ED00081E003C082E001C083E0109271021092B1
:100EE000930210927002089580E480937C008091B8
:100EF0007A00806480937A0080917A0086FDFCCF2E
:100F0000809178002091790090E0922B0895CF9302
:100F1000DF93EAE0F1E08491E6EFF0E0D491E2EED5
:100F2000F0E0C491CC2391F081110E942904EC2FB0
:100F3000F0E0EE0FFF1FE453FF4FA591B491EC9149
:100F4000ED2381E090E021F480E002C080E090E0B9
:100F5000DF91CF910895CF93DF93CDB7DEB7A09700
:100F60000FB6F894DEBF0FBECDBF789484B5826013
:100F700084BD84B5816084BD85B5826085BD85B53D
:100F8000816085BD80916E00816080936E001092BB
:100F90008100809181008260809381008091810036
:100FA00081608093810080918000816080938000C7
:100FB0008091B10084608093B1008091B000816025
:100FC0008093B00080917A00846080937A00809151
:100FD0007A00826080937A0080917A0081608093A9
:100FE0007A0080917A00806880937A001092C10024
:100FF00010922F0210922E0220912E0230912F0279
:101000003A832983243231058CF4C9010E9490135C
:10101000E981FA81EE54FE4F808349815A814F5F06
:101020005F4F50932F0240932E02E6CF10922F0273
:1010300010922E028091D20190E09093B1018093A2
:10104000B0011092BC021092BB0210927102109279
:1010500093021092BA0281E08093B9021092B40216
:1010600061E082E10E94520461E083E10E94520447
:101070008091B9008E7F8093B9008091B9008D7FF7
:101080008093B90088E48093B80085E48093BC0025
:101090008CEB90E090939501809394018DEB90E020
:1010A00090939301809392018CE08093B8008AB171
:1010B000806F8AB984B1806384B961E08CE00E945A
:1010C00052048091D3018A3441F48091D4018D344B
:1010D00021F48091D501823439F06AE070E080E03B
:1010E00090E00E94E300EDCF5091D1015D83852F08
:1010F0008250823038F46AE070E080E090E00E9434
:10110000E30088C06D81613009F084C08091B00136
:1011100089831091B10160937002809392021092C2
:101120007102109293028BE690E00E94CA0680E062
:1011300090E00E94CA060E9418079D819093700259
:10114000A981A093920210927102109293028BE1F6
:1011500090E00E94CA0688E090E00E94CA060E94C1
:101160001807BD81B09370022981209392021092DA
:101170007102109293028CE190E00E94CA0680E115
:1011800090E00E94CA060E9418073D8130937002C9
:1011900049814093920210927102109293028BE166
:1011A00090E00E94CA060E94180761E070E0898101
:1011B000912F0E94CF068091BB0290E02091BC024B
:1011C000821B910918161906ECF78DED92E00E942A
:1011D0005F01089759F061E08CE00E9452046AE0D8
:1011E00070E080E090E00E94E300F9CF81E080931E
:1011F00070025981509392021092710210929302E0
:101200008AE190E00E94CA0683E090E00E94CA064C
:101210000E9418071092AF011092AE014BE95FE0F7
:101220002BED3EE28091AE019091AF01823E944061
:10123000B4F48BB1806F8BB9CA010197F1F78BB110
:101240008F708BB9C9010197F1F78091AE01909130
:10125000AF0101969093AF018093AE01E3CF10925E
:10126000AF011092AE010FE010E08091AE019091BD
:10127000AF01803DA7E09A070CF084C0B8010E943E
:10128000FE16892B49F40E94870761E0892B09F03B
:1012900060E08CE00E9452040E944202609198013A
:1012A00070919901072E000C880B990B0E94CF14A6
:1012B0009B01AC016091A2017091A3018091A401F6
:1012C0009091A5010E9499136093A2017093A301CC
:1012D0008093A4019093A50160919A0170919B0164
:1012E000072E000C880B990B0E94CF149B01AC01B8
:1012F0006091A6017091A7018091A8019091A90128
:101300000E9499136093A6017093A7018093A8018E
:101310009093A90160919C0170919D01072E000C92
:10132000880B990B0E94CF149B01AC016091AA011C
:101330007091AB018091AC019091AD010E94991325
:101340006093AA017093AB018093AC019093AD01BF
:101350008BB1806F8BB98BE99FE00197F1F78BB16F
:101360008F708BB963E070E080E090E00E94E30052
:101370008091AE019091AF0101969093AF0180935F
:10138000AE0173CF20E030E04AEF54E46091A20157
:101390007091A3018091A4019091A5010E94251450
:1013A0006093A2017093A3018093A4019093A5017F
:1013B00020E030E04AEF54E46091A6017091A7016B
:1013C0008091A8019091A9010E9425146093A60123
:1013D0007093A7018093A8019093A90120E030E0C9
:1013E0004AEF54E46091AA017091AB018091AC0185
:1013F0009091AD010E9425146093AA017093AB01F6
:101400008093AC019093AD018091680081608093DE
:10141000680080916B00816080936B0080916B000D
:10142000826080936B0080916B00846080936B007E
:1014300080916B00886080936B0080913202909164
:1014400033028E3D934014F40C94BF12809132020B
:10145000909133028D3F934014F00C94BF12809111
:101460003002909131028837954014F40C94BF12E9
:1014700010922F0210922E020E9474078F5B9F4FD2
:10148000BC01990F880B990B0E94CF1428E538EA0C
:101490004DE95FE30E94DF150E94971470930502E7
:1014A000609304020E94BE006093EA017093EB0116
:1014B0008093EC019093ED0160E08CE00E94520477
:1014C00080911201909113019C01092E000C440B94
:1014D000550B2D8F3E8F4F8F58A391958195910974
:1014E0009C01990F440B550B2D8B3E8B4F8B588FC6
:1014F00080ED282E87E0382E08EE13E04090680239
:101500005090690260906A0270906B0223E333E3AB
:1015100043E35FE360916C0270916D0280916E0213
:1015200090916F020E94DF156B017C0120E030E09A
:1015300043E852E4C301B2010E9425142AE939E9C3
:1015400049E95EE30E94DF159B01AC01C701B601CA
:101550000E94991369837A838B839C8360936C02C6
:1015600070936D0280936E0290936F02C090600240
:10157000D0906102E0906202F090630223E333E3D3
:1015800043E35FE3609164027091650280916602BB
:10159000909167020E94DF154B015C0120E030E072
:1015A00043E852E4C701B6010E9425142AE939E94B
:1015B00049E95EE30E94DF159B01AC01C501B4015E
:1015C0000E94991369877A878B879C87609364024E
:1015D0007093650280936602909367028090580230
:1015E00090905902A0905A02B0905B0223E333E33B
:1015F00043E35FE360915C0270915D0280915E0263
:1016000090915F020E94DF156D877E878F87988B90
:1016100020E030E043E852E4C501B4010E94251403
:101620002AE939E949E95EE30E94DF159B01AC0133
:101630006D857E858F8598890E9499136D877E8739
:101640008F87988B60935C0270935D0280935E023B
:1016500090935F0220ED32E240E858E3C301B2010B
:101660000E94DF15209150023091510240915202A8
:10167000509153020E9499132B013C012BE733E157
:101680004FE855E3C501B4010E94DF150E944C16D6
:101690004B015C0120ED32E240E858E3C701B6019E
:1016A0000E94DF152091540230915502409156025C
:1016B000509157020E9499136B017C01A50194017E
:1016C000C301B2010E94DF159B01AC01C701B60145
:1016D0000E949813698B7A8B8B8B9C8B9B01AC013E
:1016E000C501B4010E94DF15A30192010E94991364
:1016F000698F7A8F8B8F9C8FC0904C02D0904D0257
:10170000E0904E02F0904F02809048029090490283
:10171000A0904A02B0904B02809144029091450201
:10172000A0914602B09147028D839E83AF83B88714
:10173000A7019601C701B6010E94EE162B013C01DC
:10174000A5019401C501B4010E94EE16460E571E74
:10175000681E791E2D813E814F815885CA01B901CD
:101760000E94EE16640D751D861D971D0E94CF14F4
:101770000E945A160E9497142B013C01D501C40106
:10178000B7FE07C088279927DC0188199909AA099B
:10179000BB0984159505A605B70504F5C501B40177
:1017A0000E94CF144B015C01C301B2010E94CF140F
:1017B0009B01AC01C501B4010E9425140E940514CF
:1017C0002BE13FE245E652E40E94DF1560934002C0
:1017D000709341028093420290934302D701C60165
:1017E000F7FE07C088279927DC018C199D09AE09EF
:1017F000BF0984159505A605B70504F5C701B6010F
:101800000E94CF146B017C01C301B2010E94CF146E
:101810009B01AC01C701B6010E9425140E9405146A
:101820002BE13FE245E652EC0E94DF1560933C025B
:1018300070933D0280933E0290933F02409040029D
:1018400050904102609042027090430220913C020D
:1018500030913D0240913E0250913F022D833E83E4
:101860004F83588729EC35EE4FE75FE369897A8922
:101870008B899C890E94DF156B017C0127E137EB86
:1018800041ED59E3C301B2010E94DF159B01AC0198
:10189000C701B6010E9499136B017C016093540249
:1018A00070935502809356029093570229EC35EEBF
:1018B0004FE75FE3698D7A8D8B8D9C8D0E94DF15DC
:1018C0004B015C0127E137EB41ED59E36D817E81EE
:1018D0008F8198850E94DF159B01AC01C501B40181
:1018E0000E9499134B015C01609350027093510266
:1018F000809352029093530220E030E040E751E49D
:10190000C701B6010E94DF156B017C0160933802AC
:101910007093390280933A0290933B0220E030E0CA
:1019200040E751E4C501B4010E94DF154B015C01A1
:10193000609334027093350280933602909337029D
:1019400080913202909133028A31944044F4809124
:101950003002909131028A3194400CF44FC680914C
:101960002E0290912F02019779F48091320290918A
:1019700033028A31944044F48091300290913102D4
:101980008B3A95400CF041C680912E0290912F0227
:10199000029779F480913202909133028A31944017
:1019A00044F480913002909131028F3997400CF0CD
:1019B00077C6109212021092130210921402109223
:1019C00015028091100290911102853E95403CF0E5
:1019D0006091100270911102645E75400DC080919B
:1019E000100290911102843D9540A4F46091100280
:1019F00070911102645D7540072E000C880B990BE5
:101A00000E94CF1460931202709313028093140209
:101A100090931502A5019401609112027091130236
:101A200080911402909115020E94981320E030E0FA
:101A300040E450E40E9425144B015C0160931202C3
:101A400070931302809314029093150210920C026B
:101A500010920D0210920E0210920F0280910A0253
:101A600090910B02853E95403CF060910A02709186
:101A70000B02645E75400DC080910A0290910B02CA
:101A8000843D9540A4F460910A0270910B02645D5C
:101A90007540072E000C880B990B0E94CF146093A1
:101AA0000C0270930D0280930E0290930F02A70117
:101AB000960160910C0270910D0280910E0290913E
:101AC0000F020E94981320E030E040E450E40E94AE
:101AD00025146B017C0160930C0270930D028093BE
:101AE0000E0290930F0210920602109207021092BB
:101AF00008021092090280913202909133028B31D8
:101B000094407CF18091300290913102853E954065
:101B10003CF06091300270913102645E75400DC0FE
:101B20008091300290913102843D9540D4F46091CF
:101B3000300270913102645D7540072E000C880BF5
:101B4000990B0E94CF1420E030E040E450E40E9462
:101B50002514609306027093070280930802909305
:101B60000902A501940169817A818B819C810E947F
:101B700098134B015C012AE037ED43E25DE30E94DC
:101B8000DF1520912A0230912B0240912C025091B6
:101B90002D020E9499132B013C0120E030E048EC1B
:101BA00053E40E94DA1518162CF480E090E0A8ECBB
:101BB000B3E417C020E030E048EC53ECC301B201BD
:101BC0000E94201487FD09C040922A0250922B02E5
:101BD00060922C0270922D020CC080E090E0A8EC84
:101BE000B3EC80932A0290932B02A0932C02B09323
:101BF0002D0226E636E646EA5FE3C501B4010E94FF
:101C0000DF1520912A0230912B0240912C02509135
:101C10002D020E9499132B013C0120912602309144
:101C200027024091280250912902C501B4010E9467
:101C3000981320E030E040E951E40E94DF159B0159
:101C4000AC01C301B2010E9499132B013C0120E0B9
:101C500030E048EC53E40E94DA1518162CF480E0CA
:101C600090E0A8ECB3E417C020E030E048EC53EC7F
:101C7000C301B2010E94201487FD09C04092FA01FD
:101C80005092FB016092FC017092FD010CC080E05B
:101C900090E0A8ECB3EC8093FA019093FB01A09341
:101CA000FC01B093FD018092260290922702A0923F
:101CB0002802B0922902A701960169857A858B8551
:101CC0009C850E9498132B013C012091EF023091DA
:101CD000F0024091F1025091F2020E94DF15209132
:101CE00022023091230240912402509125020E9449
:101CF00099134B015C01609322027093230280933D
:101D00002402909325022091E9023091EA023E8359
:101D10002D83B901330F880B990B0E94CF146B01EF
:101D20007C019B01AC01C501B4010E94DA151816B3
:101D30004CF4C0922202D0922302E0922402F0924C
:101D4000250223C06D817E81719561957109072EF1
:101D5000000C880B990B0E94CF1469837A838B83C4
:101D60009C839B01AC01C501B4010E94201487FF34
:101D70000CC089819A81AB81BC81809322029093AF
:101D80002302A0932402B09325022091F302309104
:101D9000F4024091F5025091F602C301B2010E9493
:101DA000DF152091220230912302409124025091AC
:101DB00025020E9499134B015C0120911E02309173
:101DC0001F024091200250912102C301B2010E94E2
:101DD00098132091EB023091EC024091ED0250916A
:101DE000EE020E94DF159B01AC01C501B4010E9407
:101DF00099134B015C019B01AC01C701B6010E9424
:101E0000201487FD1EC0AD81BE81B195A195B10999
:101E1000BD01BB0F880B990B0E94CF146B017C0195
:101E20009B01AC01C501B4010E94201487FD09C0CB
:101E30008092FE019092FF01A0920002B0920102F6
:101E400008C0C092FE01D092FF01E0920002F09221
:101E5000010240921E0250921F0260922002709274
:101E60002102209106023091070240910802509110
:101E700009026D857E858F8598890E9498136B0174
:101E80007C012AE037ED43EA5CE30E94DF152091F4
:101E90001A0230911B0240911C0250911D020E94B7
:101EA00099134B015C0160931A0270931B0280939B
:101EB0001C0290931D026D8D7E8D8F8D98A10E94C6
:101EC000CF142B013C019B01AC01C501B4010E9460
:101ED000DA1518164CF440921A0250921B026092C6
:101EE0001C0270921D021EC06D897E898F89988D9B
:101EF0000E94CF1469837A838B839C839B01AC01FE
:101F0000C501B4010E94201487FF0CC029813A81C9
:101F10004B815C8120931A0230931B0240931C0278
:101F200050931D0220E030E040E850E4C701B601C4
:101F30000E94DF1520911A0230911B0240911C0271
:101F400050911D020E9499134B015C0120911602D1
:101F5000309117024091180250911902C701B60141
:101F60000E94981320E030E0A9010E94DF159B0138
:101F7000AC01C501B4010E9499134B015C019B01A6
:101F8000AC01C301B2010E94201487FD19C06D8904
:101F90007E898F89988D0E94CF142B013C019B0173
:101FA000AC01C501B4010E94201487FD09C08092D4
:101FB000F6019092F701A092F801B092F90108C0E1
:101FC0004092F6015092F7016092F8017092F90187
:101FD000C0921602D0921702E0921802F0921902F3
:101FE0006091040270910502072E000C880B990B7A
:101FF0000E94CF142FE135E84BE65FE30E94DF1526
:102000006B017C010E9474078F5B9F4FBC01990F8D
:10201000880B990B0E94CF1429E13AEC49EC5DE35F
:102020000E94DF15A70196010E9499130E94971440
:1020300069877A878B879C8749855A8550930502E3
:1020400040930402CA01895592408F38914020F490
:1020500061E08CE00E945204809132029091330240
:10206000909303028093020220912E0230912F025E
:102070002230310509F07CC18930974034F088E086
:1020800097E09093030280930202609102027091A4
:102090000302072E000C880B990B0E94CF144B01F2
:1020A0005C014090FE015090FF0160900002709032
:1020B0000102A30192010E9498136D877E878F878A
:1020C000988B2091FA013091FB014091FC015091D5
:1020D000FD0129833A834B835C83C090F601D09045
:1020E000F701E090F801F090F9010E949913A7011F
:1020F00096010E9498130E949714698B7A8B8B8BA0
:102100009C8B49895A895093F5014093F401A301AE
:102110009201C501B4010E9499134B015C019B011E
:10212000AC0169817A818B819C810E949913A701FE
:1021300096010E9499130E9497142B013C01709301
:10214000F3016093F20129813A814B815C81C501E1
:10215000B4010E949813A70196010E9498130E944F
:1021600097146D837E838F8398878D819E81909352
:10217000F1018093F00129813A814B815C816D8569
:102180007E858F8598890E949813A70196010E94E9
:1021900099130E94971469837A838B839C83A98106
:1021A000BA81B093EF01A093EE0189859A8581529F
:1021B0009340873B914008F07AC029893A89B90158
:1021C000330F880B990B0E94CF144B015C0168ED13
:1021D00074E049855A85641B750B072E000C880B2B
:1021E000990B0E94CF1420E030EC4AE555E40E94A0
:1021F00025146B017C019B01AC01C501B4010E9457
:10220000DF15A50194010E9499130E949714709301
:10221000F5016093F401B201550C880B990B0E94F3
:10222000CF144B015C019B01AC01C701B6010E94B8
:10223000DF15A50194010E9499130E9497147093D1
:10224000F3016093F201AD81BE81BD01BB0F880B2C
:10225000990B0E94CF144B015C019B01AC01C7019B
:10226000B6010E94DF15A50194010E9499130E94F6
:1022700097147093F1016093F00129813A81B901BB
:10228000330F880B990B0E94CF144B015C019B010B
:10229000AC01C701B6010E94DF15A50194010E949F
:1022A00099130E9497147093EF016093EE0180914F
:1022B000F4019091F5018C34944034F44CE454E0F2
:1022C0005093F5014093F4018091F2019091F30154
:1022D0008C34944034F48CE494E09093F301809334
:1022E000F2018091F0019091F1018C34944034F42A
:1022F0002CE434E03093F1012093F0018091EE0161
:102300009091EF018C34944034F44CE454E05093B9
:10231000EF014093EE018091F4019091F501813D30
:10232000974024F03092F5012092F4018091F2015F
:102330009091F301813D974024F03092F301209277
:10234000F2018091F0019091F101813D974024F0DC
:102350003092F1012092F0018091EE019091EF0115
:10236000813D9740ACF03092EF012092EE0110C019
:102370001093F5010093F4011093F3010093F2011F
:102380001093F1010093F0011093EF010093EE011F
:102390000E94BE00C090EA01D090EB01E090EC01F9
:1023A000F090ED01DC01CB018C199D09AE09BF094C
:1023B000833D9F40A105B10520F061E08CE00E94C3
:1023C00052040E94BE00DC01CB018C199D09AE09AC
:1023D000BF09803A9F40A105B10598F30E94BE0055
:1023E0006093EA017093EB018093EC019093ED010F
:1023F0008BB1806F8BB94091EA015091EB016091F4
:10240000EC017091ED018091F4019091F501092E9C
:10241000000CAA0BBB0B840F951FA61FB71F809340
:10242000E6019093E701A093E801B093E901809160
:10243000F2019091F301092E000CAA0BBB0B840F43
:10244000951FA61FB71F8093E2019093E301A0930D
:10245000E401B093E5018091F0019091F101092E22
:10246000000CAA0BBB0B840F951FA61FB71F8093F0
:10247000DE019093DF01A093E001B093E101809130
:10248000EE019091EF01092E000CAA0BBB0B840FFB
:10249000951FA61FB71F8093DA019093DB01A093CD
:1024A000DC01B093DD010E9442028BB1803108F45F
:1024B0005CC00E94BE006093D6017093D7018093E8
:1024C000D8019093D901C090E601D090E701E09047
:1024D000E801F090E9016C157D058E059F0508F077
:1024E0005C984091E2015091E3016091E4017091A8
:1024F000E5018091D6019091D701A091D801B091CA
:10250000D90184179507A607B70708F05D98409191
:10251000DE015091DF016091E0017091E101809155
:10252000D6019091D701A091D801B091D90184171B
:102530009507A607B70708F05E984091DA01509119
:10254000DB016091DC017091DD018091D6019091F9
:10255000D701A091D801B091D90184179507A6079A
:10256000B70708F4A2CF5F98A0CF40E050E0452B1A
:1025700011F40C947E0A0E9400000C947E0A83E001
:102580000E94D301909333028093320284E00E9430
:10259000D301909331028093300280912E0290916A
:1025A0002F02019690932F0280932E028BB1806FA1
:1025B0008BB98BE99FE00197F1F78BB18F708BB9E5
:1025C00063E070E080E090E00E94E30080912E02E2
:1025D00090912F028D37910511F00C941D0A0E94E5
:1025E000870761E0892B09F060E08CE00E945204CB
:1025F00010922F0210922E020C941D0A41E050E01E
:1026000050932F0240932E02AAC982E090E090934B
:102610002F0280932E0240925402509255026092F3
:102620005602709257022D813E814F81588520932A
:102630005002309351024093520250935302109231
:102640002A0210922B0210922C0210922D0210924C
:10265000260210922702109228021092290210924C
:10266000220210922302109224021092250210924C
:102670001E0210921F02109220021092210210924C
:102680001A0210921B0210921C0210921D0210924C
:10269000160210921702109218021092190274C9B1
:1026A00010922F0210922E0284C9EDEDF2E01382F7
:1026B000128288EE93E0A0E0B0E084839583A68345
:1026C000B78384E091E09183808386E696E6A6EA6C
:1026D000BFE38093F3029093F402A093F502B093CA
:1026E000F6028AE097EDA3E2BDE38093EF029093B8
:1026F000F002A093F102B093F20280E090E0A0E932
:10270000B1E48093EB029093EC02A093ED02B093BE
:10271000EE0280E991E09093EA028093E902089545
:10272000F999FECF92BD81BDF89A992780B5089599
:102730005058BB27AA270E94B0130C94A0150E94E2
:10274000921538F00E94991520F039F49F3F19F442
:1027500026F40C9454150EF4E095E7FB0C944E15FA
:10276000E92F0E94B11558F3BA176207730784075F
:10277000950720F079F4A6F50C94D3150EF4E095A6
:102780000B2EBA2FA02D0B01B90190010C01CA012B
:10279000A0011124FF27591B99F0593F50F4503ED6
:1027A00068F11A16F040A22F232F342F4427585FC8
:1027B000F3CF469537952795A795F0405395C9F7E0
:1027C0007EF41F16BA0B620B730B840BBAF0915098
:1027D000A1F0FF0FBB1F661F771F881FC2F70EC037
:1027E000BA0F621F731F841F48F48795779567950A
:1027F000B795F7959E3F08F0B0CF9395880F08F0F6
:102800009927EE0F9795879508959F939F77EEE30D
:1028100089379E0728F4E8E6F0E00E947E150CC098
:102820000E940A159058A2EA2AED3FE049EC5FE3C6
:102830000E94B0130E94A0150F9007FC90580895B5
:102840000E942A1508F481E008950E9439140C941E
:10285000A0150E94991558F00E94921540F029F495
:102860005F3F29F00C944E1551110C94D4150C9423
:1028700054150E94B11568F39923B1F3552391F3D0
:10288000951B550BBB27AA2762177307840738F0DF
:102890009F5F5F4F220F331F441FAA1FA9F335D03C
:1028A0000E2E3AF0E0E832D091505040E695001CF0
:1028B000CAF72BD0FE2F29D0660F771F881FBB1FAA
:1028C000261737074807AB07B0E809F0BB0B802D88
:1028D000BF01FF2793585F4F3AF09E3F510578F0B4
:1028E0000C944E150C94D4155F3FE4F3983ED4F34A
:1028F000869577956795B795F7959F5FC9F7880F88
:10290000911D9695879597F90895E1E0660F771FD9
:10291000881FBB1F621773078407BA0720F0621B6A
:10292000730B840BBA0BEE1F88F7E09508950E9495
:102930009E146894B1110C94D41508950E94B91591
:1029400088F09F5798F0B92F9927B751B0F0E1F070
:10295000660F771F881F991F1AF0BA95C9F714C020
:10296000B13091F00E94D315B1E008950C94D315C5
:10297000672F782F8827B85F39F0B93FCCF3869559
:1029800077956795B395D9F73EF4909580957095B6
:1029900061957F4F8F4F9F4F0895E89409C097FB33
:1029A0003EF490958095709561957F4F8F4F9F4F26
:1029B0009923A9F0F92F96E9BB279395F69587956A
:1029C00077956795B795F111F8CFFAF4BB0F11F42D
:1029D00060FF1BC06F5F7F4F8F4F9F4F16C08823D4
:1029E00011F096E911C0772321F09EE8872F762F0A
:1029F00005C0662371F096E8862F70E060E02AF04B
:102A00009A95660F771F881FDAF7880F9695879536
:102A100097F90895DF93CF931F930F938B01EC01E8
:102A2000ECE7F0E00E9457150E94A0159801AE0156
:102A30008B01EC0160E070E080E89FE30E94981356
:102A40000E945A169801AE010F911F91CF91DF910C
:102A50000C94F215990F0008550FAA0BE0E8FEEF51
:102A600016161706E807F907C0F012161306E40752
:102A7000F50798F0621B730B840B950B39F40A264B
:102A800061F0232B242B252B21F408950A2609F429
:102A9000A140A6958FEF811D811D089597F99F672D
:102AA00080E870E060E008959FEF80EC0895DF9388
:102AB000CF931F930F93FF92EF92DF927B018C01D4
:102AC000689406C0DA2EEF010E94F215FE01E89428
:102AD000A5912591359145915591A6F3EF010E945D
:102AE000B013FE019701A801DA9469F7DF90EF9027
:102AF000FF900F911F91CF91DF9108959F938F9336
:102B00007F936F93FF93EF939B01AC010E94DF15BE
:102B1000EF91FF910E9457152F913F914F915F9137
:102B20000C94DF1500240A941616170618060906D9
:102B3000089500240A941216130614060506089533
:102B4000092E0394000C11F4882352F0BB0F40F4BB
:102B5000BF2B11F460FF04C06F5F7F4F8F4F9F4FFB
:102B6000089557FD9058440F551F59F05F3F71F07D
:102B70004795880F97FB991F61F09F3F79F08795E4
:102B80000895121613061406551FF2CF4695F1DF6D
:102B900008C0161617061806991FF1CF86957105FD
:102BA000610508940895E894BB2766277727CB0131
:102BB00097F908950E942A1508F48FEF08950E944E
:102BC000F2150C94A0150E94921538F00E949915E8
:102BD00020F0952311F00C944E150C9454151124EB
:102BE0000C94D4150E94B11570F3959FC1F3950F05
:102BF00050E0551F629FF001729FBB27F00DB11D81
:102C0000639FAA27F00DB11DAA1F649F6627B00D10
:102C1000A11D661F829F2227B00DA11D621F739FF9
:102C2000B00DA11D621F839FA00D611D221F749F07
:102C30003327A00D611D231F849F600D211D822F4E
:102C4000762F6A2F11249F5750409AF0F1F0882375
:102C50004AF0EE0FFF1FBB1F661F771F881F9150A2
:102C60005040A9F79E3F510580F00C944E150C94EE
:102C7000D4155F3FE4F3983ED4F386957795679536
:102C8000B795F795E7959F5FC1F7FE2B880F911DCC
:102C90009695879597F908959F930E94B1160F9086
:102CA00007FCEE5F0C94DA1619F416F40C94541524
:102CB0000C949A160E94B915B8F39923C9F3B6F388
:102CC0009F57550B87FF0E94A8160024A0E640EAF4
:102CD000900180585695979528F4805C660F771F71
:102CE000881F20F026173707480730F4621B730B44
:102CF000840B202931294A2BA69517940794202567
:102D000031254A2758F7660F771F881F20F02617AE
:102D10003707480730F4620B730B840B200D311D0D
:102D2000411DA09581F7B901842F9158880F969580
:102D3000879508959F3F31F0915020F487957795BE
:102D40006795B795880F911D9695879597F9089582
:102D500091505040660F771F881FD2F708950C944A
:102D600054150E94B915D8F3E894E0E0BB279F57AB
:102D7000F0F02AED3FE049EC06C0EE0FBB0F661FF6
:102D8000771F881F28F0B23A62077307840728F07C
:102D9000B25A620B730B840BE3959A9572F78038E5
:102DA00030F49A95BB0F661F771F881FD2F79048A3
:102DB0000C949C16EF93E0FF07C0A2EA2AED3FE0D7
:102DC00049EC5FEB0E94B0130E94A0150F90039492
:102DD00001FC9058E4EAF0E00C947E15DB018F933F
:102DE0009F930E943817BF91AF91A29F800D911DB4
:102DF000A39F900DB29F900D1124089597FB072E6D
:102E000016F4009407D077FD09D00E94431707FC01
:102E100005D03EF4909581959F4F089570956195EA
:102E20007F4F0895052E97FB1EF400940E942917EA
:102E300057FD07D00E94571707FC03D04EF40C949F
:102E4000291750954095309521953F4F4F4F5F4F33
:102E5000089590958095709561957F4F8F4F9F4F06
:102E600008950E947F17B7FF0895821B930B089562
:102E70000E947F17A59F900DB49F900DA49F800D79
:102E8000911D11240895AA1BBB1B51E107C0AA1F65
:102E9000BB1FA617B70710F0A61BB70B881F991FFB
:102EA0005A95A9F780959095BC01CD010895A1E2AE
:102EB0001A2EAA1BBB1BFD010DC0AA1FBB1FEE1FB4
:102EC000FF1FA217B307E407F50720F0A21BB30BFF
:102ED000E40BF50B661F771F881F991F1A9469F77B
:102EE00060957095809590959B01AC01BD01CF01D7
:102EF0000895EE0FFF1F0590F491E02D0994A29F15
:102F0000B001B39FC001A39F700D811D1124911DBD
:102F1000B29F700D811D1124911D089581E090E0F4
:0A2F2000F8940C949317F894FFCF77
:102F2A0000000000A0017301D0014F01B4005F014D
:102F3A0050019001000090410AD7233D6666A63FE2
:00000001FF
