:100000000C948A000C94B2000C94B2000C9440073B
:100010000C94B2000C94B2000C94B2000C94B20098
:100020000C94B2000C94B2000C94B2000C94B20088
:100030000C94B2000C94B2000C94B2000C94B20078
:100040000C9473030C94B2000C947E020C9458022E
:100050000C94B2000C94B2000C94B2000C94B20058
:100060000C94BD030C94B200036EDB363D9A999953
:10007000993DABAAAA2A3E000000803F072C7AA532
:10008000BA6CC590DA3B9365FC8BBC53F810FD3C11
:100090005692834DBD879D3AB63DCBC9BF5BBE73BB
:1000A000DA0FC93F05A84CCDB2D44EB93836A902F3
:1000B0000C50B9918688083CA6AAAA2ABE00000066
:1000C000803F00000000250028002B0000000000F9
:1000D000230026002900040404040404040402028A
:1000E00002020202030303030303010204081020B7
:1000F00040800102040810200102040810200000C2
:1001000000080002010000030407000000000000D6
:100110000000B11611241FBECFEFD8E0DEBFCDBF67
:1001200024E0A8E5B1E001C01D92A831B207E1F7D3
:1001300011E0A0E0B1E0E6E5F6E302C005900D9223
:10014000A835B107D9F710E0CAE8D0E004C021977C
:10015000FE010E941E1BC938D107C9F70E94500931
:100160000C94291B0C940000FC01538D448D252F09
:1001700030E0842F90E0821B930B541710F0CF9641
:10018000089501970895FC01918D828D981761F073
:10019000828DDF01A80FB11D5D968C91928D9F5FBE
:1001A0009F73928F90E008958FEF9FEF0895FC0169
:1001B000918D828D981731F0828DE80FF11D858D1C
:1001C00090E008958FEF9FEF0895FC01918D228DAF
:1001D000892F90E0805C9F4F821B91098F73992734
:1001E000089589E193E00E94E50021E0892B09F45C
:1001F00020E0822F0895FC01848DDF01A80FB11D3E
:10020000A35ABF4F2C91848D90E001968F7399274C
:10021000848FA689B7892C93A089B1898C9183702A
:1002200080648C93938D848D981306C00288F38923
:10023000E02D80818F7D80830895EF92FF920F9350
:100240001F93CF93DF93EC0181E0888F9B8D8C8D82
:10025000981305C0E889F989808185FD26C0F62EAE
:100260000B8D10E00F5F1F4F0F731127E02E8C8D49
:10027000E8120CC00FB607FCFACFE889F989808133
:1002800085FFF5CFCE010E94FB00F1CF8B8DFE01E3
:10029000E80FF11DE35AFF4FF0829FB7F8940B8FE0
:1002A000EA89FB89808180620AC09FB7F894EE8951
:1002B000FF896083E889F989808183708064808305
:1002C0009FBF81E090E0DF91CF911F910F91FF9050
:1002D000EF900895CF93DF93EC01888D8823C9F0C8
:1002E000EA89FB89808185FD05C0A889B9898C913F
:1002F00086FD0FC00FB607FCF5CF808185FFF2CFDA
:10030000A889B9898C9185FFEDCFCE010E94FB00B1
:10031000E7CFDF91CF91089580E090E0892B29F01D
:100320000E94F10081110C940000089585ED8093E6
:10033000BC008091BC0084FDFCCF1092F6020895B1
:1003400040918002262F30E0240F311D21323105EB
:10035000DCF42091F6022430C9F4FC0180E090E046
:10036000861758F4309180022191DC01A05ABD4FCC
:10037000A30FB11D2C930196F3CF80918002680FDB
:100380006093800280E0089581E0089582E00895FE
:10039000089508950895E091F8028091F702E81712
:1003A00030F4F0E0E750FD4F808190E008958FEF4A
:1003B0009FEF08959091F8028091F702981750F4FA
:1003C000E92FF0E0E750FD4F208130E09F5F9093F0
:1003D000F80202C02FEF3FEFC90108958091F702A4
:1003E00090E02091F802821B91090895CF92DF924C
:1003F000EF92FF920F931F93CF93DF937C01CB017A
:100400008A012091AC02222389F0EB016B01C40E1A
:10041000D51ECC15DD0569F06991D701ED91FC91F0
:100420000190F081E02DC7010995F3CF642F0E9460
:10043000A001C801DF91CF911F910F91FF90EF9024
:10044000DF90CF900895CF93DF931F92CDB7DEB7A3
:1004500069832091AC022223D1F02091CF02203277
:1004600040F021E030E0FC013383228380E090E023
:1004700015C08091AD02E82FF0E0E255FD4F998163
:1004800090838F5F8093AD028093CF0205C061E0BF
:10049000CE0101960E94A00181E090E00F90DF91D3
:1004A000CF910895089580E090E008950E94241B64
:1004B0001F920F920FB60F9211242F933F934F93D9
:1004C0005F936F937F938F939F93AF93BF93EF93BC
:1004D000FF9389E193E00E94FB00FF91EF91BF91B0
:1004E000AF919F918F917F916F915F914F913F91CC
:1004F0002F910F900FBE0F901F9018951F920F9283
:100500000FB60F9211242F938F939F93EF93FF9326
:10051000E0912903F0912A038081E0912F03F0916B
:10052000300382FD12C09081809132038F5F8F7300
:1005300020913303821751F0E0913203F0E0E75E3F
:10054000FC4F958F8093320301C08081FF91EF9122
:100550009F918F912F910F900FBE0F901F90189524
:10056000833081F028F4813099F08230A1F0089531
:100570008730A9F08830B9F08430D1F480918000C0
:100580008F7D03C0809180008F77809380000895D5
:1005900084B58F7702C084B58F7D84BD0895809126
:1005A000B0008F7703C08091B0008F7D8093B00042
:1005B00008951F93CF93DF93282F30E0F901E25085
:1005C000FF4F8491F901E651FF4FD491F901EA52AE
:1005D000FF4FC491CC23C1F0162F81110E94B002AD
:1005E000EC2FF0E0EE0FFF1FEE53FF4FA591B491FB
:1005F0009FB7F894111104C08C91D095D82302C0F4
:10060000EC91DE2BDC939FBFDF91CF911F9108957A
:100610003FB7F8948091A8029091A902A091AA02F4
:10062000B091AB0226B5A89B05C02F3F19F00196EB
:10063000A11DB11D3FBFBA2FA92F982F8827820F68
:10064000911DA11DB11DBC01CD0142E0660F771FB8
:10065000881F991F4A95D1F708958F929F92AF9264
:10066000BF92CF92DF92EF92FF926B017C010E94CA
:1006700008034B015C01C114D104E104F104F1F061
:100680000E940803DC01CB0188199909AA09BB095A
:10069000883E9340A105B10570F321E0C21AD1084C
:1006A000E108F10888EE880E83E0981EA11CB11CB9
:1006B000C114D104E104F10419F7DDCFFF90EF90EC
:1006C000DF90CF90BF90AF909F908F9008952FB7FD
:1006D000F8946091A4027091A5028091A602909175
:1006E000A7022FBF08951F920F920FB60F921124E9
:1006F0002F933F938F939F93AF93BF938091A402C7
:100700009091A502A091A602B091A7023091A302F8
:1007100023E0230F2D3720F40196A11DB11D05C044
:1007200026E8230F0296A11DB11D2093A3028093FA
:10073000A4029093A502A093A602B093A702809171
:10074000A8029091A902A091AA02B091AB020196D1
:10075000A11DB11D8093A8029093A902A093AA02A3
:10076000B093AB02BF91AF919F918F913F912F9129
:100770000F900FBE0F901F9018951F920F920FB6FB
:100780000F9211242F933F934F935F936F937F9317
:100790008F939F93AF93BF93EF93FF938091B90093
:1007A000887F803609F49CC068F5883209F45BC004
:1007B00090F4803109F454C038F4882309F4F6C069
:1007C000883009F44DC0F6C0883109F44CC080323D
:1007D00009F45DC0EFC0803409F468C048F4803388
:1007E00009F455C0883309F0E5C08093F402D8C0FD
:1007F000803509F44FC0883509F45DC0883409F0AC
:10080000D9C0D6C0883909F4C7C0A8F4883709F41C
:1008100067C038F4883609F463C0803709F460C0D3
:10082000C9C0883809F4B8C0803909F45FC080387D
:1008300009F0C0C05BC0803B09F486C038F4803A40
:1008400009F466C0883A09F47FC0B4C0803C09F45A
:10085000A7C0883C09F4A4C0883B09F48AC0AAC098
:100860008091F10210C09091F3028091F2029817EA
:1008700070F5E091F30281E08E0F8093F302F0E0D7
:10088000E053FD4F80818093BB0085EC86C0809350
:10089000F4028EC0E091F30281E08E0F8093F302A8
:1008A0008091BB00F0E0E053FD4F80839091F30214
:1008B0008091F2026EC0E091F30281E08E0F80938E
:1008C000F3028091BB00F0E0E053FD4F8083809104
:1008D000F50281116DC081E08093F00284EA61C06D
:1008E00083E08093F6021092A202CFCF8091A20201
:1008F000803208F051C0E091A20281E08E0F809317
:10090000A2028091BB00F0E0EE57FD4F8083BDCF87
:1009100085EC8093BC001092F6028091A202803296
:1009200030F4E091A202F0E0EE57FD4F10826091AA
:10093000A20270E0E0915801F091590182E892E042
:1009400009951092A20236C084E08093F6021092BC
:10095000810210928002E0915A01F0915B010995A9
:1009600080918002811105C081E080938002109205
:100970006002E091810281E08E0F80938102F0E0BD
:10098000E05AFD4F80818093BB009091810280915D
:100990008002981708F479CF85E88093BC000AC0DC
:1009A00085EC8093BC001092F60204C01092F40211
:1009B0000E949601FF91EF91BF91AF919F918F910E
:1009C0007F916F915F914F913F912F910F900FBE4B
:1009D0000F901F9018951F93CF93DF93E82FF0E0AF
:1009E000E858FE4F1789E12FE770F0E0EE0FFF1F88
:1009F000DF01AA5ABD4F0D90BC91A02DE858FE4FC3
:100A000037858685AF0141505109EA01488150E0A0
:100A1000542F4427BF0162507109EB019881492B83
:100A200097812681A417B507DCF4E82FF0E0F32BBB
:100A3000AE17BF070CF4DF01CA018A1B9B0BDC0158
:100A400024EF31E00E94031B9A012E1B3F0B032E63
:100A5000000C440B550B0E94E41A17FF1CC020C069
:100A60004A175B070CF530E0F901F92BEA17FB0791
:100A70000CF4DF01A41BB50B24EF31E00E94031B33
:100A80009F01241B350B032E000C440B550B0E94B9
:100A9000E41A17FF05C08CED95E0821B930B06C08E
:100AA000C90184529A4F02C08CED95E0DF91CF913D
:100AB0001F910895BF92CF92DF92EF92FF920F9312
:100AC0001F93CF93DF9380919701813009F0B2C0DB
:100AD000909176018093AC029093CE021092AD0279
:100AE0001092CF028BE390E00E9411080E945F08F1
:100AF0006EE070E080917601909177010E94160877
:100B000081E00E94EB0490939F0180939E0182E01C
:100B10000E94EB0490939D0180939C0183E00E94CE
:100B2000EB049093A3018093A20184E00E94EB0464
:100B30009093A1018093A0018091F70290E0209111
:100B4000F802821B91098E309105ECF38EEF93E051
:100B50000E94DA01C82F8EEF93E00E94DA0120E0B4
:100B600030E03C2F822B932B9093510280935002C4
:100B70008EEF93E00E94DA01C82F8EEF93E00E947F
:100B8000DA0120E030E03C2F822B932B909353022C
:100B9000809352028EEF93E00E94DA01C82F8EEF0D
:100BA00093E00E94DA0120E030E03C2F822B932B6F
:100BB00090935502809354028EEF93E00E94DA01E5
:100BC0008EEF93E00E94DA018EEF93E00E94DA014B
:100BD000C82F8EEF93E00E94DA0120E030E03C2F36
:100BE000822B932B90935F0180935E018EEF93E0B5
:100BF0000E94DA01C82F8EEF93E00E94DA0120E014
:100C000030E03C2F822B932B909361018093600105
:100C10008EEF93E00E94DA01C82F8EEF93E00E94DE
:100C2000DA0120E030E03C2F822B932B909363017C
:100C3000809362018091740190917501803D97408D
:100C400009F04EC060915E0170915F01072E000CAB
:100C5000880B990B0E942D17209168013091690132
:100C600040916A0150916B010E949E180E94981950
:100C700070935F0160935E0160916001709161010A
:100C8000072E000C880B990B0E942D1720916C01E8
:100C900030916D0140916E0150916F010E949E183C
:100CA0000E949819709361016093600160916201E4
:100CB00070916301072E000C880B990B0E942D1771
:100CC0002091700130917101409172015091730136
:100CD0000E949E180E9498197093630160936201AC
:100CE000C09094010C2D037010E0000F111FF8014B
:100CF000E45AFE4F60817181072E000C880B990B1E
:100D00000E942D17C7FC09C06093B8017093B90108
:100D10008093BA019093BB010BC0DC01CB01B058AA
:100D20008093B8019093B901A093BA01B093BB012D
:100D3000B09095018B2D8370E82EF12CEE0CFF1CEA
:100D4000F701E45AFE4F60817181072E000C880B79
:100D5000990B0E942D17B7FC09C06093B4017093E2
:100D6000B5018093B6019093B7010BC0DC01CB01B4
:100D7000B0588093B4019093B501A093B601B0939D
:100D8000B701D0909601CD2DC370D0E0CC0FDD1F00
:100D9000FE01E45AFE4F60817181072E000C880B22
:100DA000990B0E942D17D7FC09C06093B001709376
:100DB000B1018093B2019093B3010BC0DC01CB0170
:100DC000B0588093B0019093B101A093B201B09359
:100DD000B301F701E25BFD4F80819181092E000C88
:100DE000AA0BBB0BB7FE07C0B095A0959095819557
:100DF0009F4FAF4FBF4F8093AC019093AD01A09335
:100E0000AE01B093AF01F801E25BFD4F80819181AB
:100E1000092E000CAA0BBB0BC7FE07C0B095A0950E
:100E2000909581959F4FAF4FBF4F8093A8019093AE
:100E3000A901A093AA01B093AB01C25BDD4F8881E9
:100E40009981092E000CAA0BBB0BD7FE07C0B095E9
:100E5000A095909581959F4FAF4FBF4F8093A40170
:100E60009093A501A093A601B093A701DF91CF9124
:100E70001F910F91FF90EF90DF90CF90BF9008955A
:100E80001F920F920FB60F9211242F933F934F93FF
:100E90005F936F937F938F939F93AF93BF93EF93E2
:100EA000FF930E94080320914D02189B0EC0211150
:100EB0001BC021E020934D026093490270934A02C7
:100EC00080934B0290934C020FC0213069F4109232
:100ED0004D022091490230914A02AB01421B530B53
:100EE000509359024093580220914802199B0EC01A
:100EF00021111BC021E020934802609344027093AB
:100F0000450280934602909347020FC0213069F456
:100F1000109248022091440230914502AB01421BDD
:100F2000530B50935B0240935A02209143021A9B49
:100F30000EC021111BC021E02093430260933F02A9
:100F40007093400280934102909342020FC021307F
:100F500069F41092430220913F0230914002AB01AC
:100F6000421B530B50935D0240935C0220913E0262
:100F70001B9B0EC021111AC021E020933E026093FA
:100F80003A0270933B0280933C0290933D020EC064
:100F9000213061F410923E0220913A0230913B02DE
:100FA000621B730B70935F0260935E02FF91EF917F
:100FB000BF91AF919F918F917F916F915F914F9171
:100FC0003F912F910F900FBE0F901F901895CF92C9
:100FD000DF92EF92FF920F931F93CF93DF936C01F9
:100FE0007A018B01C0E0D0E0CE15DF0581F0D80199
:100FF0006D918D01D601ED91FC910190F081E02D74
:10100000C6010995892B11F02196EECF7E01C7010B
:10101000DF91CF911F910F91FF90EF90DF90CF90D4
:101020000895682F8EEF93E00C9423029091F602BE
:101030009111FCCF613208F060E291E09093F602EA
:101040009093F5022FEF2093F4021092F302260FF3
:101050002093F2029093F1029091F102880F892B74
:101060008093F1028091F002813061F41092F002DD
:101070008091F1028093BB008091BC0083FDF8CF8A
:1010800085EC01C085EE8093BC008091F602813032
:10109000E1F38091F302861710F46091F302A0ED62
:1010A000B2E0E9EFF2E080E0861721F09D919193A4
:1010B0008F5FFACF1092F8028093F7020895309173
:1010C000CF02313208F04BC08091F6028111FCCF83
:1010D0009091CE0222E02093F60221E02093F502C7
:1010E0002FEF2093F4021092F3023093F202EEEA13
:1010F000F2E0A0EDB2E020E0321721F041914D93F3
:101100002F5FFACF1092F1022091F102990F922BEA
:101110009093F1029091F002913061F41092F002FC
:101120009091F1029093BB009091BC0093FDF8CF99
:1011300095EC01C095EE9093BC009091F602923030
:10114000E1F39091F4029F3F79F08091F4028032B4
:1011500041F08091F402803331F084E005C081E0F9
:1011600003C082E001C083E01092AD021092CF0272
:101170001092AC02089580E480937C0080917A0004
:10118000806480937A0080917A0086FDFCCF809104
:1011900078002091790090E0922B089561157105F7
:1011A00079F0FB0101900020E9F73197AF01461B70
:1011B000570BDC01ED91FC910280F381E02D099445
:1011C00080E090E008958F929F92AF92BF92EF924D
:1011D000FF920F931F93CF93DF93CDB7DEB7A19705
:1011E0000FB6F894DEBF0FBECDBF7C01FA01CB0174
:1011F00019A2223008F42AE08E010F5D1F4F822EC3
:10120000912CA12CB12CBF01A50194010E94621860
:10121000F901CA01015011096A3014F4605D01C07E
:10122000695CD8016C93232B242B252B61F7B80123
:10123000C7010E94CE08A1960FB6F894DEBF0FBE7C
:10124000CDBFDF91CF911F910F91FF90EF90BF9095
:10125000AF909F908F900895CF93DF93EAE0F1E0F5
:101260008491E6EFF0E0D491E2EEF0E0C491CC237B
:1012700091F081110E94B002EC2FF0E0EE0FFF1F01
:10128000E453FF4FA591B491EC91ED2381E090E000
:1012900021F480E002C080E090E0DF91CF910895DA
:1012A000CF93DF93CDB7DEB7A0970FB6F894DEBF2C
:1012B0000FBECDBF789484B5826084BD84B5816053
:1012C00084BD85B5826085BD85B5816085BD809111
:1012D0006E00816080936E00109281008091810089
:1012E0008260809381008091810081608093810081
:1012F000809180008160809380008091B100846043
:101300008093B1008091B00081608093B0008091A3
:101310007A00846080937A0080917A008260809362
:101320007A0080917A00816080937A0080917A00BF
:10133000806880937A001092C1001092FA03109294
:10134000FB031092FC031092FD031092B80310925D
:10135000B9031092BA031092BB030E9467036B019A
:101360007C014B015C0128EB820E2BE0921EA11C3C
:10137000B11C0E9467036C157D058E059F0528F042
:1013800086169706A806B906A0F789E193E0909320
:10139000F9038093F803E0912903F0912A0382E096
:1013A0008083E0912503F09126031082E0912703CA
:1013B000F091280380E1808310923103E0912D03A6
:1013C000F0912E0386E08083E0912B03F0912C03B3
:1013D000808180618083E0912B03F0912C038081D8
:1013E00088608083E0912B03F0912C0380818068DA
:1013F0008083E0912B03F0912C0380818F7D80838B
:101400000E9467036093B8037093B9038093BA0393
:101410009093BB0362E371E08091F8039091F9032C
:101420000E94CE080E9467036B017C014B015C01A6
:101430003AE0830E911CA11CB11C0E9467036C153D
:101440007D058E059F0528F086169706A806B90625
:10145000A0F781E08093CC03109211021092100249
:1014600040911002509111025A8349834432510530
:1014700084F4CA010E944A18E981FA81E858FE4FB3
:10148000808389819A810196909311028093100242
:10149000E7CF10921102109210028091980190E013
:1014A00090937701809376011092F8021092F702E0
:1014B0001092AD021092CF021092F60281E080935A
:1014C000F5021092F00261E082E10E94D90261E02F
:1014D00083E10E94D9028091B9008E7F8093B90088
:1014E0008091B9008D7F8093B90088E48093B80023
:1014F00085E48093BC0088EC91E090935B0180933D
:101500005A0189EC91E090935901809358018CE045
:101510008093B8008AB1806F8AB984B1806384B93E
:1015200061E08CE00E94D902809199018A3441F4F3
:1015300080919A018D3421F480919B01823439F09D
:101540006AE070E080E090E00E942D03EDCF909182
:1015500097019D83892F8250823038F46AE070E0D1
:1015600080E090E00E942D0388C0AD81A13009F099
:1015700084C0B0917601B98310917701A093AC0239
:10158000B093CE021092AD021092CF028BE690E0A3
:101590000E94110880E090E00E9411080E945F08FC
:1015A0002D812093AC0239813093CE021092AD028E
:1015B0001092CF028BE190E00E94110888E090E049
:1015C0000E9411080E945F084D814093AC0259812E
:1015D0005093CE021092AD021092CF028CE190E0B7
:1015E0000E94110880E190E00E9411080E945F08AB
:1015F0006D816093AC0289818093CE021092AD021E
:101600001092CF028BE190E00E9411080E945F08C7
:1016100061E070E08981912F0E9416088091F702A5
:1016200090E02091F802821B910918161906ECF738
:101630008EEF93E00E94DA01089759F061E08CE0A8
:101640000E94D9026AE070E080E090E00E942D03E1
:10165000F9CF81E08093AC0299819093CE021092F1
:10166000AD021092CF028AE190E00E94110883E05F
:1016700090E00E9411080E945F081092750110927C
:1016800074014BE95FE02BED3EE280917401909193
:101690007501823E9440B4F48BB1806F8BB9CA015E
:1016A0000197F1F78BB18F708BB9C9010197F1F7F1
:1016B00080917401909175010196909375018093CA
:1016C0007401E3CF10927501109274010FE010E0E5
:1016D0008091740190917501803DB7E09B070CF0FB
:1016E00084C0B8010E94D01A892B49F40E942C09A9
:1016F00061E0892B09F060E08CE00E94D9020E9431
:101700005A0560915E0170915F01072E000C880BF5
:10171000990B0E942D179B01AC016091680170919B
:10172000690180916A0190916B010E949F186093FA
:1017300068017093690180936A0190936B016091D5
:10174000600170916101072E000C880B990B0E94BB
:101750002D179B01AC0160916C0170916D0180911E
:101760006E0190916F010E949F1860936C017093BD
:101770006D0180936E0190936F0160916201709191
:101780006301072E000C880B990B0E942D179B01FB
:10179000AC01609170017091710180917201909122
:1017A00073010E949F186093700170937101809380
:1017B0007201909373018BB1806F8BB98BE99FE0BD
:1017C0000197F1F78BB18F708BB963E070E080E027
:1017D00090E00E942D038091740190917501019613
:1017E000909375018093740173CF20E030E04AEF4D
:1017F00054E4609168017091690180916A0190914F
:101800006B010E94261960936801709369018093AF
:101810006A0190936B0120E030E04AEF54E460915C
:101820006C0170916D0180916E0190916F010E9429
:10183000261960936C0170936D0180936E019093F3
:101840006F0120E030E04AEF54E460917001709144
:10185000710180917201909173010E942619609329
:101860007001709371018093720190937301809164
:10187000680081608093680080916B008160809334
:101880006B0080916B00826080936B0080916B0095
:10189000846080936B0080916B00886080936B0004
:1018A0008091A2019091A3018E3D934014F40C9479
:1018B00012168091A2019091A3018D3F934014F0E4
:1018C0000C9412168091A0019091A1018837954047
:1018D00014F40C94121610921102109210020E942D
:1018E000BB088F5B9F4FBC01990F880B990B0E941F
:1018F0002D1728E538EA4DE95FE30E948C170E9416
:1019000098197093EB016093EA010E9408036093B9
:10191000D0017093D1018093D2019093D30160E004
:101920008CE00E94D90280912401909125019C01B4
:10193000092E000C440B550B2D8F3E8F4F8F58A353
:101940009195819591099C01990F440B550B2D8B15
:101950003E8B4F8B588F80ED282E87E0382E0CE47D
:1019600014E00E946703672B682B692B41F40E94E7
:101970006703623071058105910508F418C10E9462
:101980006703C0903602D0903702E0903802F090A2
:1019900039026C157D058E059F0540F46093360273
:1019A000709337028093380290933902C0903602C8
:1019B000D0903702E0903802F09039029B01AC01E0
:1019C0002C193D094E095F0969017A013AEFC316E6
:1019D000D104E104F10408F4EAC060933602709384
:1019E0003702809338029093390284EF91E0A0E0AF
:1019F000B0E08093C4039093C503A093C603B09353
:101A0000C7031092C8031092C9031092CA03109220
:101A1000CB038091BC039091BD03A091BE03B09114
:101A2000BF038093C0039093C103A093C203B093FC
:101A3000C3030E9467036093BC037093BD0380934C
:101A4000BE039093BF030E9467036093B803709333
:101A5000B9038093BA039093BB030E9467036B01A1
:101A60007C0164E471E08091F8039091F9030E9495
:101A7000CE082AE041E050E060E070E08091F80399
:101A80009091F9030E94E3086BE471E08091F80300
:101A90009091F9030E94CE082AE0B701A601809137
:101AA000F8039091F9030E94E3086DE471E08091DE
:101AB000F8039091F9030E94CE088091BC039091A5
:101AC000BD03A091BE03B091BF03B701A601481B9F
:101AD000590B6A0B7B0B2AE08091F8039091F90374
:101AE0000E94E3086DE471E08091F8039091F9039E
:101AF0000E94CE084091BC035091BD036091BE038B
:101B00007091BF038091C0039091C103A091C20363
:101B1000B091C303481B590B6A0B7B0B2AE08091E1
:101B2000F8039091F9030E94E3086FE471E080915B
:101B3000F8039091F9030E94CE080E946703AB015D
:101B4000BC012AE08091F8039091F9030E94E30818
:101B5000A091F803B091F903BA83A98361E571E01C
:101B6000CD010E94CE0861E471E089819A810E94D2
:101B7000CE080E9467034B015C016B017C01B5E05C
:101B8000CB0ED11CE11CF11C0E946703681579057E
:101B90008A059B0510F00C9451160E946703609310
:101BA000BC037093BD038093BE039093BF0340902A
:101BB000B8015090B9016090BA017090BB0123E365
:101BC00033E343E35FE3609132027091330280912B
:101BD0003402909135020E948C176B017C0120E049
:101BE00030E043E852E4C301B2010E9426192AE919
:101BF00039E949E95EE30E948C179B01AC01C701FA
:101C0000B6010E949F1869837A838B839C836093BB
:101C10003202709333028093340290933502C09065
:101C2000B401D090B501E090B601F090B70123E384
:101C300033E343E35FE360912E0270912F028091C2
:101C40003002909131020E948C174B015C0120E020
:101C500030E043E852E4C701B6010E9426192AE9A0
:101C600039E949E95EE30E948C179B01AC01C5018B
:101C7000B4010E949F1869877A878B879C8760933D
:101C80002E0270932F028093300290933102809045
:101C9000B0019090B101A090B201B090B30123E3E4
:101CA00033E343E35FE360912A0270912B0280915A
:101CB0002C0290912D020E948C176D877E878F8752
:101CC000988B20E030E043E852E4C501B4010E9463
:101CD00026192AE939E949E95EE30E948C179B013C
:101CE000AC016D857E858F8598890E949F186D87D0
:101CF0007E878F87988B60932A0270932B02809344
:101D00002C0290932D0220ED32E240E858E3C3010B
:101D1000B2010E948C17209122023091230240913F
:101D20002402509125020E949F182B013C012BE7B1
:101D300033E14FE855E3C501B4010E948C170E94BE
:101D40002E1A4B015C0120ED32E240E858E3C70156
:101D5000B6010E948C1720912602309127024091F3
:101D60002802509129020E949F186B017C01A50155
:101D70009401C301B2010E948C179B01AC01C70101
:101D8000B6010E949E18698B7A8B8B8B9C8B9B0172
:101D9000AC01C501B4010E948C17A30192010E94FD
:101DA0009F18698F7A8F8B8F9C8FC090AC01D090D9
:101DB000AD01E090AE01F090AF018090A80190904D
:101DC000A901A090AA01B090AB012091A40130918B
:101DD000A5014091A6015091A7012D833E834F8319
:101DE0005887A7019601C701B6010E9452182B011E
:101DF0003C01A5019401C501B4010E945218460E90
:101E0000571E681E791E2D813E814F815885CA015B
:101E1000B9010E945218640D751D861D971D0E9400
:101E20002D170E943C1A0E9498192B013C01D501E4
:101E3000C401B7FE07C088279927DC0188199909D2
:101E4000AA09BB0984159505A605B70504F5C501C2
:101E5000B4010E942D174B015C01C301B2010E9425
:101E60002D179B01AC01C501B4010E9426190E94E7
:101E70000B192BE13FE245E652E40E948C17609378
:101E80001E0270931F028093200290932102D701BB
:101E9000C601F7FE07C088279927DC018C199D0928
:101EA000AE09BF0984159505A605B70504F5C70158
:101EB000B6010E942D176B017C01C301B2010E9483
:101EC0002D179B01AC01C701B6010E9426190E9483
:101ED0000B192BE13FE245E652EC0E948C17609310
:101EE0001A0270931B0280931C0290931D02409073
:101EF0001E0250901F02609020027090210280917B
:101F00001A0290911B02A0911C02B0911D028D83B8
:101F10009E83AF83B88729EC35EE4FE75FE369898D
:101F20007A898B899C890E948C176B017C0127E13F
:101F300037EB41ED59E3C301B2010E948C179B01BD
:101F4000AC01C701B6010E949F186B017C01609330
:101F5000260270932702809328029093290229EC8D
:101F600035EE4FE75FE3698D7A8D8B8D9C8D0E94F6
:101F70008C174B015C0127E137EB41ED59E36D8193
:101F80007E818F8198850E948C179B01AC01C501D1
:101F9000B4010E949F184B015C0160932202709370
:101FA0002302809324029093250220E030E040E752
:101FB00051E4C701B6010E948C176B017C0160934C
:101FC000160270931702809318029093190220E072
:101FD00030E040E751E4C501B4010E948C174B0189
:101FE0005C01609312027093130280931402909329
:101FF00015028091A2019091A3018A31944044F48A
:102000008091A0019091A1018A3194400CF452C6B4
:102010008091100290911102019779F48091A201B0
:102020009091A3018A31944044F48091A001909151
:10203000A1018B3A95400CF044C68091100290911A
:102040001102029779F48091A2019091A3018A3143
:10205000944044F48091A0019091A1018F39974060
:102060000CF07AC61092F4011092F5011092F6016C
:102070001092F70180919E0190919F01853E9540BD
:102080003CF060919E0170919F01645E75400DC0AF
:1020900080919E0190919F01843D9540A4F46091B0
:1020A0009E0170919F01645D7540072E000C880BA6
:1020B000990B0E942D176093F4017093F5018093A2
:1020C000F6019093F701A50194016091F4017091DC
:1020D000F5018091F6019091F7010E949E1820E091
:1020E00030E040E450E40E9426194B015C0160930B
:1020F000F4017093F5018093F6019093F70110922B
:10210000F0011092F1011092F2011092F30180910E
:102110009C0190919D01853E95403CF060919C0111
:1021200070919D01645E75400DC080919C019091FD
:102130009D01843D9540A4F460919C0170919D01A6
:10214000645D7540072E000C880B990B0E942D17BB
:102150006093F0017093F1018093F2019093F30189
:10216000A70196016091F0017091F1018091F20157
:102170009091F3010E949E1820E030E040E450E48A
:102180000E9426196B017C016093F0017093F101AC
:102190008093F2019093F3011092EC011092ED0103
:1021A0001092EE011092EF018091A2019091A30193
:1021B0008B3194407CF18091A0019091A101853EEA
:1021C00095403CF06091A0017091A101645E754062
:1021D0000DC08091A0019091A101843D9540D4F45F
:1021E0006091A0017091A101645D7540072E000C03
:1021F000880B990B0E942D1720E030E040E450E45A
:102200000E9426196093EC017093ED018093EE011A
:102210009093EF01A501940169817A818B819C8162
:102220000E949E184B015C012AE037ED43E25DE31A
:102230000E948C1720910C0230910D0240910E02E9
:1022400050910F020E949F182B013C0120E030E0CA
:1022500048EC53E40E94291A18162CF480E090E010
:10226000A8ECB3E417C020E030E048EC53ECC30125
:10227000B2010E94261787FD09C040920C025092BD
:102280000D0260920E0270920F020CC080E090E08E
:10229000A8ECB3EC80930C0290930D02A0930E0275
:1022A000B0930F0226E636E646EA5FE3C501B401C5
:1022B0000E948C1720910C0230910D0240910E0269
:1022C00050910F020E949F182B013C01209108029F
:1022D0003091090240910A0250910B02C501B401EC
:1022E0000E949E1820E030E040E951E40E948C17E3
:1022F0009B01AC01C301B2010E949F182B013C015C
:1023000020E030E048EC53E40E94291A18162CF41F
:1023100080E090E0A8ECB3E417C020E030E048ECA7
:1023200053ECC301B2010E94261787FD09C04092F9
:10233000E0015092E1016092E2017092E3010CC071
:1023400080E090E0A8ECB3EC8093E0019093E10191
:10235000A093E201B093E3018092080290920902F7
:10236000A0920A02B0920B02A701960169857A85B4
:102370008B859C850E949E182B013C0120911004A6
:102380003091110440911204509113040E948C1753
:1023900020910402309105024091060250910702FB
:1023A0000E949F184B015C01609304027093050228
:1023B000809306029093070280910A0490910B0487
:1023C0009E838D83BC01990F880B990B0E942D175A
:1023D0006B017C019B01AC01C501B4010E94291A6B
:1023E00018164CF4C0920402D0920502E092060244
:1023F000F092070223C06D817E817195619571090C
:10240000072E000C880B990B0E942D1769837A8385
:102410008B839C839B01AC01C501B4010E942617EC
:1024200087FF0CC029813A814B815C812093040293
:102430003093050240930602509307022091140442
:10244000309115044091160450911704C301B20154
:102450000E948C17209104023091050240910602DF
:10246000509107020E949F184B015C0120910002CD
:10247000309101024091020250910302C301B20166
:102480000E949E1820910C0430910D0440910E047E
:1024900050910F040E948C179B01AC01C501B4013F
:1024A0000E949F184B015C019B01AC01C701B60162
:1024B0000E94261787FD1EC04D815E815195419572
:1024C0005109BA01550F880B990B0E942D176B010A
:1024D0007C019B01AC01C501B4010E94261787FD58
:1024E00009C08092E4019092E501A092E601B092C9
:1024F000E70108C0C092E401D092E501E092E60154
:10250000F092E701409200025092010260920202B2
:10251000709203022091EC013091ED014091EE01A7
:102520005091EF016D857E858F8598890E949E1858
:102530006B017C012AE037ED43EA5CE30E948C17D3
:102540002091FC013091FD014091FE015091FF016D
:102550000E949F184B015C016093FC017093FD0188
:102560008093FE019093FF016D8D7E8D8F8D98A1DC
:102570000E942D172B013C019B01AC01C501B40148
:102580000E94291A18164CF44092FC015092FD0149
:102590006092FE017092FF011EC06D897E898F8955
:1025A000988D0E942D1769837A838B839C839B016E
:1025B000AC01C501B4010E94261787FF0CC08981B8
:1025C0009A81AB81BC818093FC019093FD01A09323
:1025D000FE01B093FF0120E030E040E850E4C70185
:1025E000B6010E948C172091FC013091FD014091B1
:1025F000FE015091FF010E949F184B015C01209148
:10260000F8013091F9014091FA015091FB01C701A5
:10261000B6010E949E1820E030E0A9010E948C17AC
:102620009B01AC01C501B4010E949F184B015C01E4
:102630009B01AC01C301B2010E94261787FD19C09E
:102640006D897E898F89988D0E942D172B013C0101
:102650009B01AC01C501B4010E94261787FD09C08A
:102660008092DC019092DD01A092DE01B092DF0148
:1026700008C04092DC015092DD016092DE01709250
:10268000DF01C092F801D092F901E092FA01F092D4
:10269000FB016091EA017091EB01072E000C880BA1
:1026A000990B0E942D172FE135E84BE65FE30E945E
:1026B0008C176B017C010E94BB088F5B9F4FBC0194
:1026C000990F880B990B0E942D1729E13AEC49ECE0
:1026D0005DE30E948C17A70196010E949F180E943B
:1026E000981969877A878B879C87A985BA85B09363
:1026F000EB01A093EA01CD01895592408F389140BA
:1027000020F461E08CE00E94D9028091A2019091B6
:10271000A3019093E9018093E80120911002309188
:1027200011022230310509F07AC18930974034F026
:1027300048E057E05093E9014093E8016091E801D7
:102740007091E901072E000C880B990B0E942D1740
:102750004B015C014090E4015090E5016090E6017E
:102760007090E701A30192010E949E186D877E87F9
:102770008F87988B8091E0019091E101A091E20117
:10278000B091E30189839A83AB83BC83C090DC0161
:10279000D090DD01E090DE01F090DF019C01AD0101
:1027A0006D857E858F8598890E949F18A701960167
:1027B0000E949E180E949819698B7A8B8B8B9C8B38
:1027C000A989BA89B093DB01A093DA01A301920130
:1027D000C501B4010E949F184B015C019B01AC0133
:1027E00069817A818B819C810E949F18A701960143
:1027F0000E949F180E9498192B013C017093D901E7
:102800006093D80129813A814B815C81C501B40173
:102810000E949E18A70196010E949E180E94981976
:102820006D837E838F8398872D813E813093D7017E
:102830002093D60129813A814B815C816D857E850B
:102840008F8598890E949E18A70196010E949F1863
:102850000E94981969837A838B839C8349815A816A
:102860005093D5014093D40189859A858152934034
:10287000873B914008F07AC0A989BA89BD01BB0F96
:10288000880B990B0E942D174B015C0168ED74E0D9
:1028900029853A85621B730B072E000C880B990B58
:1028A0000E942D1720E030EC4AE555E40E942619DD
:1028B0006B017C019B01AC01C501B4010E948C1726
:1028C000A50194010E949F180E9498197093DB0142
:1028D0006093DA01B201550C880B990B0E942D17F9
:1028E0004B015C019B01AC01C701B6010E948C1732
:1028F000A50194010E949F180E9498197093D90114
:102900006093D8014D815E81BA01550F880B990BF8
:102910000E942D174B015C019B01AC01C701B60160
:102920000E948C17A50194010E949F180E9498197B
:102930007093D7016093D601A981BA81BD01BB0F05
:10294000880B990B0E942D174B015C019B01AC0178
:10295000C701B6010E948C17A50194010E949F181F
:102960000E9498197093D5016093D4018091DA0187
:102970009091DB018C34944024F41093DB0100939C
:10298000DA018091D8019091D9018C34944024F4DB
:102990001093D9010093D8018091D6019091D7016D
:1029A0008C34944024F41093D7010093D601809185
:1029B000D4019091D5018C34944024F41093D50126
:1029C0000093D4018091DA019091DB01813D974021
:1029D00024F03092DB012092DA018091D8019091AD
:1029E000D901813D974024F03092D9012092D8013D
:1029F0008091D6019091D701813D974024F030928B
:102A0000D7012092D6018091D4019091D501813DCA
:102A10009740BCF03092D5012092D40112C028EE2C
:102A200033E03093DB012093DA013093D901209316
:102A3000D8013093D7012093D6013093D50120934C
:102A4000D4010E940803C090D001D090D101E09041
:102A5000D201F090D301DC01CB018C199D09AE09A4
:102A6000BF09833D9F40A105B10520F061E08CE0E6
:102A70000E94D9020E940803DC01CB018C199D0938
:102A8000AE09BF09803A9F40A105B10598F30E94A5
:102A900008036093D0017093D1018093D201909389
:102AA000D3018BB1806F8BB94091D0015091D1018E
:102AB0006091D2017091D3018091DA019091DB0194
:102AC000092E000CAA0BBB0B840F951FA61FB71F66
:102AD0008093CC019093CD01A093CE01B093CF0110
:102AE0008091D8019091D901092E000CAA0BBB0B43
:102AF000840F951FA61FB71F8093C8019093C9012B
:102B0000A093CA01B093CB018091D6019091D701D7
:102B1000092E000CAA0BBB0B840F951FA61FB71F15
:102B20008093C4019093C501A093C601B093C701DF
:102B30008091D4019091D501092E000CAA0BBB0BFA
:102B4000840F951FA61FB71F8093C0019093C101EA
:102B5000A093C201B093C3010E945A058BB180318A
:102B600008F45CC00E9408036093BC017093BD012F
:102B70008093BE019093BF01C090CC01D090CD0155
:102B8000E090CE01F090CF016C157D058E059F057C
:102B900008F05C984091C8015091C9016091CA0148
:102BA0007091CB018091BC019091BD01A091BE01BB
:102BB000B091BF0184179507A607B70708F05D9885
:102BC0004091C4015091C5016091C6017091C70147
:102BD0008091BC019091BD01A091BE01B091BF0157
:102BE00084179507A607B70708F05E984091C001C3
:102BF0005091C1016091C2017091C3018091BC01EB
:102C00009091BD01A091BE01B091BF0184179507BD
:102C1000A607B70708F4A2CF5F98A0CF0E948C0147
:102C20000C94B10C83E00E94EB049093A301809379
:102C3000A20184E00E94EB049093A1018093A00183
:102C4000809110029091110201969093110280934D
:102C500010028BB1806F8BB98BE99FE00197F1F780
:102C60008BB18F708BB963E070E080E090E00E94E0
:102C70002D0380911002909111028D37910511F072
:102C80000C94500C0E942C0961E0892B09F060E043
:102C90008CE00E94D90210921102109210020C9442
:102CA000500CC616D706E806F90610F00C94C40DB1
:102CB0000C94CD0D41E050E050931102409310026E
:102CC000A7C982E090E09093110280931002409295
:102CD00026025092270260922802709229022D81CA
:102CE0003E814F81588520932202309323024093E6
:102CF00024025093250210920C0210920D021092A1
:102D00000E0210920F021092080210920902109205
:102D10000A0210920B021092040210920502109205
:102D20000602109207021092000210920102109205
:102D30000202109203021092FC011092FD01109207
:102D4000FE011092FF011092F8011092F901109209
:102D5000FA011092FB0171C9109211021092100237
:102D600081C9E9E1F3E01382128288EE93E0A0E0EA
:102D7000B0E084839583A683B78324E031E0318378
:102D8000208325EC30E03587248724EC30E037873A
:102D9000268720EC30E0318B208B21EC30E0338B28
:102DA000228B22EC30E0358B248B26EC30E0378B05
:102DB000268B118E128E138E148EE6EBF3E01682A4
:102DC000178210861186128613861486158616863B
:102DD0001786108A118A128A138A148A158AEEEFCE
:102DE000F3E01382128284839583A683B78386E1FE
:102DF00091E09183808386E696E6A6EABFE380931E
:102E0000140490931504A0931604B09317048AE059
:102E100097EDA3E2BDE38093100490931104A09377
:102E20001204B093130480E090E0A0E9B1E4809331
:102E30000C0490930D04A0930E04B0930F0480E94A
:102E400091E090930B0480930A0408950E94681700
:102E500008F481E00895E89409C097FB3EF490954A
:102E60008095709561957F4F8F4F9F4F9923A9F063
:102E7000F92F96E9BB279395F695879577956795F2
:102E8000B795F111F8CFFAF4BB0F11F460FF1BC036
:102E90006F5F7F4F8F4F9F4F16C0882311F096E9C9
:102EA00011C0772321F09EE8872F762F05C0662377
:102EB00071F096E8862F70E060E02AF09A95660F30
:102EC000771F881FDAF7880F9695879597F90895E9
:102ED000990F0008550FAA0BE0E8FEEF161617062B
:102EE000E807F907C0F012161306E407F50798F093
:102EF000621B730B840B950B39F40A2661F0232BAC
:102F0000242B252B21F408950A2609F4A140A69527
:102F10008FEF811D811D08950E949F170C9410183A
:102F20000E94021838F00E94091820F0952311F031
:102F30000C94F9170C94FF1711240C9444180E9458
:102F4000211870F3959FC1F3950F50E0551F629FB4
:102F5000F001729FBB27F00DB11D639FAA27F00DF2
:102F6000B11DAA1F649F6627B00DA11D661F829F19
:102F70002227B00DA11D621F739FB00DA11D621FFE
:102F8000839FA00D611D221F749F3327A00D611D1B
:102F9000231F849F600D211D822F762F6A2F1124FD
:102FA0009F5750409AF0F1F088234AF0EE0FFF1F30
:102FB000BB1F661F771F881F91505040A9F79E3F87
:102FC000510580F00C94F9170C9444185F3FE4F31A
:102FD000983ED4F3869577956795B795F795E795DD
:102FE0009F5FC1F7FE2B880F911D9695879597F9E6
:102FF000089597F99F6780E870E060E008959FEF7B
:1030000080EC089500240A9416161706180609067F
:10301000089500240A94121613061406050608954E
:10302000092E0394000C11F4882352F0BB0F40F4D6
:10303000BF2B11F460FF04C06F5F7F4F8F4F9F4F16
:10304000089557FD9058440F551F59F05F3F71F098
:103050004795880F97FB991F61F09F3F79F08795FF
:103060000895121613061406551FF2CF4695F1DF88
:1030700008C0161617061806991FF1CF8695710518
:10308000610508940895E894BB2766277727CB014C
:1030900097F90895F999FECF92BD81BDF89A9927C5
:1030A00080B50895DB018F939F930E948418BF9190
:1030B000AF91A29F800D911DA39F900DB29F900D87
:1030C00011240895A1E21A2EAA1BBB1BFD010DC0FD
:1030D000AA1FBB1FEE1FFF1FA217B307E407F507C8
:1030E00020F0A21BB30BE40BF50B661F771F881FA4
:1030F000991F1A9469F760957095809590959B013A
:10310000AC01BD01CF0108950E948F18A59F900DBD
:10311000B49F900DA49F800D911D11240895A29F2E
:10312000B001B39FC001A39F700D811D1124911D9B
:10313000B29F700D811D1124911D08955058BB2719
:10314000AA270E94B6180C9410180E94021838F092
:103150000E94091820F039F49F3F19F426F40C94CA
:10316000FF170EF4E095E7FB0C94F917E92F0E9486
:10317000211858F3BA17620773078407950720F0E0
:1031800079F4A6F50C9443180EF4E0950B2EBA2FA3
:10319000A02D0B01B90190010C01CA01A00111245D
:1031A000FF27591B99F0593F50F4503E68F11A1609
:1031B000F040A22F232F342F4427585FF3CF46959A
:1031C00037952795A795F0405395C9F77EF41F16BC
:1031D000BA0B620B730B840BBAF09150A1F0FF0F86
:1031E000BB1F661F771F881FC2F70EC0BA0F621F72
:1031F000731F841F48F4879577956795B795F79562
:103200009E3F08F0B0CF9395880F08F09927EE0FF6
:103210009795879508959F939F77EEE389379E074B
:1032200028F4E8E6F0E00E94151A0CC00E94CE19BE
:103230009058A2EA2AED3FE049EC5FE30E94B618FD
:103240000E9410180F9007FC905808950E943A1998
:103250000C9410180E94091858F00E94021840F0AF
:1032600029F45F3F29F00C94F91751110C9444187C
:103270000C94FF170E94211868F39923B1F355238A
:1032800091F3951B550BBB27AA2762177307840779
:1032900038F09F5F5F4F220F331F441FAA1FA9F30F
:1032A00035D00E2E3AF0E0E832D091505040E695FD
:1032B000001CCAF72BD0FE2F29D0660F771F881F5E
:1032C000BB1F261737074807AB07B0E809F0BB0B51
:1032D000802DBF01FF2793585F4F3AF09E3F510565
:1032E00078F00C94F9170C9444185F3FE4F3983E7F
:1032F000D4F3869577956795B795F7959F5FC9F74E
:10330000880F911D9695879597F90895E1E0660FCE
:10331000771F881FBB1F621773078407BA0720F047
:10332000621B730B840BBA0BEE1F88F7E0950895B0
:103330000E949F196894B1110C94441808950E943A
:10334000291888F09F5798F0B92F9927B751B0F0F6
:10335000E1F0660F771F881F991F1AF0BA95C9F719
:1033600014C0B13091F00E944318B1E008950C945C
:103370004318672F782F8827B85F39F0B93FCCF30F
:10338000869577956795B395D9F73EF49095809596
:10339000709561957F4F8F4F9F4F0895DF93CF9327
:1033A0001F930F938B01EC01ECE7F0E00E94EE1904
:1033B0000E9410189801AE018B01EC0160E070E0F2
:1033C00080E89FE30E949E180E943C1A9801AE017B
:1033D0000F911F91CF91DF910C949F17DF93CF93A3
:1033E0001F930F93FF92EF92DF927B018C01689401
:1033F00006C0DA2EEF010E949F17FE01E894A59106
:103400002591359145915591A6F3EF010E94B6188B
:10341000FE019701A801DA9469F7DF90EF90FF9021
:103420000F911F91CF91DF9108959F938F937F9379
:103430006F93FF93EF939B01AC010E948C17EF9168
:10344000FF910E94EE192F913F914F915F910C9443
:103450008C170E94681708F48FEF08959F930E94BD
:10346000931A0F9007FCEE5F0C94BC1A19F416F433
:103470000C94FF170C947C1A0E942918B8F3992316
:10348000C9F3B6F39F57550B87FF0E948A1A002491
:10349000A0E640EA900180585695979528F4805C04
:1034A000660F771F881F20F026173707480730F46C
:1034B000621B730B840B202931294A2BA695179484
:1034C0000794202531254A2758F7660F771F881F54
:1034D00020F026173707480730F4620B730B840B74
:1034E000200D311D411DA09581F7B901842F915800
:1034F000880F9695879508959F3F31F0915020F45D
:10350000879577956795B795880F911D96958795BF
:1035100097F9089591505040660F771F881FD2F792
:1035200008950C94FF170E942918D8F3E894E0E05E
:10353000BB279F57F0F02AED3FE049EC06C0EE0FA5
:10354000BB0F661F771F881F28F0B23A6207730708
:10355000840728F0B25A620B730B840BE3959A959B
:1035600072F7803830F49A95BB0F661F771F881F5B
:10357000D2F790480C947E1AEF93E0FF07C0A2EABE
:103580002AED3FE049EC5FEB0E94B6180E9410184C
:103590000F90039401FC9058E4EAF0E00C94151AA3
:1035A00097FB072E16F4009407D077FD09D00E94F0
:1035B0000A1B07FC05D03EF4909581959F4F089516
:1035C000709561957F4F0895052E97FB1EF400942A
:1035D0000E94FB1A57FD07D00E94621807FC03D017
:1035E0004EF40C94FB1A50954095309521953F4F21
:1035F0004F4F5F4F089590958095709561957F4FDF
:103600008F4F9F4F08950E948F18B7FF0895821B18
:10361000930B0895AA1BBB1B51E107C0AA1FBB1F38
:10362000A617B70710F0A61BB70B881F991F5A954E
:10363000A9F780959095BC01CD010895EE0FFF1F6D
:103640000590F491E02D099481E090E0F8940C94B9
:06365000291BF894FFCFD6
:10365600000000001D01E707B4006A01E500C30091
:10366600D700000000002302F6015302CA01EE0152
:10367600DA01CB019001000090410AD7233D66662E
:10368600A63F564D4450565F317C315F564D4450EF
:10369600560D0A00564D4450455F003A323A007CBA
:0836A600005F564D4450450041
:00000001FF
