:100000000C945D000C9485000C9485000C94850084
:100010000C9485000C9485000C9485000C9485004C
:100020000C9485000C9485000C9485000C9485003C
:100030000C9485000C9485000C9485000C9485002C
:100040000C94B4030C9485000C9424040C94FE03CB
:100050000C9485000C9485000C9485000C9485000C
:100060000C9456040C948500000000080002010066
:100070000003040700000000000000000000000072
:10008000250028002B0000000000240027002A0083
:10009000040404040404040402020202020203032E
:1000A0000303030301020408102040800102040836
:1000B0001020010204081020840511241FBECFEF78
:1000C000D8E0DEBFCDBF11E0A0E0B1E0E8E4F3E1AD
:1000D00002C005900D92A633B107D9F722E0A6E33E
:1000E000B1E001C01D92AA38B207E1F710E0CDE5FA
:1000F000D0E004C02197FE010E949709CC35D107BA
:10010000C9F70E94FF050C94A2090C94000090E02E
:10011000FC01EC55FF4F2491FC01E057FF4F849107
:10012000882399F090E0880F991FFC01EA57FF4F50
:10013000A591B491FC01E458FF4F859194918FB73C
:10014000F894EC91E22BEC938FBF089590E0FC01C2
:10015000E859FF4F2491FC01EC55FF4F3491FC010D
:10016000E057FF4FE491EE2309F43CC0222339F11C
:10017000233091F038F42130A9F0223001F584B514
:100180008F7D12C0273091F02830A1F02430B9F4CF
:10019000809180008F7D03C0809180008F77809355
:1001A00080000DC084B58F7784BD09C08091B000F8
:1001B0008F7703C08091B0008F7D8093B000F0E016
:1001C000EE0FFF1FE458FF4FA591B4919FB7F8942D
:1001D000611104C08C913095382302C0EC913E2B04
:1001E0003C939FBF0895CF93DF9360E08CE00E9423
:1001F000A60060E088E00E94A600C7E0D0E060E0D2
:1002000084E00E94A6008091840290E00C2E02C03F
:10021000959587950A94E2F780FF02C061E001C0DE
:1002200060E088E00E94A60061E084E00E94A600F1
:10023000219728F761E08CE0DF91CF910C94A60024
:100240008CE00E94870087E00E94870088E00E947F
:10025000870084E00E948700109284020E94F300CD
:1002600060E087E00C94A600CF92DF92EF92FF92BD
:100270000F931F93CF93DF936C017A018B01C0E042
:10028000D0E0CE15DF0581F0D8016D918D01D6014A
:10029000ED91FC910190F081E02DC6010995892B2B
:1002A00011F02196EECF7E01C701DF91CF911F9112
:1002B0000F91FF90EF90DF90CF9008958091C7014C
:1002C00090E02091C601821B910908950895089538
:1002D000FC01538D448D252F30E0842F90E0821B4C
:1002E000930B541710F0CF96089501970895FC01D1
:1002F000918D828D981761F0828DDF01A80FB11D5D
:100300005D968C91928D9F5F9F73928F90E0089580
:100310008FEF9FEF0895FC01918D828D981731F03A
:10032000828DE80FF11D858D90E008958FEF9FEF8E
:100330000895FC01918D228D892F90E0805C9F4F64
:10034000821B91098F73992708958BED91E00E948C
:10035000990121E0892B09F420E0822F0895FC0106
:10036000848DDF01A80FB11DA35ABF4F2C91848D3E
:1003700090E001968F739927848FA689B7892C9373
:10038000A089B1898C91837080648C93938D848DC6
:10039000981306C00288F389E02D80818F7D8083C9
:1003A0000895EF92FF920F931F93CF93DF93EC0189
:1003B00081E0888F9B8D8C8D981305C0E889F98921
:1003C000808185FD26C0F62E0B8D10E00F5F1F4F3C
:1003D0000F731127E02E8C8DE8120CC00FB607FCAE
:1003E000FACFE889F989808185FFF5CFCE010E9497
:1003F000AF01F1CF8B8DFE01E80FF11DE35AFF4FE6
:10040000F0829FB7F8940B8FEA89FB898081806224
:100410000AC09FB7F894EE89FF896083E889F9895B
:1004200080818370806480839FBF81E090E0DF9152
:10043000CF911F910F91FF90EF900895CF93DF938D
:10044000EC01888D8823C9F0EA89FB89808185FDCC
:1004500005C0A889B9898C9186FD0FC00FB607FC2D
:10046000F5CF808185FFF2CFA889B9898C9185FF6E
:10047000EDCFCE010E94AF01E7CFDF91CF9108957C
:1004800080E090E0892B29F00E94A50181110C9455
:100490000000089585ED8093BC008091BC0084FD30
:1004A000FCCF1092A501089540915601262F30E00F
:1004B000240F311D21323105DCF42091A5012430B7
:1004C000C9F4FC0180E090E0861758F430915601A1
:1004D0002191DC01AA5CBE4FA30FB11D2C930196A4
:1004E000F3CF80915601680F6093560180E0089524
:1004F00081E0089582E00895FC018081823061F0FE
:1005000018F4813031F00895833049F0843049F097
:1005100008956093B30008956093B400089567BD93
:10052000089568BD0895FC018081823049F018F477
:10053000813079F00895833031F0843039F00895B6
:1005400024E031E008C027E035E005C026E030E0D7
:1005500002C023E032E06230A9F0643029F161305A
:10056000B9F581E090E0AC0101C0440F3A95EAF79B
:1005700030918402432B01C0880F2A95EAF78095B9
:10058000842322C081E090E0AC0101C0440F3A9581
:10059000EAF7342F309540918402342301C0880F4C
:1005A0002A95EAF7832B10C041E050E0CA0101C050
:1005B000880F3A95EAF701C0440F2A95EAF7842B91
:1005C0008095909184028923809384020C94F30097
:1005D00008950895E091C6018091C701E81730F4AD
:1005E000F0E0EA55FE4F808190E008958FEF9FEF95
:1005F00008959091C6018091C701981750F4E92F92
:10060000F0E0EA55FE4F208130E09F5F9093C601F5
:1006100002C02FEF3FEFC9010895CF93DF93CB01C5
:10062000EA01642F0E945402CE01DF91CF91089518
:10063000CF93DF931F92CDB7DEB7698361E0CE0120
:1006400001960E94540281E090E00F90DF91CF91DB
:100650000895089580E090E00895009769F0FC0106
:1006600001900020E9F73197AF01481B590BBC01FD
:100670008BED91E00C94340180E090E008958F922E
:100680009F92AF92BF92CF92DF92EF92FF920F9321
:100690001F93CF93DF93CDB7DEB7A1970FB6F89432
:1006A000DEBF0FBECDBF6B017C0197FF2BC06DE29B
:1006B0008BED91E00E94D1018C0122273327A90103
:1006C0002C193D094E095F0919A2CE0181967C01C2
:1006D0009AE0892E912CA12CB12CCA01B901A50157
:1006E00094010E947509605DF70162937F012115F5
:1006F00031054105510589F7CF010E942D03800F77
:10070000911F1DC09B01AC0119A28E010F5D1F4FEF
:100710008AE0C82ED12CE12CF12CCA01B901A70125
:1007200096010E947509605DF80162938F012115A1
:1007300031054105510589F7CF010E942D03A1968E
:100740000FB6F894DEBF0FBECDBFDF91CF911F91E2
:100750000F91FF90EF90DF90CF90BF90AF909F9060
:100760008F9008950E949D091F920F920FB60F92CD
:1007700011242F933F938F939F93AF93BF938091B7
:10078000D7019091D801A091D901B091DA013091AF
:10079000D60123E0230F2D3720F40196A11DB11DB2
:1007A00005C026E8230F0296A11DB11D2093D60196
:1007B0008093D7019093D801A093D901B093DA0127
:1007C0008091D2019091D301A091D401B091D50133
:1007D0000196A11DB11D8093D2019093D301A093E6
:1007E000D401B093D501BF91AF919F918F913F916B
:1007F0002F910F900FBE0F901F9018951F920F9280
:100800000FB60F9211242F933F934F935F936F93E3
:100810007F938F939F93AF93BF93EF93FF938BED52
:1008200091E00E94AF01FF91EF91BF91AF919F9135
:100830008F917F916F915F914F913F912F910F9089
:100840000FBE0F901F9018951F920F920FB60F9228
:1008500011242F938F939F93EF93FF93E091EB01DC
:10086000F091EC018081E091F101F091F20182FDC3
:1008700012C090818091F4018F5F8F732091F501F8
:10088000821751F0E091F401F0E0E552FE4F958FB0
:100890008093F40101C08081FF91EF919F918F912E
:1008A0002F910F900FBE0F901F9018951F920F92CF
:1008B0000FB60F9211242F933F934F935F936F9333
:1008C0007F938F939F93AF93BF93EF93FF93809109
:1008D000B900887F803609F49CC068F5883209F435
:1008E0005BC090F4803109F454C038F4882309F4D3
:1008F000F6C0883009F44DC0F6C0883109F44CC008
:10090000803209F45DC0EFC0803409F468C048F457
:10091000803309F455C0883309F0E5C08093A30102
:10092000D8C0803509F44FC0883509F45DC08834DB
:1009300009F0D9C0D6C0883909F4C7C0A8F48837EF
:1009400009F467C038F4883609F463C0803709F4C5
:1009500060C0C9C0883809F4B8C0803909F45FC0E4
:10096000803809F0C0C05BC0803B09F486C038F411
:10097000803A09F466C0883A09F47FC0B4C0803C6C
:1009800009F4A7C0883C09F4A4C0883B09F48AC0D4
:10099000AAC08091A00110C09091A2018091A101F4
:1009A000981770F5E091A20181E08E0F8093A2016B
:1009B000F0E0E158FE4F80818093BB0085EC86C05B
:1009C0008093A3018EC0E091A20181E08E0F8093FD
:1009D000A2018091BB00F0E0E158FE4F808390912E
:1009E000A2018091A1016EC0E091A20181E08E0F71
:1009F0008093A2018091BB00F0E0E158FE4F80831C
:100A00008091A40181116DC081E080939F0184EAEF
:100A100061C083E08093A50110927801CFCF8091CF
:100A20007801803208F051C0E091780181E08E0FAA
:100A3000809378018091BB00F0E0E85AFE4F8083FC
:100A4000BDCF85EC8093BC001092A5018091780108
:100A5000803230F4E0917801F0E0E85AFE4F1082E5
:100A60006091780170E0E0917901F0917A0188E578
:100A700091E009951092780136C084E08093A50139
:100A80001092570110925601E0917B01F0917C0188
:100A9000099580915601811105C081E0809356012E
:100AA00010923601E091570181E08E0F809357013B
:100AB000F0E0EA5CFE4F80818093BB00909157018B
:100AC00080915601981708F479CF85E88093BC008F
:100AD0000AC085EC8093BC001092A50104C010925E
:100AE000A3010E944A02FF91EF91BF91AF919F91A4
:100AF0008F917F916F915F914F913F912F910F90C7
:100B00000FBE0F901F901895EF92FF920F931F93B7
:100B1000CF93EBEDF1E01382128288EE93E0A0E038
:100B2000B0E084839583A683B78324E031E03183EA
:100B3000208325EC30E03587248724EC30E03787AC
:100B4000268720EC30E0318B208B21EC30E0338B9A
:100B5000228B22EC30E0358B248B26EC30E0378B77
:100B6000268B118E128E138E148E10928502E8E75A
:100B7000F2E01382128284839583A683B78386E191
:100B800091E091838083E8E8F2E081E08083C2E035
:100B9000C1830E94200180918402837F809384021C
:100BA0000E94F30000EB10E0F801808183688083ED
:100BB00081EBE82EF12CF701C0831092B3008BE09B
:100BC0000E948700E6E8F2E0C083C1830E94200112
:100BD000809184028D7E809384020E94F300F8014C
:100BE000808183628083F701C0831092B40083E028
:100BF000CF911F910F91FF90EF900C948700CF93AE
:100C0000DF9300D000D0CDB7DEB7789484B5826092
:100C100084BD84B5816084BD85B5826085BD85B5A0
:100C2000816085BD80916E00816080936E0010921E
:100C30008100809181008260809381008091810099
:100C4000816080938100809180008160809380002A
:100C50008091B10084608093B1008091B000816088
:100C60008093B00080917A00846080937A008091B4
:100C70007A00826080937A0080917A00816080930C
:100C80007A0080917A00806880937A001092C10087
:100C90001092C6011092C70110927E0110927D0140
:100CA0001092A50181E08093A40110929F0161E060
:100CB00082E10E94A60061E083E10E94A60080918B
:100CC000B9008E7F8093B9008091B9008D7F8093A9
:100CD000B90088E48093B80085E48093BC0086E680
:100CE00091E090937C0180937B0187E691E0909363
:100CF0007A0180937901E091EB01F091EC0182E0BF
:100D00008083E091E701F091E8011082E091E90130
:100D1000F091EA018FEC80831092F301E091EF01F2
:100D2000F091F00186E08083E091ED01F091EE0119
:100D3000808180618083E091ED01F091EE018081FE
:100D400088608083E091ED01F091EE018081806800
:100D50008083E091ED01F091EE0180818F7D8083B1
:100D600064E086E892E00E94930264E088E892E002
:100D70000E94930211E022242A9485EE382E05EC7D
:100D80008091A5018111FCCF1093A5011093A401BE
:100D90002092A3011092A2011092A1011093A00130
:100DA0008091A00180618093A00180919F0181309A
:100DB00069F410929F018091A0018093BB00809103
:100DC000BC0083FDF8CF0093BC0002C03092BC0091
:100DD0008091A5018130E1F38091A201811103C0CE
:100DE000F090A20102C0FF24F394AFE7B1E0E6EA7D
:100DF000F1E080E08F1521F09D9191938F5FFACF04
:100E00001092C601F092C7018091C601F81651F008
:100E100088E792E00E94F90205979093CF018093B2
:100E2000CE01F2CF8091CE019091CF016090CC01A4
:100E30007090CD01680E791E7092CD016092CC0148
:100E40004C01990FAA08BB08C501B4010E947C0897
:100E50006B017C012091C8013091C9014091CA0108
:100E60005091CB010E94D7070E944408072E000C26
:100E7000880B990B0E947C0869837A838B839C83FF
:100E8000B301770C880B990B0E947C082AE037EDA0
:100E900043EA5CE30E9408092B013C0120E030E0BA
:100EA00040E751E4C701B6010E9408099B01AC016B
:100EB000C301B2010E94D8079B01AC0169817A810C
:100EC0008B819C810E94D8070E9444087093D101B5
:100ED0006093D001C501B4010E943F0384E291E018
:100EE0000E942D036091CE017091CF01072E000C5E
:100EF000880B990B0E947C086093C8017093C9010C
:100F00008093CA019093CB018091D0019091D1013F
:100F10007C0124E6E20EF11C24E630E0281B390BAC
:100F2000C9012F3F310519F014F08FEF90E06C01EB
:100F300097FF02C0C12CD12CC7018F3F910519F03A
:100F400014F08FEF90E07C0197FF02C0E12CF12CB0
:100F500087E291E00E942D03B601DD0C880B990B0E
:100F60000E943F038EE291E00E942D03B701FF0C27
:100F7000880B990B0E943F0384E291E00E942D03AD
:100F800061E088E892E00E9493026C2D88E892E08C
:100F90000E947C0261E086E892E00E9493026E2D3E
:100FA00086E892E00E947C020E944002E9CE5058FE
:100FB000BB27AA270E94EF070C94CE080E94C00806
:100FC00038F00E94C70820F039F49F3F19F426F446
:100FD0000C94BD080EF4E095E7FB0C94B708E92FDC
:100FE0000E94DF0858F3BA17620773078407950752
:100FF00020F079F4A6F50C9401090EF4E0950B2E7F
:10100000BA2FA02D0B01B90190010C01CA01A0015A
:101010001124FF27591B99F0593F50F4503E68F1B5
:101020001A16F040A22F232F342F4427585FF3CFF6
:10103000469537952795A795F0405395C9F77EF4C7
:101040001F16BA0B620B730B840BBAF09150A1F010
:10105000FF0FBB1F661F771F881FC2F70EC0BA0F96
:10106000621F731F841F48F4879577956795B7951E
:10107000F7959E3F08F0B0CF9395880F08F0992719
:10108000EE0F9795879508950E944B086894B111CB
:101090000C94020908950E94E70888F09F5798F081
:1010A000B92F9927B751B0F0E1F0660F771F881F6D
:1010B000991F1AF0BA95C9F714C0B13091F00E9487
:1010C0000109B1E008950C940109672F782F882752
:1010D000B85F39F0B93FCCF3869577956795B395AE
:1010E000D9F73EF490958095709561957F4F8F4F1D
:1010F0009F4F0895E89409C097FB3EF49095809522
:10110000709561957F4F8F4F9F4F9923A9F0F92FCD
:1011100096E9BB279395F695879577956795B7954B
:10112000F111F8CFFAF4BB0F11F460FF1BC06F5F31
:101130007F4F8F4F9F4F16C0882311F096E911C043
:10114000772321F09EE8872F762F05C0662371F064
:1011500096E8862F70E060E02AF09A95660F771F78
:10116000881FDAF7880F9695879597F9089597F96C
:101170009F6780E870E060E008959FEF80EC08953D
:1011800000240A9416161706180609060895002466
:101190000A9412161306140605060895092E0394E0
:1011A000000C11F4882352F0BB0F40F4BF2B11F454
:1011B00060FF04C06F5F7F4F8F4F9F4F089557FDB3
:1011C0009058440F551F59F05F3F71F04795880FB5
:1011D00097FB991F61F09F3F79F08795089512164C
:1011E00013061406551FF2CF4695F1DF08C01616F8
:1011F00017061806991FF1CF8695710561050894A9
:101200000895E894BB2766277727CB0197F90895BF
:101210000E941B090C94CE080E94C00838F00E945E
:10122000C70820F0952311F00C94B7080C94BD0862
:1012300011240C9402090E94DF0870F3959FC1F3FA
:10124000950F50E0551F629FF001729FBB27F00D74
:10125000B11D639FAA27F00DB11DAA1F649F6627C9
:10126000B00DA11D661F829F2227B00DA11D621F18
:10127000739FB00DA11D621F839FA00D611D221FD2
:10128000749F3327A00D611D231F849F600D211DB6
:10129000822F762F6A2F11249F5750409AF0F1F039
:1012A00088234AF0EE0FFF1FBB1F661F771F881FA2
:1012B00091505040A9F79E3F510580F00C94B7081B
:1012C0000C9402095F3FE4F3983ED4F3869577953A
:1012D0006795B795F795E7959F5FC1F7FE2B880F48
:1012E000911D9695879597F90895A1E21A2EAA1B4C
:1012F000BB1BFD010DC0AA1FBB1FEE1FFF1FA217C6
:10130000B307E407F50720F0A21BB30BE40BF50BC2
:10131000661F771F881F991F1A9469F7609570954B
:10132000809590959B01AC01BD01CF010895EE0F12
:10133000FF1F0590F491E02D099481E090E0F8946E
:081340000C94A209F894FFCF00
:1013480000000000D101340168011E0299017701F3
:101358008B010000000018030D032A03E9025E0157
:10136800F902EA020D0A00206C6566743A002072E0
:06137800696768743A0089
:00000001FF
