:100000000C945D000C9485000C9485000C94850084
:100010000C9485000C9485000C9485000C9485004C
:100020000C9485000C9485000C9485000C9485003C
:100030000C9485000C9485000C9485000C9485002C
:100040000C9427060C9485000C9485000C94850074
:100050000C9485000C9485000C9485000C9485000C
:100060000C942D030C94850000000000250028004E
:100070002B000000000023002600290004040404D3
:100080000404040402020202020203030303030342
:10009000010204081020408001020408102001021F
:1000A00004081020000000080002010000030407FB
:1000B0000000000000000000741011241FBECFEFEC
:1000C000D8E0DEBFCDBF11E0A0E0B1E0E2E0F7E2B2
:1000D00002C005900D92A032B107D9F722E0A0E24C
:1000E000B1E001C01D92A63BB207E1F710E0CDE5FB
:1000F000D0E004C02197FE010E946513CC35D107E2
:10010000C9F70E9471060C947F130C940000809133
:100110006D0290E020916E02821B9109089508956E
:10012000089585ED8093BC008091BC0084FDFCCFD8
:1001300010926C02089540914101262F30E0240F67
:10014000311D21323105DCF420916C022430C9F4D8
:10015000FC0180E090E0861758F430914101219134
:10016000DC01AF5DBE4FA30FB11D2C930196F3CF01
:1001700080914101680F6093410180E0089581E022
:10018000089582E008950895E0916E0280916D02D5
:10019000E81730F4F0E0E159FD4F808190E00895D8
:1001A0008FEF9FEF089590916E0280916D029817E6
:1001B00050F4E92FF0E0E159FD4F208130E09F5FDE
:1001C00090936E0202C02FEF3FEFC9010895CF92C6
:1001D000DF92EF92FF920F931F93CF93DF937C01F7
:1001E000CB018A0120919102222389F0EB016B015E
:1001F000C40ED51ECC15DD0569F06991D701ED91CE
:10020000FC910190F081E02DC7010995F3CF642F97
:100210000E949B00C801DF91CF911F910F91FF9029
:10022000EF90DF90CF900895CF93DF931F92CDB7DB
:10023000DEB76983209191022223D1F020918F02B1
:10024000203240F021E030E0FC013383228380E063
:1002500090E015C080919002E82FF0E0EA5DFD4F3C
:10026000998190838F5F8093900280938F0205C065
:1002700061E0CE0101960E949B0081E090E00F902A
:10028000DF91CF910895089580E090E00895CF9395
:10029000E82FF0E0E457FE4FC789EC2FE770F0E05D
:1002A000EE0FFF1FE457FE4F27858685DF0111976C
:1002B0004C9150E0542F442711979C91492B9781E2
:1002C000E68114161506DCF4E82FF0E0F22BCF01DE
:1002D000F7FF02C080E090E0DA01A81BB90B24EF21
:1002E00031E00E9428139A012E1B3F0B032E000CB5
:1002F000440B550B0E940913C7FF1DC021C04115B7
:10030000510511F1F0E0F92BDF011E161F0614F460
:10031000A0E0B0E0A41BB50B24EF31E00E9428134D
:100320009F01241B350B032E000C440B550B0E9420
:100330000913C7FF05C08CED95E0821B930B06C027
:10034000C90184529A4F02C08CED95E0CF91089577
:10035000CF93DF938091AB019EEF980F923008F01E
:1003600066C0C0918A01D0918B018C2F0E94B3048A
:1003700088EA90E00E94AE040E94060566E070E004
:10038000CE010E94BD0480916D0290E020916E022A
:10039000821B910986309105ECF382E992E00E947C
:1003A000D300C82F82E992E00E94D300982F8827BB
:1003B000BC016C2B072E000C880B990B0E94D311EB
:1003C00060936C0170936D0180936E0190936F0147
:1003D00082E992E00E94D300C82F82E992E00E9455
:1003E000D300982F8827BC016C2B072E000C880B9C
:1003F000990B0E94D31160937001709371018093E7
:1004000072019093730182E992E00E94D300C82F99
:100410008093200182E992E00E94D300982F8827E0
:10042000BC016C2B072E000C880B990B69C0813026
:1004300009F070C0C0918A01D0918B018C2F0E946D
:10044000B30483E490E00E94AE040E94060566E0D7
:1004500070E0CE010E94BD0480916D0290E0209179
:100460006E02821B910986309105ECF382E992E0DD
:100470000E94D300C82F82E992E00E94D30060E07E
:1004800070E07C2F862B972BBC01990F880B990B62
:100490000E94D31160936C0170936D0180936E0183
:1004A00090936F0182E992E00E94D300C82F82E905
:1004B00092E00E94D30060E070E07C2F862B972BA7
:1004C000BC01990F880B990B0E94D31160937001A6
:1004D00070937101809372019093730182E992E0AD
:1004E0000E94D300C82F82E992E00E94D30060E00E
:1004F00070E07C2F862B972BBC01990F880B990BF2
:100500000E94D311609374017093750180937601FA
:10051000909377018091880190918901803D974067
:1005200009F04EC020917C0130917D0140917E0107
:1005300050917F0160916C0170916D0180916E010D
:1005400090916F010E94B71060936C0170936D01E0
:1005500080936E0190936F01209180013091810111
:1005600040918201509183016091700170917101FD
:1005700080917201909173010E94B7106093700195
:1005800070937101809372019093730120918401A3
:1005900030918501409186015091870160917401ED
:1005A0007091750180917601909177010E94B7104A
:1005B0006093740170937501809376019093770135
:1005C0002091A801E22FE37084E0E89FF00111245C
:1005D000E859FE4F80819181A281B38127FDB058F7
:1005E0008093160290931702A0931802B0931902F9
:1005F0002091A901E22FE37084E0E89FF00111242B
:10060000E859FE4F80819181A281B38127FDB058C6
:1006100080930E0290930F02A0931002B0931102E8
:100620002091AA01E22FE37084E0E89FF0011124F9
:10063000E859FE4F80819181A281B38127FDB05896
:100640008093060290930702A0930802B0930902D8
:10065000DF91CF9108950E947A131F920F920FB6E7
:100660000F9211242F933F934F935F936F937F9338
:100670008F939F93AF93BF93EF93FF938091B900B4
:10068000887F803609F49CC068F5883209F45BC025
:1006900090F4803109F454C038F4882309F4F6C08A
:1006A000883009F44DC0F6C0883109F44CC080325E
:1006B00009F45DC0EFC0803409F468C048F48033A9
:1006C00009F455C0883309F0E5C080936A02D8C0A8
:1006D000803509F44FC0883509F45DC0883409F0CD
:1006E000D9C0D6C0883909F4C7C0A8F4883709F43E
:1006F00067C038F4883609F463C0803709F460C0F5
:10070000C9C0883809F4B8C0803909F45FC080389E
:1007100009F0C0C05BC0803B09F486C038F4803A61
:1007200009F466C0883A09F47FC0B4C0803C09F47B
:10073000A7C0883C09F4A4C0883B09F48AC0AAC0B9
:100740008091670210C090916902809168029817A9
:1007500070F5E091690281E08E0F80936902F0E00C
:10076000EA5BFD4F80818093BB0085EC86C080935F
:100770006A028EC0E091690281E08E0F8093690267
:100780008091BB00F0E0EA5BFD4F808390916902AD
:10079000809168026EC0E091690281E08E0F8093C3
:1007A00069028091BB00F0E0EA5BFD4F808380919D
:1007B0006B0281116DC081E08093660284EA61C0A2
:1007C00083E080936C0210926301CFCF809163012C
:1007D000803208F051C0E091630181E08E0F809378
:1007E00063018091BB00F0E0ED5BFE4F8083BDCFE5
:1007F00085EC8093BC0010926C0280916301803282
:1008000030F4E0916301F0E0ED5BFE4F1082609107
:10081000630170E0E0916401F091650183E491E08F
:1008200009951092630136C084E080936C021092A7
:10083000420110924101E0916601F0916701099532
:1008400080914101811105C081E0809341011092A6
:100850002101E091420181E08E0F80934201F0E09E
:10086000EF5DFE4F80818093BB00909142018091AB
:100870004101981708F479CF85E88093BC000AC03D
:1008800085EC8093BC0010926C0204C010926A0246
:100890000E949100FF91EF91BF91AF919F918F9135
:1008A0007F916F915F914F913F912F910F900FBE6C
:1008B0000F901F901895833081F028F4813099F0C3
:1008C0008230A1F008958730A9F08830B9F08430E3
:1008D000D1F4809180008F7D03C0809180008F775C
:1008E00080938000089584B58F7702C084B58F7D92
:1008F00084BD08958091B0008F7703C08091B000CF
:100900008F7D8093B0000895CF92DF92EF92FF9297
:100910000F931F93CF93DF936C017A018B01C0E09B
:10092000D0E0CE15DF0581F0D8016D918D01D601A3
:10093000ED91FC910190F081E02DC6010995892B84
:1009400011F02196EECF7E01C701DF91CF911F916B
:100950000F91FF90EF90DF90CF900895682F82E97C
:1009600092E00C94140191E0909391028093B5026F
:100970001092900210928F02089590916C02911142
:10098000FCCF613208F060E291E090936C029093AA
:100990006B022FEF20936A0210926902260F2093B8
:1009A00068029093670290916702880F892B809369
:1009B000670280916602813061F410926602809134
:1009C00067028093BB008091BC0083FDF8CF85EC6B
:1009D00001C085EE8093BC0080916C028130E1F310
:1009E00080916902861710F460916902A6E4B2E072
:1009F000EFE6F2E080E0861721F09D9191938F5F02
:100A0000FACF10926E0280936D02089530918F029A
:100A1000313208F04BC080916C028111FCCF909173
:100A2000B50222E020936C0221E020936B022FEFAD
:100A300020936A021092690230936802E6E2F2E0C3
:100A4000A6E4B2E020E0321721F041914D932F5FF0
:100A5000FACF1092670220916702990F922B909320
:100A6000670290916602913061F410926602909153
:100A700067029093BB009091BC0093FDF8CF95EC7A
:100A800001C095EE9093BC0090916C029230E1F31E
:100A900090916A029F3F79F080916A02803241F022
:100AA00080916A02803331F084E005C081E003C0A8
:100AB00082E001C083E01092900210928F021092A7
:100AC0009102089580E480937C0080917A00806494
:100AD00080937A0080917A0086FDFCCF8091780027
:100AE0002091790090E0922B0895CF93DF93E0EB73
:100AF000F0E08491ECE9F0E0D491E8E8F0E0C49112
:100B0000CC2391F081110E945B04EC2FF0E0EE0FFA
:100B1000FF1FEE58FF4FA591B491EC91ED2381E0BA
:100B200090E021F480E002C080E090E0DF91CF917E
:100B300008951F93CF93DF93282F30E0F901EC55F0
:100B4000FF4F8491F901E057FF4FD491F901E45828
:100B5000FF4FC491CC23C1F0162F81110E945B047A
:100B6000EC2FF0E0EE0FFF1FE859FF4FA591B49175
:100B70009FB7F894111104C08C91D095D82302C06E
:100B8000EC91DE2BDC939FBFDF91CF911F910895F5
:100B90003FB7F8948091B1029091B202A091B30254
:100BA000B091B40226B5A89B05C02F3F19F001965D
:100BB000A11DB11D3FBFBA2FA92F982F8827820FE3
:100BC000911DA11DB11DBC01CD0142E0660F771F33
:100BD000881F991F4A95D1F708958F929F92AF92DF
:100BE000BF92CF92DF92EF92FF926B017C010E9445
:100BF000C8054B015C01C114D104E104F104F1F01A
:100C00000E94C805DC01CB0188199909AA09BB0912
:100C1000883E9340A105B10570F321E0C21AD108C6
:100C2000E108F10888EE880E83E0981EA11CB11C33
:100C3000C114D104E104F10419F7DDCFFF90EF9066
:100C4000DF90CF90BF90AF909F908F9008951F92AC
:100C50000F920FB60F9211242F933F938F939F9370
:100C6000AF93BF938091AD029091AE02A091AF027D
:100C7000B091B0023091AC0223E0230F2D3720F465
:100C80000196A11DB11D05C026E8230F0296A11DE6
:100C9000B11D2093AC028093AD029093AE02A0935D
:100CA000AF02B093B0028091B1029091B202A091D4
:100CB000B302B091B4020196A11DB11D8093B1029F
:100CC0009093B202A093B302B093B402BF91AF91DC
:100CD0009F918F913F912F910F900FBE0F901F907A
:100CE0001895CF93DF93CDB7DEB76C970FB6F89416
:100CF000DEBF0FBECDBF789484B5826084BD84B55D
:100D0000816084BD85B5826085BD85B5816085BD06
:100D100080916E00816080936E00109281008091BE
:100D20008100826080938100809181008160809346
:100D30008100809180008160809380008091B1006B
:100D400084608093B1008091B00081608093B00096
:100D500080917A00846080937A0080917A0082602A
:100D600080937A0080917A00816080937A008091EC
:100D70007A00806880937A001092C1001092050278
:100D80001092040220910402309105023A832983D3
:100D9000243231058CF4C9010E94AF10E981FA8137
:100DA000E457FE4F808349815A814F5F5F4F5093D4
:100DB000050240930402E6CF8091AC0190E090934D
:100DC0008B0180938A0110926E0210926D02109234
:100DD000900210928F0210926C0281E080936B025D
:100DE0001092660261E082E10E94990561E083E170
:100DF0000E9499058091B9008E7F8093B9008091FF
:100E0000B9008D7F8093B90088E48093B80085E4B1
:100E10008093BC008FE890E0909367018093660117
:100E200080E990E090936501809364018AB1806FBE
:100E30008AB984B1806384B961E08CE00E9499052D
:100E40008091AD018A3441F48091AE018D3421F45A
:100E50008091AF01823439F06AE070E080E090E088
:100E60000E94ED05EDCF8091AB01813009F058C0B3
:100E700050918A01598360918B016D83852F0E9467
:100E8000B3048BE690E00E94AE0480E090E00E9404
:100E9000AE040E94060589810E94B3048BE190E0B4
:100EA0000E94AE0488E090E00E94AE040E94060515
:100EB00089810E94B3048BE190E00E94AE040E94FD
:100EC000060561E070E089819D810E94BD048091EA
:100ED0006D0290E020916E02821B9109181619068E
:100EE000ECF782E992E00E94D300089759F061E0A4
:100EF0008CE00E9499056AE070E080E090E00E943A
:100F0000ED05F9CF89810E94B3048AE190E00E9447
:100F1000AE0483E090E00E94AE040E9406059CC0EF
:100F2000823009F04BC080918A01898390918B01B6
:100F30009D830E94B30480E290E00E94AE048FE0A3
:100F400090E00E94AE040E94060589810E94B304CD
:100F500083E290E00E94AE0480E990E00E94AE043B
:100F60000E94060589810E94B30483E290E00E94FA
:100F7000AE040E94060561E070E089819D810E94B7
:100F8000BD0480916D0290E020916E02821B910958
:100F900018161906ECF782E992E00E94D300803916
:100FA000910509F459C061E08CE00E9499056AE05E
:100FB00070E080E090E00E94ED05F9CF833009F009
:100FC0004BC0A0918A01A983B0918B01BD838A2F68
:100FD0000E94B30480E290E00E94AE048FE090E0B3
:100FE0000E94AE040E94060589810E94B30483E238
:100FF00090E00E94AE0480E990E00E94AE040E945E
:10100000060589810E94B30483E290E00E94AE0449
:101010000E94060561E070E089819D810E94BD0407
:1010200080916D0290E020916E02821B910918164A
:101030001906ECF782E992E00E94D300803991050D
:1010400059F061E08CE00E9499056AE070E080E070
:1010500090E00E94ED05F9CF10928901109288016D
:101060004BE95FE02BED3EE2809188019091890190
:10107000823E9440B4F48BB1806F8BB9CA01019762
:10108000F1F78BB18F708BB9C9010197F1F780919E
:10109000880190918901019690938901809388013C
:1010A000E3CF10928901109288010FE010E0809147
:1010B000880190918901803DA7E09A070CF078C0E3
:1010C000B8010E94F512892B49F40E94750561E070
:1010D000892B09F060E08CE00E9499050E94A8012C
:1010E00020916C0130916D0140916E0150916F0122
:1010F00060917C0170917D0180917E0190917F01D2
:101100000E94B81060937C0170937D0180937E01F2
:1011100090937F0120917001309171014091720193
:1011200050917301609180017091810180918201E1
:10113000909183010E94B8106093800170938101A7
:101140008093820190938301209174013091750105
:1011500040917601509177016091840170918501F1
:1011600080918601909187010E94B810609384015C
:101170007093850180938601909387018BB1806F76
:101180008BB98BE99FE00197F1F78BB18F708BB929
:1011900063E070E080E090E00E94ED0580918801BE
:1011A00090918901019690938901809388017FCF66
:1011B00020E030E04AEF54E460917C0170917D01C1
:1011C00080917E0190917F010E94291160937C01A2
:1011D00070937D0180937E0190937F0120E030E049
:1011E0004AEF54E460918001709181018091820105
:1011F000909183010E942911609380017093810175
:10120000809382019093830120E030E04AEF54E420
:101210006091840170918501809186019091870190
:101220000E94291160938401709385018093860147
:10123000909387018091680081608093680080911D
:101240006B00816080936B0080916B008260809363
:101250006B0080916B00846080936B0080916B00C9
:10126000886080936B0080912002909121028E5DB6
:1012700093404F9738F480911E0290911F02883757
:101280009540E4F583E00E9447019093210280930A
:10129000200284E00E94470190931F0280931E0267
:1012A000809104029091050201969093050280932B
:1012B00004028BB1806F8BB98BE99FE00197F1F746
:1012C0008BB18F708BB963E070E080E090E00E949A
:1012D000ED0580910402909105028D37910519F674
:1012E0000E94750561E0892B09F060E08CE00E94A6
:1012F00099051092050210920402B5CF10920502D2
:10130000109204020E9462058F5B9F4FBC01990FEF
:10131000880B990B0E94D31128E538EA4DE95FE369
:101320000E9488120E949B117093DF016093DE017E
:1013300060E08CE00E949905809112019091130168
:101340009C01092E000C440B550B298F3A8F4B8FB3
:101350005C8F9195819591099C01990F440B550BD8
:101360002D8B3E8B4F8B588F80EB282E84E0382EB0
:1013700081E00E9447017C01909325028093240222
:1013800082E00E9447019E838D8390932302809385
:10139000220283E00E9447018C01909321028093F6
:1013A000200284E00E9447016C0190931F02809309
:1013B0001E020E94A8012AE432E944E652E4609148
:1013C00016027091170280911802909119020E94E2
:1013D00029112DEC3CEC4CE45EE30E9488124B0199
:1013E0005C012DEC3CEC4CE45FE360911A027091DF
:1013F0001B0280911C0290911D020E9488129B0189
:10140000AC01C501B4010E94B8104B015C016093AE
:101410001A0270931B0280931C0290931D022AE40F
:1014200032E944E652E460910E0270910F0280911D
:101430001002909111020E9429112DEC3CEC4CE419
:101440005EE30E9488122B013C012DEC3CEC4CE445
:101450005FE36091120270911302809114029091E7
:1014600015020E9488129B01AC01C301B2010E94C7
:10147000B8102B013C016093120270931302809309
:101480001402909315022AE432E944E652E4609192
:1014900006027091070280910802909109020E9451
:1014A00029112DEC3CEC4CE45EE30E948812698328
:1014B0007A838B839C832DEC3CEC4CE45FE360915E
:1014C0000A0270910B0280910C0290910D020E9411
:1014D00088129B01AC0169817A818B819C810E9479
:1014E000B81069837A838B839C8360930A0270931C
:1014F0000B0280930C0290930D020A3134E0130723
:101500005CF44AE1C41644E0D40634F481E090E08F
:101510009093050280930402809104029091050249
:10152000019709F03FC00A3194E01907DCF5ABEAF6
:10153000CA16A5E0DA06B4F122E030E030930502E5
:1015400020930402109200021092010210920202F3
:10155000109203021092FC011092FD011092FE0104
:101560001092FF011092F8011092F9011092FA0105
:101570001092FB011092F4011092F5011092F60105
:101580001092F7011092F0011092F1011092F20105
:101590001092F3011092EC011092ED011092EE0105
:1015A0001092EF018091040290910502029769F474
:1015B0000A3134E013074CF44FE9C41647E0D4066F
:1015C00024F0109205021092040255EEE51655E043
:1015D000F50624F0B701645E754011C064EDE616AF
:1015E00065E0F6064CF01092E8011092E9011092C5
:1015F000EA011092EB0117C0B701645D7540072E38
:10160000000C880B990B0E94D31120E030E040E4DD
:1016100050E40E9429116093E8017093E9018093DE
:10162000EA019093EB018D819E81853EA5E09A07AA
:101630001CF0845E954012C02D813E81243D3540D2
:101640004CF01092E4011092E5011092E601109224
:10165000E7011AC08D819E81845D95409E838D83B4
:10166000BC01990F880B990B0E94D31120E030E048
:1016700040E450E40E9429116093E4017093E50175
:101680008093E6019093E7010B3194E019074CF445
:101690001092E0011092E1011092E2011092E30138
:1016A00025C0A5EECA16A5E0DA0624F0B601645EF0
:1016B000754008C0B4EDCB16B5E0DB064CF7B601BB
:1016C000645D7540072E000C880B990B0E94D311A6
:1016D00020E030E040E450E40E9429116093E001F2
:1016E0007093E1018093E2019093E3012091E8017E
:1016F0003091E9014091EA015091EB01C501B4013B
:101700000E94B7106B017C012DEC3CEC4CE45DE3D6
:101710000E94881220910002309101024091020241
:10172000509103020E94B8104B015C0120E030E0B0
:1017300048EC53E40E94831218162CF480E090E0E9
:10174000A8ECB3E417C020E030E048EC53ECC5014E
:10175000B4010E94241187FD09C08092000290927A
:101760000102A0920202B09203020CC080E090E05D
:10177000A8ECB3EC8093000290930102A0930202C4
:10178000B093030223E333E343EB5FE3C701B60106
:101790000E948812209100023091010240910202C1
:1017A000509103020E94B8104B015C012091FC0192
:1017B0003091FD014091FE015091FF01C701B6013A
:1017C0000E94B71020E030E040E751E40E94881208
:1017D0009B01AC01C501B4010E94B8104B015C0132
:1017E00020E030E048EC53E40E94831218162CF4F9
:1017F00080E090E0A8ECB3E417C020E030E048ECD3
:1018000053ECC501B4010E94241187FD09C08092E8
:10181000D4019092D501A092D601B092D7010CC00C
:1018200080E090E0A8ECB3EC8093D4019093D501D4
:10183000A093D601B093D701C092FC01D092FD01D4
:10184000E092FE01F092FF012091E4013091E50168
:101850004091E6015091E701C301B2010E94B71027
:101860002B013C012091A4023091A5024091A602D7
:101870005091A7020E9488122091F8013091F9013D
:101880004091FA015091FB010E94B8104B015C019C
:101890006093F8017093F9018093FA019093FB0132
:1018A00020919E0230919F023A872987B901330F18
:1018B000880B990B0E94D3116B017C019B01AC0139
:1018C000C501B4010E94831218164CF4C092F801AD
:1018D000D092F901E092FA01F092FB0123C06985F0
:1018E0007A85719561957109072E000C880B990B0B
:1018F0000E94D3116D837E838F8398879B01AC01F7
:10190000C501B4010E94241187FF0CC08D819E8106
:10191000AF81B8858093F8019093F901A093FA0103
:10192000B093FB012091A8023091A9024091AA0234
:101930005091AB02C301B2010E9488122091F801BC
:101940003091F9014091FA015091FB010E94B810C9
:101950004B015C012091F4013091F5014091F601B9
:101960005091F701C301B2010E94B7102091A0026B
:101970003091A1024091A2025091A3020E948812CC
:101980009B01AC01C501B4010E94B8104B015C0180
:101990009B01AC01C701B6010E94241187FD1EC046
:1019A000A985BA85B195A195B109BD01BB0F880B79
:1019B000990B0E94D3116B017C019B01AC01C50105
:1019C000B4010E94241187FD09C08092D801909231
:1019D000D901A092DA01B092DB0108C0C092D8010F
:1019E000D092D901E092DA01F092DB014092F40149
:1019F0005092F5016092F6017092F7012091E0019A
:101A00003091E1014091E2015091E30169817A81D5
:101A10008B819C810E94B7106B017C012AE037ED1D
:101A200043EA5CE30E9488122091F0013091F101B9
:101A30004091F2015091F3010E94B8104B015C01FA
:101A40006093F0017093F1018093F2019093F301A0
:101A5000698D7A8D8B8D9C8D0E94D3112B013C0159
:101A60009B01AC01C501B4010E94831218164CF40D
:101A70004092F0015092F1016092F2017092F301F4
:101A80001EC06D897E898F89988D0E94D3116983CC
:101A90007A838B839C839B01AC01C501B4010E94B6
:101AA000241187FF0CC029813A814B815C812093EE
:101AB000F0013093F1014093F2015093F30120E0E3
:101AC00030E040E850E4C701B6010E94881220913E
:101AD000F0013091F1014091F2015091F3010E9427
:101AE000B8104B015C012091EC013091ED01409167
:101AF000EE015091EF01C701B6010E94B71020E03E
:101B000030E0A9010E9488129B01AC01C501B4011B
:101B10000E94B8104B015C019B01AC01C301B201F2
:101B20000E94241187FD19C06D897E898F89988D47
:101B30000E94D3112B013C019B01AC01C501B401F2
:101B40000E94241187FD09C08092D0019092D1019A
:101B5000A092D201B092D30108C04092D00150921D
:101B6000D1016092D2017092D301C092EC01D09267
:101B7000ED01E092EE01F092EF016091DE017091D3
:101B8000DF01072E000C880B990B0E94D3112FE167
:101B900035E84BE65FE30E9488126B017C010E94EE
:101BA00062058F5B9F4FBC01990F880B990B0E94B8
:101BB000D31129E13AEC49EC5DE30E948812A701B8
:101BC00096010E94B8100E949B116D837E838F83C3
:101BD00098874D815E815093DF014093DE01CA01F9
:101BE000895592408D3A914020F461E08CE00E944A
:101BF00099051093DD010093DC018091040290911E
:101C00000502029709F07CC10930174034F088E0E2
:101C100097E09093DD018093DC016091DC0170918D
:101C2000DD01072E000C880B990B0E94D3114B018C
:101C30005C014090D8015090D9016090DA01709019
:101C4000DB01A30192010E94B71069877A878B8715
:101C50009C872091D4013091D5014091D6015091BB
:101C6000D70129833A834B835C83C090D001D09005
:101C7000D101E090D201F090D3010E94B810A701E9
:101C800096010E94B7100E949B116D877E878F87F7
:101C9000988B4D855E855093CF014093CE01A30173
:101CA0009201C501B4010E94B8104B015C019B0177
:101CB000AC0169817A818B819C810E94B810A70157
:101CC00096010E94B8100E949B112B013C01709359
:101CD000CD016093CC0129813A814B815C81C501A2
:101CE000B4010E94B710A70196010E94B7100E948C
:101CF0009B11698B7A8B8B8B9C8B89899A899093AA
:101D0000CB018093CA0129813A814B815C8169852D
:101D10007A858B859C850E94B710A70196010E9449
:101D2000B8100E949B1169837A838B839C83A9815D
:101D3000BA81B093C901A093C8018D819E8181525F
:101D40009340873B914008F07AC02D853E85B901CC
:101D5000330F880B990B0E94D3114B015C0168ED86
:101D600074E04D815E81641B750B072E000C880B9F
:101D7000990B0E94D31120E030EC4AE555E40E9413
:101D800029116B017C019B01AC01C501B4010E94CA
:101D90008812A50194010E94B8100E949B117093B3
:101DA000CF016093CE01B201550C880B990B0E94B4
:101DB000D3114B015C019B01AC01C701B6010E942C
:101DC0008812A50194010E94B8100E949B11709383
:101DD000CD016093CC01A989BA89BD01BB0F880BE5
:101DE000990B0E94D3114B015C019B01AC01C7010F
:101DF000B6010E948812A50194010E94B8100E94A9
:101E00009B117093CB016093CA0129813A81B9017A
:101E1000330F880B990B0E94D3114B015C019B017E
:101E2000AC01C701B6010E948812A50194010E946D
:101E3000B8100E949B117093C9016093C8018091F2
:101E4000CE019091CF01803B944024F43092CF0199
:101E50002092CE018091CC019091CD01803B9440A5
:101E600024F43092CD012092CC018091CA0190914E
:101E7000CB01803B944024F43092CB012092CA01E4
:101E80008091C8019091C901803B944024F4309224
:101E9000C9012092C8018091CE019091CF01813D6E
:101EA000974034F020ED37E03093CF012093CE01FE
:101EB0008091CC019091CD01813D974034F040ED6F
:101EC00057E05093CD014093CC018091CA0190918D
:101ED000CB01813D974034F080ED97E09093CB01AA
:101EE0008093CA018091C8019091C901813D9740BA
:101EF000CCF020ED37E03093C9012093C80112C027
:101F000048EE53E05093CF014093CE015093CD0162
:101F10004093CC015093CB014093CA015093C90127
:101F20004093C8010E94C8050091C4011091C501E9
:101F30002091C6013091C701DC01CB01801B910BC0
:101F4000A20BB30B803A9F40A105B10558F30E9444
:101F5000C8056093C4017093C5018093C601909336
:101F6000C7018BB1806F8BB94091C4015091C501FD
:101F70006091C6017091C7018091CE019091CF010F
:101F8000092E000CAA0BBB0B840F951FA61FB71FB1
:101F90008093C0019093C101A093C201B093C3018B
:101FA0008091CC019091CD01092E000CAA0BBB0BA6
:101FB000840F951FA61FB71F8093BC019093BD018E
:101FC000A093BE01B093BF018091CA019091CB0153
:101FD000092E000CAA0BBB0B840F951FA61FB71F61
:101FE0008093B8019093B901A093BA01B093BB015B
:101FF0008091C8019091C901092E000CAA0BBB0B5E
:10200000840F951FA61FB71F8093B4019093B5014D
:10201000A093B601B093B7018BB1803108F45CC0D6
:102020000E94C8056093B0017093B1018093B20122
:102030009093B3010091C0011091C1012091C201A0
:102040003091C301601771078207930708F05C980D
:102050004091BC015091BD016091BE017091BF01E2
:102060008091B0019091B101A091B201B091B30102
:1020700084179507A607B70708F05D984091B80147
:102080005091B9016091BA017091BB018091B0018A
:102090009091B101A091B201B091B301841795075D
:1020A000A607B70708F05E984091B4015091B501BA
:1020B0006091B6017091B7018091B0019091B1012A
:1020C000A091B201B091B30184179507A607B70795
:1020D00008F4A2CF5F98A0CF80E090E0892B09F4AC
:1020E00047C90E94000040C9E2E9F2E0138212826F
:1020F00088EE93E0A0E0B0E084839583A683B78365
:1021000084E091E09183808383E393E3A3EBBFE3D7
:102110008093A8029093A902A093AA02B093AB0265
:102120008DEC9CECACE4BDE38093A4029093A502FB
:10213000A093A602B093A70280E090E0A0E7B1E4EC
:102140008093A0029093A102A093A202B093A30255
:1021500080E991E090939F0280939E020895F999FF
:10216000FECF92BD81BDF89A992780B50895505849
:10217000BB27AA270E94CF100C9449120E943B1241
:1021800038F00E94421220F039F49F3F19F426F4EF
:102190000C9438120EF4E095E7FB0C943212E92F00
:1021A0000E945A1258F3BA176207730784079507FB
:1021B00020F079F4A6F50C947C120EF4E0950B2E29
:1021C000BA2FA02D0B01B90190010C01CA01A00189
:1021D0001124FF27591B99F0593F50F4503E68F1E4
:1021E0001A16F040A22F232F342F4427585FF3CF25
:1021F000469537952795A795F0405395C9F77EF4F6
:102200001F16BA0B620B730B840BBAF09150A1F03E
:10221000FF0FBB1F661F771F881FC2F70EC0BA0FC4
:10222000621F731F841F48F4879577956795B7954C
:10223000F7959E3F08F0B0CF9395880F08F0992747
:10224000EE0F9795879508950E940E1208F481E08D
:1022500008950E943D110C9449120E94421258F0B8
:102260000E943B1240F029F45F3F29F00C94321297
:1022700051110C947D120C9438120E945A1268F37A
:102280009923B1F3552391F3951B550BBB27AA272F
:1022900062177307840738F09F5F5F4F220F331F69
:1022A000441FAA1FA9F335D00E2E3AF0E0E832D031
:1022B00091505040E695001CCAF72BD0FE2F29D034
:1022C000660F771F881FBB1F261737074807AB0706
:1022D000B0E809F0BB0B802DBF01FF2793585F4F7B
:1022E0003AF09E3F510578F00C9432120C947D1216
:1022F0005F3FE4F3983ED4F3869577956795B7955D
:10230000F7959F5FC9F7880F911D9695879597F967
:102310000895E1E0660F771F881FBB1F62177307E0
:102320008407BA0720F0621B730B840BBA0BEE1FF5
:1023300088F7E09508950E94A2116894B1110C9459
:102340007D1208950E94621288F09F5798F0B92F6D
:102350009927B751B0F0E1F0660F771F881F991FDA
:102360001AF0BA95C9F714C0B13091F00E947C12EE
:10237000B1E008950C947C12672F782F8827B85FFE
:1023800039F0B93FCCF3869577956795B395D9F732
:102390003EF490958095709561957F4F8F4F9F4F3C
:1023A0000895E89409C097FB3EF490958095709548
:1023B00061957F4F8F4F9F4F9923A9F0F92F96E991
:1023C000BB279395F695879577956795B795F11106
:1023D000F8CFFAF4BB0F11F460FF1BC06F5F7F4FA3
:1023E0008F4F9F4F16C0882311F096E911C07723B5
:1023F00021F09EE8872F762F05C0662371F096E8BE
:10240000862F70E060E02AF09A95660F771F881F8C
:10241000DAF7880F9695879597F90895990F000830
:10242000550FAA0BE0E8FEEF16161706E807F907A6
:10243000C0F012161306E407F50798F0621B730B41
:10244000840B950B39F40A2661F0232B242B252BC2
:1024500021F408950A2609F4A140A6958FEF811D65
:10246000811D089597F99F6780E870E060E0089506
:102470009FEF80EC089500240A941616170618069C
:102480000906089500240A94121613061406050678
:102490000895092E0394000C11F4882352F0BB0F09
:1024A00040F4BF2B11F460FF04C06F5F7F4F8F4F6C
:1024B0009F4F089557FD9058440F551F59F05F3FA7
:1024C00071F04795880F97FB991F61F09F3F79F056
:1024D00087950895121613061406551FF2CF4695D8
:1024E000F1DF08C0161617061806991FF1CF86955A
:1024F0007105610508940895E894BB27662777273E
:10250000CB0197F908950E940E1208F48FEF0895F9
:102510000E949B120C9449120E943B1238F00E94B8
:10252000421220F0952311F00C9432120C943812C0
:1025300011240C947D120E945A1270F3959FC1F3DE
:10254000950F50E0551F629FF001729FBB27F00D61
:10255000B11D639FAA27F00DB11DAA1F649F6627B6
:10256000B00DA11D661F829F2227B00DA11D621F05
:10257000739FB00DA11D621F839FA00D611D221FBF
:10258000749F3327A00D611D231F849F600D211DA3
:10259000822F762F6A2F11249F5750409AF0F1F026
:1025A00088234AF0EE0FFF1FBB1F661F771F881F8F
:1025B00091505040A9F79E3F510580F00C94321283
:1025C0000C947D125F3FE4F3983ED4F386957795A3
:1025D0006795B795F795E7959F5FC1F7FE2B880F35
:1025E000911D9695879597F9089597FB072E16F4F8
:1025F000009407D077FD09D00E942F1307FC05D067
:102600003EF4909581959F4F0895709561957F4F09
:102610000895052E97FB1EF400940E94201357FD89
:1026200007D00E94431307FC03D04EF40C942013F0
:1026300050954095309521953F4F4F4F5F4F0895EE
:1026400090958095709561957F4F8F4F9F4F08951E
:102650000E946B13B7FF0895821B930B0895AA1B6A
:10266000BB1B51E107C0AA1FBB1FA617B70710F07D
:10267000A61BB70B881F991F5A95A9F780959095AF
:10268000BC01CD010895A1E21A2EAA1BBB1BFD01BE
:102690000DC0AA1FBB1FEE1FFF1FA217B307E40741
:1026A000F50720F0A21BB30BE40BF50B661F771F99
:1026B000881F991F1A9469F7609570958095909579
:1026C0009B01AC01BD01CF010895EE0FFF1F0590E6
:1026D000F491E02D0994A29FB001B39FC001A39F84
:1026E000700D811D1124911DB29F700D811D11244B
:1026F000911D089581E090E0F8940C947F13F89474
:02270000FFCF09
:10270200000000001401E7004401C3008700D30069
:10271200C400900100007041CDCC4C3D3333B33F37
:00000001FF
