:100000000C9483000C94B4000C94B4000C94B400D1
:100010000C94B4000C94B4000C94B4000C94B40090
:100020000C94B4000C94B4000C94B4000C94B40080
:100030000C94B4000C94B4000C94B4000C94B40070
:100040000C94B4000C94B4000C94B4000C94B40060
:100050000C94B4000C94B4000C94B4000C942E02D4
:100060000C94B4000C94A2020C9478020C94B4008A
:100070000C94B4000C94B4000C94B4000C94B40030
:100080000C94B4000C94B4000C94B4000C94B40020
:100090000C94B4000C94B4000C94B4000C94B40010
:1000A0000C94B4000C94B4000C94B4000C94B40000
:1000B0000C94B4000C94B4000C94B4000C94B400F0
:1000C0000C94B4000C94B4000C94B4000C94B400E0
:1000D0000C94B4000C94B4000C94B4000C94B400D0
:1000E0000C94B4000C942C040C94DB000C943A0196
:1000F0000C9418010C94BF010C942C010C94720107
:100100000C9409012C0411241FBECFEFD1E2DEBFF5
:10011000CDBF00E00CBF12E0A0E0B2E0E4E1F9E006
:1001200000E00BBF02C007900D92A832B107D9F7CB
:1001300022E0A8E2B2E001C01D92AE3CB207E1F7B6
:1001400010E0C3E8D0E000E006C021970109802F4D
:10015000FE010E947B04C238D10780E00807A9F79E
:100160000E94D8020C9488040C9400003FB7F894C5
:1001700080912D0290912E02A0912F02B091300219
:1001800026B5A89B05C02F3F19F00196A11DB11DF2
:100190003FBFBA2FA92F982F8827820F911DA11D2D
:1001A000B11DBC01CD0142E0660F771F881F991F6A
:1001B0004A95D1F70895CF92DF92EF92FF920F9375
:1001C0001F93CF93DF936C017A018B01C0E0D0E0E5
:1001D000CE15DF0581F0D8016D918D01D601ED912D
:1001E000FC910190F081E02DC6011995892B11F049
:1001F0002196EECF7E01C701DF91CF911F910F9124
:10020000FF90EF90DF90CF900895089580E090E008
:100210000895FC01538D448D252F30E0842F90E00C
:10022000821B930B541710F0CF96089501970895F1
:10023000FC01918D828D981761F0828DDF01A80FEE
:10024000B11D5D968C91928D9F5F9F73928F90E010
:1002500008958FEF9FEF0895FC01918D828D98177F
:1002600031F0828DE80FF11D858D90E008958FEFBC
:100270009FEF0895FC01918D228D892F90E0805C85
:100280009F4F821B91098F739927089581E392E014
:100290000E943A0121E0892B09F420E0822F089581
:1002A000FC01848DDF01A80FB11DA35ABF4F2C9113
:1002B000848D90E001968F739927848FA689B789E2
:1002C0002C93A089B1898C91837080648C93938DD9
:1002D000848D981306C00288F389E02D80818F7D7C
:1002E00080830895EF92FF920F931F93CF93DF9334
:1002F000EC0181E0888F9B8D8C8D981305C0E88977
:10030000F989808185FD26C0F62E0B8D10E00F5FE8
:100310001F4F0F731127E02E8C8DE8120CC00FB603
:1003200007FCFACFE889F989808185FFF5CFCE01F6
:100330000E945001F1CF8B8DFE01E80FF11DE35AB1
:10034000FF4FF0829FB7F8940B8FEA89FB89808179
:1003500080620AC09FB7F894EE89FF896083E889BC
:10036000F98980818370806480839FBF81E090E001
:10037000DF91CF911F910F91FF90EF900895CF9350
:10038000DF93EC01888D8823C9F0EA89FB8980819D
:1003900085FD05C0A889B9898C9186FD0FC00FB66F
:1003A00007FCF5CF808185FFF2CFA889B9898C91B0
:1003B00085FFEDCFCE010E945001E7CFDF91CF91B5
:1003C000089580E090E0892B21F00E944601811180
:1003D00025C080E090E0892B41F080E090E0892BFF
:1003E00021F00E94000081111CC080E090E0892B68
:1003F00041F080E090E0892B21F00E940000811103
:1004000013C080E090E0892BA1F080E090E0892B80
:1004100081F00E94000081110AC008950E9400002E
:10042000D8CF0E940000E1CF0E940000EACF0C94D8
:1004300000000895009769F0FC0101900020E9F7A1
:100440003197AF01481B590BBC0181E392E00C943A
:10045000DB0080E090E008950E9483041F920F92D9
:100460000FB60F9211242F933F938F939F93AF93C7
:10047000BF938091290290912A02A0912B02B09102
:100480002C023091280223E0230F2D3720F401960F
:10049000A11DB11D05C026E8230F0296A11DB11DA7
:1004A000209328028093290290932A02A0932B0282
:1004B000B0932C0280912D0290912E02A0912F02D8
:1004C000B09130020196A11DB11D80932D02909331
:1004D0002E02A0932F02B0933002BF91AF919F9153
:1004E0008F913F912F910F900FBE0F901F901895F5
:1004F0001F920F920FB60F9211240BB60F922F93EB
:100500003F934F935F936F937F938F939F93AF939B
:10051000BF93EF93FF9381E392E00E945001FF911C
:10052000EF91BF91AF919F918F917F916F915F916B
:100530004F913F912F910F900BBE0F900FBE0F90D8
:100540001F9018951F920F920FB60F9211240BB6A1
:100550000F922F938F939F93EF93FF93E09141021C
:10056000F09142028081E0914702F091480282FDC1
:1005700012C0908180914A028F5F8F7320914B024D
:10058000821751F0E0914A02F0E0EF5CFD4F958F49
:1005900080934A0201C08081FF91EF919F918F91DA
:1005A0002F910F900BBE0F900FBE0F901F901895BC
:1005B000CF93DF93CDB7DEB7A1970FB6F894DEBF28
:1005C0000FBECDBF789484B5826084BD84B5816050
:1005D00084BD85B5826085BD85B5816085BD80910E
:1005E0006E00816080936E00109281008091810086
:1005F000826080938100809181008160809381007E
:10060000809180008160809380008091B10084603F
:100610008093B1008091B00081608093B0008091A0
:10062000910082608093910080919100816080931D
:100630009100809190008160809390008091A10052
:1006400082608093A1008091A10081608093A100CD
:100650008091A00081608093A00080912101826040
:1006600080932101809121018160809321018091FB
:10067000200181608093200180917A0084608093C2
:100680007A0080917A00826080937A0080917A006B
:10069000816080937A0080917A00806880937A00EC
:1006A0001092C100E0914102F091420282E0808309
:1006B000E0913D02F0913E021082E0913F02F09104
:1006C00040028FEC808310924902E0914502F09144
:1006D000460286E08083E0914302F09144028081EB
:1006E00080618083E0914302F091440280818860C0
:1006F0008083E0914302F09144028081806880838E
:10070000E0914302F091440280818F7D808392E2E8
:10071000292E92E0392E2AE0822E912CA12CB12C88
:1007200002E112E082E292E00E941A02F801808166
:100730000E5F1F4F863308F0865390917B00282F61
:100740002870977F922B90937B00877080648093B2
:100750007C0080917A00806480937A0080917A0096
:1007600086FDFCCF809178002091790090E0922B5B
:100770002C01092E000C6608770897FF20C06DE257
:1007800081E392E00E94720122273327A9012419F4
:1007900035094609570919A2CE0181967C01CA0183
:1007A000B901A50194010E945904605DF7016293AB
:1007B0007F01211531054105510589F715C0A301B8
:1007C000920119A2CE0181967C01CA01B901A5014D
:1007D00094010E945904605DF70162937F01211525
:1007E00031054105510589F7C7010E941A022016FB
:1007F000310609F097CF82E292E00E941A0284E269
:1008000092E00E941A020E94B6002B013C0184E68D
:10081000C82ED12CE12CF12C0E94B600DC01CB01BA
:1008200084199509A609B709883E9340A105B10529
:1008300098F3F1E0CF1AD108E108F10828EE420E52
:1008400023E0521E611C711CC114D104E104F104A7
:1008500019F70E94E10164CFE1E3F2E01382128212
:1008600088EE93E0A0E0B0E084839583A683B7830D
:1008700084E092E09183808385EC90E09587848783
:1008800084EC90E09787868780EC90E0918B808B5A
:1008900081EC90E0938B828B82EC90E0958B848B43
:1008A00086EC90E0978B868B118E128E138E148EB1
:1008B0000895A1E21A2EAA1BBB1BFD010DC0AA1FA1
:1008C000BB1FEE1FFF1FA217B307E407F50720F0B9
:1008D000A21BB30BE40BF50B661F771F881F991F34
:1008E0001A9469F760957095809590959B01AC017D
:1008F000BD01CF010895EE0FFF1F881F8BBF07902A
:10090000F691E02D199481E090E0F8940C9488041D
:04091000F894FFCF89
:10091400000000007201DB000901BF013A01180167
:100924002C013E003F0040004100420043004400CF
:08093400450020000D0A00003F
:00000001FF
