:100000000C943A010C946B010C946B010C946B01F1
:100010000C946B010C946B010C946B010C946B01B0
:100020000C946B010C946B010C946B010C946B01A0
:100030000C946B010C946B010C946B010C946B0190
:100040000C946B010C946B010C946B010C946B0180
:100050000C946B010C946B010C946B010C94BE0519
:100060000C946B010C9432060C9408060C946B01F2
:100070000C946B010C946B010C946B010C946B0150
:100080000C946B010C946B010C946B010C946B0140
:100090000C946B010C946B010C946B010C946B0130
:1000A0000C946B010C946B010C946B010C946B0120
:1000B0000C946B010C946B010C946B010C946B0110
:1000C0000C946B010C946B010C946B010C946B0100
:1000D0000C946B010C946B010C946B010C946B01F0
:1000E0000C946B016502680257025B025F029F027B
:1000F0006C02700276027A027E02840288028C020E
:100100009F02920296029A020C947A020C945F0269
:100110000C9457020C9470020C9462030C946806C1
:100120000C9476030C948C020C9465020C949A0245
:100130000C9453030C9409040C9496020C946C02D6
:100140000C94BC030C9425030C947E020C949F0227
:100150000C9476020C945B020C9484020C9484033D
:100160000C9492020C9488020C94680200000A0B12
:1001700002090C0D0E080703040100000000000036
:10018000000000000000000000000000000000006F
:10019000000000000000000012111000000000002C
:1001A000000000000000000000000000000000004F
:1001B000000000002200250028002B002E00310046
:1001C000340002010000050108010B0100002100BC
:1001D000240027002A002D00300033000101000018
:1001E000040107010A0105050505070508080808B7
:1001F000020202020A0A08080404040401010101BF
:1002000001010101030303030303030304070707B9
:100210000C0C0C0C0C0C0C0C02020202060606065E
:10022000060606060B0B0B0B0B0B0B0B010210202B
:10023000200808102040102040800201020108041C
:1002400002010102040810204080804020100804B0
:100250000201800402018040201008040201080409
:10026000020101020408102040800102040810204D
:100270004080680611241FBECFEFD1E2DEBFCDBFA4
:1002800000E00CBF12E0A0E0B2E0E8EBF6E100E035
:100290000BBF02C007900D92AC32B107D9F723E033
:1002A000ACE2B2E001C01D92A030B207E1F711E06C
:1002B000CAE3D1E000E006C021970109802FFE01CA
:1002C0000E944D0BC933D10780E00807A9F70E94AF
:1002D00004070C945A0B0C94000090E0FC01E45DC0
:1002E000FD4F2491FC01EA51FE4F8491882399F03F
:1002F00090E0880F991FFC01E453FE4FA591B49143
:10030000FC01EE54FE4F859194918FB7F894EC91D7
:10031000E22BEC938FBF08954F925F926F927F9282
:100320008F929F92AF92BF92CF92DF92EF92FF9205
:10033000CF93DF9300D01F92CDB7DEB76B017C0166
:100340008091EC029091ED02A091EE02B091EF024B
:1003500089839A83AB83BC83A8EEB2E02D913D9153
:100360004D915C9169817A818B819C810E94EE081C
:100370009B01AC0169817A818B819C810E945F091C
:100380004B015C016093FC027093FD028093FE02BE
:100390009093FF024090F8025090F9026090FA02A8
:1003A0007090FB02A3019201C701B6010E94ED0803
:1003B000A50194010E94BE0AA30192010E94EE08C9
:1003C0006B017C016093F4027093F5028093F60256
:1003D0009093F7029B01AC01C301B2010E94ED08AA
:1003E0009F772091F0023091F1024091F2025091FA
:1003F000F3020E94BE0A2B013C01A501940160E0BA
:1004000070E080E89FE30E94ED0829813A814B81EA
:100410005C810E94BE0A9B01AC01C301B2010E9433
:10042000EE086093EC027093ED028093EE029093DD
:10043000EF02C092F802D092F902E092FA02F09232
:10044000FB02C701B6010F900F900F900F90DF9144
:10045000CF91FF90EF90DF90CF90BF90AF909F90A3
:100460008F907F906F905F904F900895362F90E01F
:10047000FC01E459FE4F4491FC01E45DFD4F2491E1
:10048000FC01EA51FE4F9491992309F46CC0442376
:1004900009F455C050E0FA013197E231F10508F056
:1004A0004EC08827EE58FF4F8F4F0C944D0B809114
:1004B00080008F7707C0809180008F7D03C080917E
:1004C0008000877F809380003AC084B58F7702C018
:1004D00084B58F7D84BD33C08091B0008F7703C019
:1004E0008091B0008F7D8093B00029C080919000F2
:1004F0008F7707C0809190008F7D03C0809190001E
:10050000877F809390001BC08091A0008F7707C0E9
:100510008091A0008F7D03C08091A000877F809391
:10052000A0000DC0809120018F7707C0809120012D
:100530008F7D03C080912001877F80932001E92F68
:10054000F0E0EE0FFF1FEE54FE4FA591B4919FB760
:10055000F894311104C08C912095282302C0EC91AD
:100560002E2B2C939FBF0895CF93DF9360E08CE0F8
:100570000E94360260E088E00E943602C7E0D0E0C8
:1005800060E084E00E9436028091E20290E00C2E4E
:1005900002C0959587950A94E2F780FF02C061E05A
:1005A00001C060E088E00E94360261E084E00E94C1
:1005B0003602219728F761E08CE0DF91CF910C940F
:1005C0003602863308F0865390917B00282F2870DE
:1005D000977F922B90937B008770806480937C0040
:1005E00080917A00806480937A0080917A0086FD01
:1005F000FCCF809178002091790090E0922B0895B3
:100600003FB7F8948091410290914202A091430239
:10061000B091440226B5A89B05C02F3F19F0019662
:10062000A11DB11D3FBFBA2FA92F982F8827820F78
:10063000911DA11DB11DBC01CD0142E0660F771FC8
:10064000881F991F4A95D1F70895CF92DF92EF92B4
:10065000FF920F931F93CF93DF936C017A018B016D
:10066000C0E0D0E0CE15DF0581F0D8016D918D019D
:10067000D601ED91FC910190F081E02DC601199514
:10068000892B11F02196EECF7E01C701DF91CF912A
:100690001F910F91FF90EF90DF90CF9008950895F4
:1006A00080E090E00895FC01538D448D252F30E0CB
:1006B000842F90E0821B930B541710F0CF9608956F
:1006C00001970895FC01918D828D981761F0828DBC
:1006D000DF01A80FB11D5D968C91928D9F5F9F7376
:1006E000928F90E008958FEF9FEF0895FC01918D18
:1006F000828D981731F0828DE80FF11D858D90E085
:1007000008958FEF9FEF0895FC01918D228D892F21
:1007100090E0805C9F4F821B91098F739927089509
:1007200085E492E00E94840321E0892B09F420E013
:10073000822F0895FC01848DDF01A80FB11DA35AFB
:10074000BF4F2C91848D90E001968F739927848FF1
:10075000A689B7892C93A089B1898C918370806414
:100760008C93938D848D981306C00288F389E02DB5
:1007700080818F7D80830895EF92FF920F931F9366
:10078000CF93DF93EC0181E0888F9B8D8C8D981344
:1007900005C0E889F989808185FD26C0F62E0B8D7C
:1007A00010E00F5F1F4F0F731127E02E8C8DE812A2
:1007B0000CC00FB607FCFACFE889F989808185FF64
:1007C000F5CFCE010E949A03F1CF8B8DFE01E80F89
:1007D000F11DE35AFF4FF0829FB7F8940B8FEA891F
:1007E000FB89808180620AC09FB7F894EE89FF89F7
:1007F0006083E889F98980818370806480839FBFEA
:1008000081E090E0DF91CF911F910F91FF90EF90E9
:100810000895CF93DF93EC01888D8823C9F0EA898E
:10082000FB89808185FD05C0A889B9898C9186FDE9
:100830000FC00FB607FCF5CF808185FFF2CFA889E6
:10084000B9898C9185FFEDCFCE010E949A03E7CF45
:10085000DF91CF91089580E090E0892B21F00E94F4
:100860009003811125C080E090E0892B41F080E069
:1008700090E0892B21F00E94000081111CC080E0D3
:1008800090E0892B41F080E090E0892B21F00E94DC
:100890000000811113C080E090E0892BA1F080E07E
:1008A00090E0892B81F00E94000081110AC0089518
:1008B0000E940000D8CF0E940000E1CF0E940000FB
:1008C000EACF0C9400000895FC018081823079F019
:1008D00018F4813031F00895833079F0843099F044
:1008E000089570E07093890060938800089570E027
:1008F00070939D0060939C00089570E07093A90030
:100900006093A800089570E0709399006093980038
:100910000895FC018081823049F018F4813079F02B
:100920000895833031F0843039F0089524E031E0C7
:1009300008C027E035E005C026E030E002C023E033
:1009400032E06230A9F0643029F16130B9F581E01C
:1009500090E0AC0101C0440F3A95EAF73091E20211
:10096000432B01C0880F2A95EAF78095842322C083
:1009700081E090E0AC0101C0440F3A95EAF7342FD2
:1009800030954091E202342301C0880F2A95EAF79E
:10099000832B10C041E050E0CA0101C0880F3A9596
:1009A000EAF701C0440F2A95EAF7842B80959091CD
:1009B000E20289238093E2020C94B4020895009726
:1009C00069F0FC0101900020E9F73197AF01481B65
:1009D000590BBC0185E492E00C94250380E090E083
:1009E00008958F929F92AF92BF920F931F93CF93D0
:1009F000DF93CDB7DEB7A1970FB6F894DEBF0FBE79
:100A0000CDBF19A2423008F44AE08E010F5D1F4F9E
:100A1000842E912CA12CB12CA50194010E942B0BAA
:100A2000E62FB901CA0101501109EA3014F4E05D62
:100A300001C0E95CD801EC93232B242B252B61F713
:100A4000C8010E94DF04A1960FB6F894DEBF0FBE66
:100A5000CDBFDF91CF911F910F91BF90AF909F902D
:100A60008F900895CF92DF92EF92FF92CF93DF9312
:100A70006B017C016DE285E492E00E94BC03EC0115
:100A800066277727CB016C197D098E099F094AE0FB
:100A90000E94F1048C0F9D1FDF91CF91FF90EF908A
:100AA000DF90CF900895BC01990F880B990B97FDAB
:100AB0000C9432054AE00C94F10489E30E94E102AF
:100AC000BC01990F880B990B0E94090A0E948C01A6
:100AD0000E94D10970933902609338028AE30E9420
:100AE000E102BC01990F880B990B0E94090A0E9430
:100AF0008C010E94D10970932D0260932C028BE32C
:100B00000E94E102BC01990F880B990B0E94090A0F
:100B10000E948C010E94D10970933B0260933A02BB
:100B200082E192E00E94DF0480912C0290912D02DC
:100B30000E94530589E192E00E94DF0480913A020D
:100B400090913B020E94530581E292E00E94DF04F3
:100B50006091380270913902072E000C880B990BB6
:100B600097FF03C00E94320503C04AE00E94F104CF
:100B700089E292E00C94DF040E94550B1F920F92C1
:100B80000FB60F9211242F933F938F939F93AF93A0
:100B9000BF9380913D0290913E02A0913F02B0919F
:100BA000400230913C0223E0230F2D3720F40196C0
:100BB000A11DB11D05C026E8230F0296A11DB11D80
:100BC00020933C0280933D0290933E02A0933F020B
:100BD000B09340028091410290914202A091430261
:100BE000B09144020196A11DB11D809341029093E2
:100BF0004202A0934302B0934402BF91AF919F91F0
:100C00008F913F912F910F900FBE0F901F901895CD
:100C10001F920F920FB60F9211240BB60F922F93C3
:100C20003F934F935F936F937F938F939F93AF9374
:100C3000BF93EF93FF9385E492E00E949A03FF91A4
:100C4000EF91BF91AF919F918F917F916F915F9144
:100C50004F913F912F910F900BBE0F900FBE0F90B1
:100C60001F9018951F920F920FB60F9211240BB67A
:100C70000F922F938F939F93EF93FF93E0915502E1
:100C8000F09156028081E0915B02F0915C0282FD5E
:100C900012C0908180915E028F5F8F7320915F02FE
:100CA000821751F0E0915E02F0E0EB5BFD4F958F13
:100CB00080935E0201C08081FF91EF919F918F919F
:100CC0002F910F900BBE0F900FBE0F901F90189595
:100CD000CF93DF93E5E4F2E01382128288EE93E093
:100CE000A0E0B0E084839583A683B78384E092E09C
:100CF0009183808385EC90E09587848784EC90E0F5
:100D00009787868780EC90E0918B808B81EC90E0D8
:100D1000938B828B82EC90E0958B848B86EC90E0B9
:100D2000978B868B118E128E138E148E1092E30287
:100D3000E8EEF2E080E090E0A0E0B0E48083918310
:100D4000A283B38384839583A683B7838DEC9CECC5
:100D5000ACE4BDE380879187A287B387E6EEF2E03B
:100D600084E08083D2E0D1838CE00E946D0187E033
:100D70000E946D0188E00E946D0184E00E946D0177
:100D80001092E2020E94B40260E087E00E94360204
:100D90000E94B402E0E9F0E0808181688083CAE0CB
:100DA000C0939100109299001092980085E00E94E3
:100DB0006D01E4EEF2E083E08083D1838CE00E9459
:100DC0006D0187E00E946D0188E00E946D0184E062
:100DD0000E946D011092E2020E94B40260E087E07E
:100DE0000E9436020E94B402E0EAF0E0808181684D
:100DF0008083C093A1001092A9001092A80086E001
:100E0000DF91CF910C946D01789484B5826084BD9C
:100E100084B5816084BD85B5826085BD85B58160FE
:100E200085BD80916E00816080936E00109281007C
:100E30008091810082608093810080918100816037
:100E400080938100809180008160809380008091F8
:100E5000B10084608093B1008091B0008160809384
:100E6000B000809191008260809391008091910008
:100E700081608093910080919000816080939000C8
:100E80008091A10082608093A1008091A100816087
:100E90008093A1008091A00081608093A000809148
:100EA00021018260809321018091210181608093E2
:100EB00021018091200181608093200180917A003E
:100EC000846080937A0080917A00826080937A00B7
:100ED00080917A00816080937A0080917A008068A6
:100EE00080937A001092C100E0915502F091560271
:100EF00082E08083E0915102F09152021082E091F1
:100F00005302F09154028FEC808310925D02E091C5
:100F10005902F0915A0286E08083E0915702F091E5
:100F20005802808180618083E0915702F0915802DD
:100F3000808188608083E0915702F091580280811F
:100F400080688083E0915702F091580280818F7D04
:100F500080833CEB232E32E0332E08E210E00E9427
:100F60005D0580913A0290913B02803991400CF0EE
:100F700059C062E086EE92E00E94890462E084EE4D
:100F800092E00E94890464E186EE92E00E9464048B
:100F900064E184EE92E00E9464040E9400036B010D
:100FA0007C0122E3822E912CA12CB12C0E94000303
:100FB000DC01CB018C199D09AE09BF09883E934025
:100FC000A105B10598F381E0881A9108A108B1083C
:100FD00028EEC20E23E0D21EE11CF11C8114910404
:100FE000A104B10419F780913A0290913B02803933
:100FF00091400CF0EFC061E084EE92E00E94890421
:1010000062E086EE92E00E9489046BE486EE92E054
:101010000E9464046BE484EE92E00E9464040E94E7
:101020005D05E1CF8091380290913902E101C81B42
:10103000D90BBE010D2E000C880B990B0E94090ADA
:101040006B017C0120E030E0A9010E94EE082DEC4C
:101050003CEC4CEC5DE30E94BE0A2B013C0180910C
:10106000360290913702BE01681B790B072E000CE7
:10107000880B990B0E94090A20E030E040EE50E412
:101080000E94BE0A2AE037ED43E25CE30E945F095A
:101090004B015C0120E030E040E051E4C701B601C3
:1010A0000E94BE0A6B017C012AE037ED43E25CE35B
:1010B000C301B2010E94BE0A9B01AC01C701B60187
:1010C0000E94EE089B01AC01C501B4010E94EE082C
:1010D0000E94D1096B017C01D0933702C093360284
:1010E000B8016C197D09072E000C880B990B0E9422
:1010F000090A4B015C01B601685D7F4F072E000CA9
:10110000880B990B0E94090A6B017C0120E030E0FA
:10111000A901C501B4010E945A0987FD11C020E050
:1011200030E048EC52E4C501B4010E94B90A181637
:1011300054F4812C912C98ECA92E92E4B92E03C082
:10114000812C912C54018092320290923302A09211
:101150003402B092350220E030E0A901C701B601A7
:101160000E945A0987FD11C020E030E048EC52E4AB
:10117000C701B6010E94B90A181654F4C12CD12C2B
:1011800088ECE82E82E4F82E03C0C12CD12C760125
:10119000C0922E02D0922F02E0923002F0923102E1
:1011A00061E086EE92E00E94890461E084EE92E0C4
:1011B0000E948904C501B4010E94D80986EE92E01C
:1011C0000E946404C701B6010E94D80984EE92E02F
:1011D0000E9464040E942B04C2CE5058BB27AA2749
:1011E0000E9405090C947F0A0E94710A38F00E943F
:1011F000780A20F039F49F3F19F426F40C946E0A13
:101200000EF4E095E7FB0C94680AE92F0E94900A1F
:1012100058F3BA17620773078407950720F079F42B
:10122000A6F50C94B20A0EF4E0950B2EBA2FA02D61
:101230000B01B90190010C01CA01A0011124FF2783
:10124000591B99F0593F50F4503E68F11A16F0407E
:10125000A22F232F342F4427585FF3CF469537957D
:101260002795A795F0405395C9F77EF41F16BA0B42
:10127000620B730B840BBAF09150A1F0FF0FBB1FF0
:10128000661F771F881FC2F70EC0BA0F621F731F39
:10129000841F48F4879577956795B795F7959E3F96
:1012A00008F0B0CF9395880F08F09927EE0F979527
:1012B000879508950E94440A08F481E008950E94E9
:1012C00073090C947F0A0E94780A58F00E94710AF0
:1012D00040F029F45F3F29F00C94680A51110C94F6
:1012E000B30A0C946E0A0E94900A68F39923B1F332
:1012F000552391F3951B550BBB27AA27621773073C
:10130000840738F09F5F5F4F220F331F441FAA1FCF
:10131000A9F335D00E2E3AF0E0E832D0915050408B
:10132000E695001CCAF72BD0FE2F29D0660F771F39
:10133000881FBB1F261737074807AB07B0E809F01F
:10134000BB0B802DBF01FF2793585F4F3AF09E3FA4
:10135000510578F00C94680A0C94B30A5F3FE4F3EB
:10136000983ED4F3869577956795B795F7959F5FE7
:10137000C9F7880F911D9695879597F90895E1E033
:10138000660F771F881FBB1F621773078407BA0792
:1013900020F0621B730B840BBA0BEE1F88F7E095ED
:1013A00008950E94D8096894B1110C94B30A089565
:1013B0000E94980A88F09F5798F0B92F9927B75143
:1013C000B0F0E1F0660F771F881F991F1AF0BA95E9
:1013D000C9F714C0B13091F00E94B20AB1E008958B
:1013E0000C94B20A672F782F8827B85F39F0B93F7D
:1013F000CCF3869577956795B395D9F73EF490959C
:101400008095709561957F4F8F4F9F4F0895E89419
:1014100009C097FB3EF490958095709561957F4F3C
:101420008F4F9F4F9923A9F0F92F96E9BB279395EA
:10143000F695879577956795B795F111F8CFFAF4FA
:10144000BB0F11F460FF1BC06F5F7F4F8F4F9F4F2B
:1014500016C0882311F096E911C0772321F09EE889
:10146000872F762F05C0662371F096E8862F70E0EF
:1014700060E02AF09A95660F771F881FDAF7880FC9
:101480009695879597F90895990F0008550FAA0B1F
:10149000E0E8FEEF16161706E807F907C0F0121687
:1014A0001306E407F50798F0621B730B840B950B8A
:1014B00039F40A2661F0232B242B252B21F40895DF
:1014C0000A2609F4A140A6958FEF811D811D08957C
:1014D00097F99F6780E870E060E008959FEF80ECE7
:1014E000089500240A94161617061806090608958A
:1014F00000240A9412161306140605060895092EF0
:101500000394000C11F4882352F0BB0F40F4BF2B5E
:1015100011F460FF04C06F5F7F4F8F4F9F4F08959E
:1015200057FD9058440F551F59F05F3F71F0479594
:10153000880F97FB991F61F09F3F79F08795089579
:10154000121613061406551FF2CF4695F1DF08C098
:10155000161617061806991FF1CF869571056105B5
:1015600008940895E894BB2766277727CB0197F95D
:1015700008950E94440A08F48FEF08950E94D10A4A
:101580000C947F0A0E94710A38F00E94780A20F0B9
:10159000952311F00C94680A0C946E0A11240C9493
:1015A000B30A0E94900A70F3959FC1F3950F50E023
:1015B000551F629FF001729FBB27F00DB11D639F05
:1015C000AA27F00DB11DAA1F649F6627B00DA11DAB
:1015D000661F829F2227B00DA11D621F739FB00D51
:1015E000A11D621F839FA00D611D221F749F3327C1
:1015F000A00D611D231F849F600D211D822F762F5A
:101600006A2F11249F5750409AF0F1F088234AF036
:10161000EE0FFF1FBB1F661F771F881F91505040A2
:10162000A9F79E3F510580F00C94680A0C94B30A08
:101630005F3FE4F3983ED4F3869577956795B79529
:10164000F795E7959F5FC1F7FE2B880F911D969543
:10165000879597F90895A1E21A2EAA1BBB1BFD01DD
:101660000DC0AA1FBB1FEE1FFF1FA217B307E40781
:10167000F50720F0A21BB30BE40BF50B661F771FD9
:10168000881F991F1A9469F76095709580959095B9
:101690009B01AC01BD01CF010895EE0FFF1F881F14
:1016A0008BBF0790F691E02D199481E090E0F894BB
:0816B0000C945A0BF894FFCFD3
:1016B80000000000BC0325035303090484036203EC
:1016C8007603206C65667420002066726F6E742045
:0C16D8000020726967687420000D0A0091
:00000001FF
