:100000000C9462000C948A000C948A000C948A0070
:100010000C948A000C948A000C948A000C948A0038
:100020000C948A000C948A000C948A000C948A0028
:100030000C948A000C948A000C948A000C948A0018
:100040000C940C070C948A000C947C070C945607B3
:100050000C948A000C948A000C948A000C948A00F8
:100060000C948A000C948A000000000024002700F1
:100070002A0000000000250028002B0000000000DE
:1000800023002600290004040404040404040202DA
:100090000202020203030303030301020408102007
:1000A0004080010204081020010204081020000012
:1000B0000008000201000003040700000000000027
:1000C0000000F30711241FBECFEFD8E0DEBFCDBF85
:1000D00011E0A0E0B1E0E4E8F7E102C005900D9284
:1000E000A033B107D9F722E0A0E3B1E001C01D922F
:1000F000A231B207E1F710E0C2E6D0E004C02197D8
:10010000FE010E94B50BC136D107C9F70E946408F1
:100110000C94C00B0C940000FC01538D448D252FD2
:1001200030E0842F90E0821B930B541710F0CF9691
:10013000089501970895FC01918D828D981761F0C3
:10014000828DDF01A80FB11D5D968C91928D9F5F0E
:100150009F73928F90E008958FEF9FEF0895FC01B9
:10016000918D828D981731F0828DE80FF11D858D6C
:1001700090E008958FEF9FEF0895FC01918D228DFF
:10018000892F90E0805C9F4F821B91098F73992784
:100190000895FC01848DDF01A80FB11DA35ABF4F44
:1001A0002C91848D90E001968F739927848FA68976
:1001B000B7892C93A089B1898C91837080648C93CA
:1001C000938D848D981306C00288F389E02D808179
:1001D0008F7D80830895EF92FF920F931F93CF93AB
:1001E000DF93EC0181E0888F9B8D8C8D981305C087
:1001F000E889F989808185FD26C0F62E0B8D10E0F7
:100200000F5F1F4F0F731127E02E8C8DE8120CC06B
:100210000FB607FCFACFE889F989808185FFF5CF11
:10022000CE010E94C900F1CF8B8DFE01E80FF11DB8
:10023000E35AFF4FF0829FB7F8940B8FEA89FB894E
:10024000808180620AC09FB7F894EE89FF8960833D
:10025000E889F98980818370806480839FBF81E011
:1002600090E0DF91CF911F910F91FF90EF90089553
:10027000CF93DF93EC01888D8823C9F0EA89FB894D
:10028000808185FD05C0A889B9898C9186FD0FC044
:100290000FB607FCF5CF808185FFF2CFA889B98919
:1002A0008C9185FFEDCFCE010E94C900E7CFDF9191
:1002B000CF9108958FE691E00E94BD0021E0892B47
:1002C00009F420E0822F089580E090E0892B29F046
:1002D0000E945A0181110C9400000895833081F02E
:1002E00028F4813099F08230A1F008958730A9F088
:1002F0008830B9F08430D1F4809180008F7D03C0C4
:10030000809180008F7780938000089584B58F77E7
:1003100002C084B58F7D84BD08958091B0008F7731
:1003200003C08091B0008F7D8093B0000895CF937B
:10033000DF93E0EBF0E08491ECE9F0E0D491E8E8C1
:10034000F0E0C491CC2391F081110E946E01EC2F5A
:10035000F0E0EE0FFF1FE458FF4FA591B491EC9130
:10036000ED2381E090E021F480E002C080E090E0A5
:10037000DF91CF9108951F93CF93DF93282F30E023
:10038000F901E255FF4F8491F901E656FF4FD491F0
:10039000F901EA57FF4FC491CC23C1F0162F811108
:1003A0000E946E01EC2FF0E0EE0FFF1FEE58FF4FA2
:1003B000A591B4919FB7F894111104C08C91D09578
:1003C000D82302C0EC91DE2BDC939FBFDF91CF914D
:1003D0001F910895CF93DF9360E08CE00E94BB01F2
:1003E00060E088E00E94BB01C7E0D0E060E084E00C
:1003F0000E94BB0180910C0290E00C2E02C09595EA
:1004000087950A94E2F780FF02C061E001C060E0D6
:1004100088E00E94BB0161E084E00E94BB0121975B
:1004200028F761E08CE0DF91CF910C94BB01CF9372
:10043000DF9390E0FC01E656FF4F2491FC01EA5760
:10044000FF4F8491882361F190E0880F991FFC0190
:10045000E859FF4FC591D491FC01EE58FF4FA5918B
:10046000B491611109C09FB7F894888120958223C7
:100470008883EC912E230BC0623061F49FB7F8940F
:100480008881322F309583238883EC912E2B2C93F7
:100490009FBF06C08FB7F894E8812E2B28838FBFAB
:1004A000DF91CF91089561E08CE00E94170261E036
:1004B00087E00E94170261E088E00E94170261E075
:1004C00084E00E94170210920C020E94EA0160E090
:1004D00087E00C94BB013FB7F89480916B01909139
:1004E0006C01A0916D01B0916E0126B5A89B05C06D
:1004F0002F3F19F00196A11DB11D3FBFBA2FA92FA3
:10050000982F8827820F911DA11DB11DBC01CD011F
:1005100042E0660F771F881F991F4A95D1F708950B
:100520008F929F92AF92BF92CF92DF92EF92FF9203
:100530006B017C010E946B024B015C01C114D10470
:10054000E104F104F1F00E946B02DC01CB01881997
:100550009909AA09BB09883E9340A105B10570F32A
:1005600021E0C21AD108E108F10888EE880E83E084
:10057000981EA11CB11CC114D104E104F10419F7A7
:10058000DDCFFF90EF90DF90CF90BF90AF909F9026
:100590008F900895CF92DF92EF92FF920F931F9367
:1005A000CF93DF936C017A018B01C0E0D0E0CE15D0
:1005B000DF0581F0D8016D918D01D601ED91FC919F
:1005C0000190F081E02DC6010995892B11F021964B
:1005D000EECF7E01C701DF91CF911F910F91FF9068
:1005E000EF90DF90CF900895089580E090E0089517
:1005F000FC018081823061F018F4813031F008957F
:10060000833049F0843049F008956093B300089531
:100610006093B400089567BD089568BD0895FC0116
:100620008081823049F018F4813079F00895833068
:1006300031F0843039F0089524E031E008C027E03B
:1006400035E005C026E030E002C023E032E0623051
:10065000A9F0643029F16130B9F581E090E0AC0196
:1006600001C0440F3A95EAF730910C02432B01C0C8
:10067000880F2A95EAF78095842322C081E090E0D4
:10068000AC0101C0440F3A95EAF7342F3095409100
:100690000C02342301C0880F2A95EAF7832B10C07F
:1006A00041E050E0CA0101C0880F3A95EAF701C065
:1006B000440F2A95EAF7842B809590910C028923A8
:1006C00080930C020C94EA01089561E080E192E0CD
:1006D0000E940F0361E08EE092E00E940F0364E647
:1006E00080E192E00E94F80268E78EE092E00E94CA
:1006F000F80268EC70E080E090E00E94900264E014
:1007000080E192E00E940F0364E08EE092E00C949E
:100710000F0380915C0190915D019C012350310990
:10072000F901E25CFE4F40814C3479F4DC01A35CBA
:10073000BE4F8C91823549F430935D0120935C016A
:1007400082E4808381E090E002C080E090E020912C
:100750005C0130915D01A90143505109FA01E25C4D
:10076000FE4F60816C3481F4D901A35CBE4F2C91A3
:10077000233551F4892B31F450935D0140935C0192
:1007800082E5808381E090E020915C0130915D0101
:10079000A90143505109FA01E25CFE4F60816235C4
:1007A00081F4D901A35CBE4F2C912C3451F4892BD8
:1007B00031F450935D0140935C0182E4808381E0D9
:1007C00090E020915C0130915D01A90143505109F5
:1007D000FA01E25CFE4F6081633581F4D901A35CCC
:1007E000BE4F2C912C3451F4892B31F450935D0180
:1007F00040935C0182E5808381E090E020915C0180
:1008000030915D01A90143505109FA01E25CFE4FAC
:100810006081633581F4D901A35CBE4F2C912335EF
:1008200051F4892B31F450935D0140935C0182E4D3
:10083000808381E090E020915C0130915D01A9010D
:1008400043505109FA01E25CFE4F60816C3471F44F
:10085000D901A35CBE4F2C912C3441F4892B31F487
:1008600050935D0140935C0183E5808380915C013E
:1008700090915D019C012F5F3F4FF901E25CFE4FBB
:1008800044E44083FC01E25CFE4F428330935D010F
:1008900020935C0108956AE570E080E090E00E949A
:1008A00090028091320190913301892BA1F48091C3
:1008B0005C0190915D01FC01E25CFE4F22E520832A
:1008C000019690935D0180935C0131978081823421
:1008D00011F40C948903089564E170E080E090E0E5
:1008E0000E9490028091320190913301892B99F4FA
:1008F00080915C0190915D01FC01E25CFE4F2CE473
:100900002083019690935D0180935C01319782E48E
:1009100080830C9489030895009769F0FC0101908D
:100920000020E9F73197AF01481B590BBC018FE656
:1009300091E00C94CA0280E090E008958F929F921B
:10094000AF92BF920F931F93CF93DF93CDB7DEB7D4
:10095000A1970FB6F894DEBF0FBECDBF19A24230EB
:1009600008F44AE08E010F5D1F4F842E912CA12CBC
:10097000B12CA50194010E94930BE62FB901CA0185
:1009800001501109EA3014F4E05D01C0E95CD801BE
:10099000EC93232B242B252B61F7C8010E948C0498
:1009A000A1960FB6F894DEBF0FBECDBFDF91CF91F9
:1009B0001F910F91BF90AF909F908F900895CF920D
:1009C000DF92EF92FF92CF93DF936B017C016DE298
:1009D0008FE691E00E94EB00EC0166277727CB01C0
:1009E0006C197D098E099F094AE00E949E048C0FB4
:1009F0009D1FDF91CF91FF90EF90DF90CF900895F2
:100A0000CF93DF93BC01990F880B990B97FF03C01D
:100A10000E94DF0403C04AE00E949E04EC018EE1C4
:100A200091E00E948C048C0F9D1FDF91CF9108955F
:100A30004F925F926F927F928F929F92AF92BF92EE
:100A4000CF92DF92EF92FF920F931F93CF93DF939A
:100A500080916401909165010C978C3091051CF098
:100A60008CE090E006C0853F2FEF920714F484EFEE
:100A70009FEF90933B0180933A0100913A011091CE
:100A80003B01C0913801D0913901C00FD11FD093E3
:100A90003901C0933801B801012E000C880B990B65
:100AA0000E949A0A6B017C0120913401309135013A
:100AB00040913601509137010E9483090E94620AD9
:100AC000072E000C880B990B0E949A0A20E030E058
:100AD00040E051E40E94260B4B015C01BE01DD0F9A
:100AE000880B990B0E949A0A20E030E0A9010E942D
:100AF000260B2B013C0120E030E040E850E4C70128
:100B0000B6010E94260B9B01AC01C301B2010E94F9
:100B100084099B01AC01C501B4010E9484090E94B3
:100B2000620A70933D0160933C01C8010E94000578
:100B300060913A0170913B01072E000C880B990BD4
:100B40000E949A0A609334017093350180933601B4
:100B500090933701DF91CF911F910F91FF90EF900C
:100B6000DF90CF90BF90AF909F908F907F906F90CD
:100B70005F904F9008950F931F93CF93DF938091D1
:100B80003C0190913D018C0108581F4FC4E6D0E014
:100B9000C81BD90BCF3FD10519F014F0CFEFD0E02F
:100BA000D7FF02C0C0E0D0E017FD30C00F3F1105F5
:100BB00019F014F00FEF10E081E291E00E948C0434
:100BC000BE01DD0F880B990B4AE00E949E0486E26D
:100BD00091E00E948C04C8010E94000561E080E160
:100BE00092E00E940F036C2F80E192E00E94F802D5
:100BF00061E08EE092E00E940F03602F8EE092E0B1
:100C0000DF91CF911F910F910C94F80281E291E056
:100C10000E948C0400E010E0D3CF0E94BB0BCF9267
:100C2000DF92EF92FF920F931F93CF93DF93EC012C
:100C3000CC0FDD1FFE01EA5FFE4F108160E0812FC7
:100C40000E94BB0183E090E00197F1F761E0812F02
:100C50000E94BB0183E290E00197F1F760E0812FF1
:100C60000E94BB01C050DF4F888199819927FC0108
:100C7000E656FF4F6491FC01EA57FF4FE491F0E024
:100C8000EE0FFF1FE458FF4F8591949100E412E4AA
:100C90002FE030E0462F0E94AE07611571058105F7
:100CA000910539F0DC01CB010196A11DB11DBF708A
:100CB00003C080E090E0DC01BC0197FF02C06F5FE1
:100CC0007F4F75956795072E000C880B990B0E9436
:100CD0009A0A27EC3BE44BEE51E40E94F0090E9493
:100CE000620A6B017C01CB010E940005C601DF9105
:100CF000CF911F910F91FF90EF90DF90CF900895CB
:100D000080E090E00E940F0690936501809364015B
:100D100081E090E00E940F0690936301809362014E
:100D200082E090E00E940F06909361018093600141
:100D30000E94970190935F0180935E01089581E086
:100D400090E0909333018093320180915C01909107
:100D50005D01FC01E25CFE4F24E420830196909348
:100D60005D0180935C010E9497010197E1F364EFBC
:100D700071E080E090E00E9490020E9480068091E5
:100D800064019091650144975CF4809160019091B9
:100D9000610144972CF40E9418050E94BB05EDCF19
:100DA000C0913001D0913101C25CDE4F8881843422
:100DB00039F464E670E080E090E00E9490020AC09E
:100DC0008C3441F468EC70E080E090E00E94900286
:100DD0000E946C048881823541F468EC70E080E008
:100DE00090E00E9490020E944B048881833551F468
:100DF00068EC70E080E090E00E9490020E9418058C
:100E00000E94BB0580913001909131010196909331
:100E1000310180933001B1CF1F920F920FB60F9224
:100E200011242F933F938F939F93AF93BF93809100
:100E3000670190916801A0916901B0916A013091B8
:100E4000660123E0230F2D3720F40196A11DB11D6B
:100E500005C026E8230F0296A11DB11D209366014F
:100E60008093670190936801A0936901B0936A0130
:100E700080916B0190916C01A0916D01B0916E0118
:100E80000196A11DB11D80936B0190936C01A093FD
:100E90006D01B0936E01BF91AF919F918F913F9182
:100EA0002F910F900FBE0F901F9018951F920F92C9
:100EB0000FB60F9211242F933F934F935F936F932D
:100EC0007F938F939F93AF93BF93EF93FF938FE69F
:100ED00091E00E94C900FF91EF91BF91AF919F9166
:100EE0008F917F916F915F914F913F912F910F90D3
:100EF0000FBE0F901F9018951F920F920FB60F9272
:100F000011242F938F939F93EF93FF93E0917F0191
:100F1000F09180018081E0918501F091860182FD50
:100F200012C09081809188018F5F8F732091890119
:100F3000821751F0E0918801F0E0E159FE4F958F62
:100F40008093880101C08081FF91EF919F918F91E3
:100F50002F910F900FBE0F901F901895CF92DF9298
:100F6000EF92FF920F931F93E82FF92F05C00150C6
:100F700011092109310961F1908196239417B9F380
:100F800005C0015011092109310911F19081962301
:100F90009413F7CFC12CD12CE12CF12C0AC08FEF88
:100FA000C81AD80AE80AF80A0C151D052E053F05CF
:100FB00079F080818623841791F36C2D7D2D8E2D01
:100FC0009F2D1F910F91FF90EF90DF90CF9008958C
:100FD00060E070E080E090E01F910F91FF90EF9053
:100FE000DF90CF900895EF92FF920F931F93CF93CE
:100FF000EFE6F1E01382128288EE93E0A0E0B0E029
:1010000084839583A683B78380E191E09183808375
:1010100085EC90E09587848784EC90E097878687BD
:1010200080EC90E0918B808B81EC90E0938B828BB5
:1010300082EC90E0958B848B86EC90E0978B868B8E
:10104000118E128E138E148E10920D02E0E1F2E0DA
:10105000C2E0C083C1830E94530280910C028D7E46
:1010600080930C020E94EA0100EB10E0F8018081FD
:101070008362808381EBE82EF12CF701C08310920C
:10108000B40061E083E00E941702EEE0F2E081E04C
:101090008083C1830E94530280910C02837F8093DE
:1010A0000C020E94EA01F801808183688083F701C5
:1010B000C0831092B30061E08BE0CF911F910F913C
:1010C000FF90EF900C941702789484B5826084BDF1
:1010D00084B5816084BD85B5826085BD85B581603C
:1010E00085BD80916E00816080936E0010928100BA
:1010F0008091810082608093810080918100816075
:101100008093810080918000816080938000809135
:10111000B10084608093B1008091B00081608093C1
:10112000B00080917A00846080937A0080917A0088
:10113000826080937A0080917A00816080937A0047
:1011400080917A00806880937A001092C10061E0FB
:1011500083E10E94170261E081E10E94170261E0D1
:101160008FE00E94170260E082E10E94170260E0B7
:1011700080E10E94170260E08EE00E94170260E0AA
:1011800082E00E94170268EE73E080E090E00E9427
:101190009002C2E40E9480068091640190916501F2
:1011A000843191053CF4809162019091630109972B
:1011B000BCF0A2C04497A1F08091600190916101C0
:1011C000459774F00E9465030E94800680915E013D
:1011D00090915F01019711F40E949F060E946C0498
:1011E000809164019091650145976CF00E946503C0
:1011F0000E94800680915E0190915F01019761F3EA
:101200000E946C0433C08091600190916101459708
:101210006CF10E9465030E948006809164019091A8
:10122000650145978CF06AEA70E080E090E00E94EA
:1012300090020E94800680915E0190915F0101976B
:1012400059F20E946C045CC06AEA70E080E090E0B1
:101250000E9490020E94800680915E0190915F0141
:10126000019709F4B9CF0E944B044AC00E9480063E
:10127000809164019091650144970CF041C0809188
:101280006201909163010897DCF580916001909173
:1012900061014497ACF561E080E192E00E940F03A8
:1012A00062E08EE092E00E940F0364E680E192E04B
:1012B0000E94F80268E78EE092E00E94F80268EC73
:1012C00070E080E090E00E94900264E080E192E0B3
:1012D0000E940F0364E08EE092E00E940F03809171
:1012E0005C0190915D01FC01E25CFE4FC0830196C0
:1012F00090935D0180935C010E9418050E94BB05DC
:101300000E94640147CF5058BB27AA270E949B091F
:101310000C94EC0A0E94DE0A38F00E94E50A20F0E4
:1013200039F49F3F19F426F40C94DB0A0EF4E0958F
:10133000E7FB0C94D50AE92F0E94FD0A58F3BA176F
:10134000620773078407950720F079F4A6F50C94DB
:101350001F0B0EF4E0950B2EBA2FA02D0B01B90137
:1013600090010C01CA01A0011124FF27591B99F01B
:10137000593F50F4503E68F11A16F040A22F232F27
:10138000342F4427585FF3CF469537952795A79577
:10139000F0405395C9F77EF41F16BA0B620B730B1E
:1013A000840BBAF09150A1F0FF0FBB1F661F771F8F
:1013B000881FC2F70EC0BA0F621F731F841F48F444
:1013C000879577956795B795F7959E3F08F0B0CFCD
:1013D0009395880F08F09927EE0F979587950895B4
:1013E0000E94040A0C94EC0A0E94E50A58F00E943C
:1013F000DE0A40F029F45F3F29F00C94D50A511120
:101400000C94200B0C94DB0A0E94FD0A68F39923CC
:10141000B1F3552391F3951B550BBB27AA276217F0
:101420007307840738F09F5F5F4F220F331F441FFD
:10143000AA1FA9F335D00E2E3AF0E0E832D0915031
:101440005040E695001CCAF72BD0FE2F29D0660F1E
:10145000771F881FBB1F261737074807AB07B0E861
:1014600009F0BB0B802DBF01FF2793585F4F3AF067
:101470009E3F510578F00C94D50A0C94200B5F3FE9
:10148000E4F3983ED4F3869577956795B795F795ED
:101490009F5FC9F7880F911D9695879597F90895D5
:1014A000E1E0660F771F881FBB1F62177307840771
:1014B000BA0720F0621B730B840BBA0BEE1F88F780
:1014C000E09508950E94690A6894B1110C94200B6C
:1014D00008950E94050B88F09F5798F0B92F99271F
:1014E000B751B0F0E1F0660F771F881F991F1AF00F
:1014F000BA95C9F714C0B13091F00E941F0BB1E04A
:1015000008950C941F0B672F782F8827B85F39F048
:10151000B93FCCF3869577956795B395D9F73EF4A7
:1015200090958095709561957F4F8F4F9F4F08954F
:10153000E89409C097FB3EF490958095709561956D
:101540007F4F8F4F9F4F9923A9F0F92F96E9BB2723
:101550009395F695879577956795B795F111F8CF9F
:10156000FAF4BB0F11F460FF1BC06F5F7F4F8F4F0A
:101570009F4F16C0882311F096E911C0772321F000
:101580009EE8872F762F05C0662371F096E8862F98
:1015900070E060E02AF09A95660F771F881FDAF7EF
:1015A000880F9695879597F9089597F99F6780E832
:1015B00070E060E008959FEF80EC089500240A94A5
:1015C0001616170618060906089500240A9412161E
:1015D0001306140605060895092E0394000C11F451
:1015E000882352F0BB0F40F4BF2B11F460FF04C0FE
:1015F0006F5F7F4F8F4F9F4F089557FD9058440F57
:10160000551F59F05F3F71F04795880F97FB991F61
:1016100061F09F3F79F0879508951216130614061E
:10162000551FF2CF4695F1DF08C0161617061806AB
:10163000991FF1CF86957105610508940895E89486
:10164000BB2766277727CB0197F908950E94390BAE
:101650000C94EC0A0E94DE0A38F00E94E50A20F0A1
:10166000952311F00C94D50A0C94DB0A11240C94E8
:10167000200B0E94FD0A70F3959FC1F3950F50E077
:10168000551F629FF001729FBB27F00DB11D639F34
:10169000AA27F00DB11DAA1F649F6627B00DA11DDA
:1016A000661F829F2227B00DA11D621F739FB00D80
:1016B000A11D621F839FA00D611D221F749F3327F0
:1016C000A00D611D231F849F600D211D822F762F89
:1016D0006A2F11249F5750409AF0F1F088234AF066
:1016E000EE0FFF1FBB1F661F771F881F91505040D2
:1016F000A9F79E3F510580F00C94D50A0C94200B5D
:101700005F3FE4F3983ED4F3869577956795B79558
:10171000F795E7959F5FC1F7FE2B880F911D969572
:10172000879597F90895A1E21A2EAA1BBB1BFD010C
:101730000DC0AA1FBB1FEE1FFF1FA217B307E407B0
:10174000F50720F0A21BB30BE40BF50B661F771F08
:10175000881F991F1A9469F76095709580959095E8
:101760009B01AC01BD01CF010895EE0FFF1F059055
:10177000F491E02D099481E090E0F8940C94C00B72
:04178000F894FFCF0B
:10178400120010000E00130011000F0000000000F2
:10179400EB00CA028C003801BD009B00AF000D0AAB
:1017A400006C6566740020202020726967687400EC
:00000001FF
