:100000000C9447010C9478010C9478010C947801BD
:100010000C9478010C9478010C9478010C9478017C
:100020000C9478010C9478010C9478010C9478016C
:100030000C9478010C940B070C9478010C947801C3
:100040000C9478010C9478010C9478010C9478014C
:100050000C9478010C9478010C9478010C9461064E
:100060000C9478010C94D5060C94AB060C94780192
:100070000C9478010C9478010C9478010C9478011C
:100080000C9478010C9478010C9478010C9478010C
:100090000C9478010C9478010C9478010C947801FC
:1000A0000C9478010C9478010C9478010C947801EC
:1000B0000C9478010C9478010C9478010C947801DC
:1000C0000C9478010C9478010C9478010C947801CC
:1000D0000C9478010C9478010C9478010C947801BC
:1000E0000C947801DA01DD01CC01D001D6011402B3
:1000F000E101E501EB01EF01F301F901FD0101026D
:10010000140207020B020F020C94F9010C94E10196
:100110000C94A5030C94CC010C9482030C94EF0175
:100120000C9438040C94FD010C9491030C940B0274
:100130000C9454030C94E5010C94D0010C94B3037B
:100140000C9434070C9401020C94DD010C94DA0138
:100150000C940F020C94F3010C9407020C94EB0125
:100160000C94D6010C9414020C94EB0300000A0BBF
:1001700002090C0D0E080703040100000000000036
:10018000000000000000000000000000000000006F
:10019000000000000000000012111000000000002C
:1001A000000000000000000000000000000000004F
:1001B000000000002100240027002A002D0030004C
:1001C000330001010000040107010A0100002000C2
:1001D0002300260029002C002F003200000100001F
:1001E00003010601090100002200250028002B0060
:1001F0002E003100340002010000050108010B014E
:1002000005050505070508080808020202020A0A92
:1002100008080404040401010101010101010303B0
:10022000030303030303040707070C0C0C0C0C0C5B
:100230000C0C0202020206060606060606060B0B58
:100240000B0B0B0B0B0B0102102020080810204099
:10025000102040800201020108040201010204088A
:100260001020408080402010080402018004020118
:100270008040201008040201080402010102040861
:10028000102040800102040810204080340711240F
:100290001FBECFEFD1E2DEBFCDBF00E00CBF12E04A
:1002A000A0E0B2E0E0EDF9E100E00BBF02C0079092
:1002B0000D92A233B107D9F723E0A2E3B2E001C067
:1002C0001D92A038B207E1F711E0C7E4D1E000E0E9
:1002D00006C021970109802FFE010E94C50CC6347B
:1002E000D10780E00807A9F70E94EC070C94E60C00
:1002F0000C940000DC0170E0FB01EA5BFD4FE4912F
:100300001496EC93149750E0FA01EA5BFD4FE491E8
:100310001596EC93159760507E4FFB018491E82F62
:10032000F0E0EE0FFF1FEA51FE4F85919491179672
:100330009C938E931697FA01E050FE4FE491F0E003
:10034000EE0FFF1FE453FE4F8591949119969C93F5
:100350008E931897FB016491E62FF0E0EE0FFF1FDC
:10036000EE54FE4F859194911B969C938E931A9711
:100370008DE796E11D969C938E931C97089590E0CF
:10038000FC013197E231F10508F04EC08827EE58A4
:10039000FF4F8F4F0C94C50C809180008F7703C066
:1003A000809180008F7D80938000089580918000EF
:1003B000877FF9CF84B58F7702C084B58F7D84BDE8
:1003C00008958091B0008F7703C08091B0008F7D39
:1003D0008093B0000895809190008F7707C080913E
:1003E00090008F7D03C080919000877F8093900064
:1003F00008958091A0008F7707C08091A0008F7D25
:1004000003C08091A000877F8093A0000895809111
:1004100020018F7707C0809120018F7D03C08091DC
:100420002001877F809320010895CF93DF93282FA9
:1004300030E0F901E459FE4F8491F901EA5BFD4F88
:10044000D491F901E050FE4FC491CC2391F0811179
:100450000E94BF01EC2FF0E0EE0FFF1FE453FE4FB0
:10046000A591B491EC91ED2381E090E021F480E03E
:1004700002C080E090E0DF91CF9108951F93CF9369
:10048000DF93282F30E0F901E459FE4F8491F90100
:10049000EA5BFD4FD491F901E050FE4FC491CC23AB
:1004A000C1F0162F81110E94BF01EC2FF0E0EE0F7A
:1004B000FF1FEA51FE4FA591B4919FB7F894111117
:1004C00004C08C91D095D82302C0EC91DE2BDC9334
:1004D0009FBFDF91CF911F910895CF93DF9360E08D
:1004E0008CE00E943E0260E088E00E943E02C7E08D
:1004F000D0E060E084E00E943E0280912C0390E016
:100500000C2E02C0959587950A94E2F780FF02C0F1
:1005100061E001C060E088E00E943E0261E084E0AA
:100520000E943E02219728F761E08CE0DF91CF9195
:100530000C943E02CF93DF9390E0FC01EA5BFD4F09
:100540002491FC01E050FE4F8491882361F190E0FA
:10055000880F991FFC01EE54FE4FC591D491FC0108
:10056000EA51FE4FA591B491611109C09FB7F8946B
:100570008881209582238883EC912E230BC06230E2
:1005800061F49FB7F8948881322F30958323888354
:10059000EC912E2B2C939FBF06C08FB7F894E88167
:1005A0002E2B28838FBFDF91CF910895863308F0DB
:1005B000865390917B00282F2870977F922B9093E1
:1005C0007B008770806480937C0080917A008064D7
:1005D00080937A0080917A0086FDFCCF809178002C
:1005E0002091790090E0922B08953FB7F894809184
:1005F0008B0290918C02A0918D02B0918E0226B553
:10060000A89B05C02F3F19F00196A11DB11D3FBF4A
:10061000BA2FA92F982F8827820F911DA11DB11DD8
:10062000BC01CD0142E0660F771F881F991F4A95D4
:10063000D1F708958F929F92AF92BF92CF92DF929F
:10064000EF92FF926B017C010E94F5024B015C016D
:10065000C114D104E104F104F1F00E94F502DC01BF
:10066000CB0188199909AA09BB09883E9340A105C5
:10067000B10570F321E0C21AD108E108F10888EE53
:10068000880E83E0981EA11CB11CC114D104E104A2
:10069000F10419F7DDCFFF90EF90DF90CF90BF907E
:1006A000AF909F908F900895CF92DF92EF92FF923C
:1006B0000F931F93CF93DF936C017A018B01C0E0FE
:1006C000D0E0CE15DF0581F0D8016D918D01D60106
:1006D000ED91FC910190F081E02DC6011995892BD7
:1006E00011F02196EECF7E01C701DF91CF911F91CE
:1006F0000F91FF90EF90DF90CF900895089580E0E4
:1007000090E00895FC01538D448D252F30E0842F17
:1007100090E0821B930B541710F0CF960895019729
:100720000895FC01918D828D981761F0828DDF0113
:10073000A80FB11D5D968C91928D9F5F9F73928FD4
:1007400090E008958FEF9FEF0895FC01918D828DC9
:10075000981731F0828DE80FF11D858D90E0089596
:100760008FEF9FEF0895FC01918D228D892F90E0EE
:10077000805C9F4F821B91098F73992708958FE8A2
:1007800092E00E94B30321E0892B09F420E0822F3C
:100790000895FC01848DDF01A80FB11DA35ABF4F3E
:1007A0002C91848D90E001968F739927848FA68970
:1007B000B7892C93A089B1898C91837080648C93C4
:1007C000938D848D981306C00288F389E02D808173
:1007D0008F7D80830895EF92FF920F931F93CF93A5
:1007E000DF93EC0181E0888F9B8D8C8D981305C081
:1007F000E889F989808185FD26C0F62E0B8D10E0F1
:100800000F5F1F4F0F731127E02E8C8DE8120CC065
:100810000FB607FCFACFE889F989808185FFF5CF0B
:10082000CE010E94C903F1CF8B8DFE01E80FF11DAF
:10083000E35AFF4FF0829FB7F8940B8FEA89FB8948
:10084000808180620AC09FB7F894EE89FF89608337
:10085000E889F98980818370806480839FBF81E00B
:1008600090E0DF91CF911F910F91FF90EF9008954D
:10087000CF93DF93EC01888D8823C9F0EA89FB8947
:10088000808185FD05C0A889B9898C9186FD0FC03E
:100890000FB607FCF5CF808185FFF2CFA889B98913
:1008A0008C9185FFEDCFCE010E94C903E7CFDF9188
:1008B000CF91089580E090E0892B21F00E94BF0342
:1008C000811125C080E090E0892B41F080E090E02C
:1008D000892B21F00E94000081111CC080E090E073
:1008E000892B41F080E090E0892B21F00E940000EC
:1008F000811113C080E090E0892BA1F080E090E0AE
:10090000892B81F00E94000081110AC008950E9485
:100910000000D8CF0E940000E1CF0E940000EACF83
:100920000C9400000895FC018081823079F018F465
:10093000813031F00895833079F0843099F0089552
:1009400070E07093890060938800089570E0709360
:100950009D0060939C00089570E07093A9006093DF
:10096000A800089570E0709399006093980008952E
:100970004F925F926F927F928F929F92AF92BF92AF
:10098000CF92DF92EF92FF920F931F93CF93DF935B
:1009900000D01F92CDB7DEB700E012E092E4692EDE
:1009A00092E0792E22E5422E22E0522E80E192E062
:1009B0009A838983C12CD12C812C912C540183944E
:1009C000F80180810E5F1F4F0E94D60297FD0396AB
:1009D0007C01F594E794F594E794F301819191916A
:1009E0003F01E816F906D4F461E0E981FA818685D1
:1009F0000E943E028091360290913702B501A40117
:100A00000C2C04C0440F551F661F771F0A94D2F7A1
:100A1000482B592B5093370240933602F2018191B3
:100A200091912F018E159F05E4F460E0E981FA8130
:100A300086850E943E02D501C4010C2C04C0880F9B
:100A4000991FAA1FBB1F0A94D2F7809590952091F9
:100A5000360230913702822393239093370280939A
:100A60003602FFEFCF1ADF0A89819A8102979A83B3
:100A7000898398E0C916D10409F0A2CF809136028B
:100A8000909137028C30910509F449C0C4F4833049
:100A90009105E1F144F481309105A9F1D4F5892B58
:100AA00009F454C066C086309105B1F188309105D3
:100AB000C9F1049709F05DC083E090E056C080332F
:100AC0009105C1F164F48831910579F18032910585
:100AD000A1F1409709F04DC08FEF9FEF46C08036DF
:100AE000910571F13CF48034910509F042C08BEF1F
:100AF0009FEF3BC08038910531F1803C9105C9F5ED
:100B00008AEF9FEF32C087E090E02FC086E090E050
:100B10002CC085E090E029C084E090E026C082E00F
:100B200090E023C081E090E020C01092410210923A
:100B300040021FC08EEF9FEF18C08DEF9FEF15C0D2
:100B40008CEF9FEF12C089EF9FEF0FC080914002A2
:100B500090914102893FEFEF9E0729F0079749F4F2
:100B600088E090E002C088EF9FEF9093410280936D
:100B700040026091400270914102072E000C880BE8
:100B8000990B0E94B80B6B017C0120913C023091C3
:100B90003D0240913E0250913F020E94140B4B01D6
:100BA0005C0160933C0270933D0280933E029093FF
:100BB0003F02209138023091390240913A0250911F
:100BC0003B02C701B6010E94130B20E030E046E96A
:100BD00053E40E94440C69837A838B839C8320E0D6
:100BE00030E040E751E4C701B6010E94440C2B01FC
:100BF0003C0120E030E0A901C501B4010E94440C91
:100C00009B01AC01C301B2010E94140B9B01AC011A
:100C100069817A818B819C810E94140B609382028E
:100C2000709383028093840290938502C09238026D
:100C3000D0923902E0923A02F0923B020F900F906C
:100C40000F900F90DF91CF911F910F91FF90EF9038
:100C5000DF90CF90BF90AF909F908F907F906F90DC
:100C60005F904F900895FC018081823049F018F424
:100C7000813079F00895833031F0843039F008956F
:100C800024E031E008C027E035E005C026E030E090
:100C900002C023E032E081E090E0AC0101C0440FEB
:100CA0003A95EAF730912C03432B01C0880F2A951F
:100CB000EAF78095842380932C030C946D020E94A4
:100CC000E10C1F920F920FB60F9211242F933F93B6
:100CD0008F939F93AF93BF938091870290918802E7
:100CE000A0918902B0918A023091860223E0230FFD
:100CF0002D3720F40196A11DB11D05C026E8230F54
:100D00000296A11DB11D20938602809387029093C5
:100D10008802A0938902B0938A0280918B029091FD
:100D20008C02A0918D02B0918E020196A11DB11D81
:100D300080938B0290938C02A0938D02B0938E02CD
:100D4000BF91AF919F918F913F912F910F900FBEC7
:100D50000F901F9018951F920F920FB60F921124AB
:100D60000BB60F922F933F934F935F936F937F93A5
:100D70008F939F93AF93BF93EF93FF938FE892E08E
:100D80000E94C903FF91EF91BF91AF919F918F9105
:100D90007F916F915F914F913F912F910F900BBE7B
:100DA0000F900FBE0F901F9018951F920F920FB6C5
:100DB0000F9211240BB60F922F938F939F93EF9363
:100DC000FF93E0919F02F091A0028081E091A50243
:100DD000F091A60282FD12C090818091A8028F5FDF
:100DE0008F732091A902821751F0E091A802F0E0E0
:100DF000E157FD4F958F8093A80201C08081FF913C
:100E0000EF919F918F912F910F900BBE0F900FBE7E
:100E10000F901F9018951F920F920FB60F921124EA
:100E20000BB60F922F933F934F935F936F937F93E4
:100E30008F939F93AF93BF93EF93FF93E0E0F0E026
:100E40001995FF91EF91BF91AF919F918F917F91F4
:100E50006F915F914F913F912F910F900BBE0F902B
:100E60000FBE0F901F901895CF93DF93EFE8F2E03D
:100E70001382128288EE93E0A0E0B0E08483958331
:100E8000A683B78384E292E09183808385EC90E02F
:100E90009587848784EC90E09787868780EC90E044
:100EA000918B808B81EC90E0938B828B82EC90E035
:100EB000958B848B86EC90E0978B868B118E128EAF
:100EC000138E148E10922D03EEE7F3E084E08083FE
:100ED000D2E0D18361E08CE00E949A0261E087E079
:100EE0000E949A0261E088E00E949A0261E084E038
:100EF0000E949A0210922C030E946D0260E087E02B
:100F00000E943E020E946D02E0E9F0E0808181686B
:100F10008083CAE0C09391001092990010929800CB
:100F200061E085E00E949A02ECE7F3E083E08083D1
:100F3000D18361E08CE00E949A0261E087E00E9428
:100F40009A0261E088E00E949A0261E084E00E94D7
:100F50009A0210922C030E946D0260E087E00E94CA
:100F60003E020E946D02E0EAF0E0808181688083A9
:100F7000C093A1001092A9001092A80061E086E041
:100F80000E949A02E4E6F3E080E090E0A0E0B0E4A2
:100F900080839183A283B38384839583A683B7835D
:100FA00084EA90E7ADE7BFE380879187A287B387A4
:100FB00047E366E382E593E00E947A0149E368E350
:100FC00080E493E00E947A014BE36AE38EE293E0CF
:100FD000DF91CF910C947A01789484B5826084BDBE
:100FE00084B5816084BD85B5826085BD85B581602D
:100FF00085BD80916E00816080936E0010928100AB
:101000008091810082608093810080918100816065
:101010008093810080918000816080938000809126
:10102000B10084608093B1008091B00081608093B2
:10103000B000809191008260809391008091910036
:1010400081608093910080919000816080939000F6
:101050008091A10082608093A1008091A1008160B5
:101060008093A1008091A00081608093A000809176
:101070002101826080932101809121018160809310
:1010800021018091200181608093200180917A006C
:10109000846080937A0080917A00826080937A00E5
:1010A00080917A00816080937A0080917A008068D4
:1010B00080937A001092C100E0919F02F091A0020B
:1010C00082E08083E0919B02F0919C021082E0918B
:1010D0009D02F0919E028FEC80831092A702E09116
:1010E000A302F091A40286E08083E091A102F09136
:1010F000A202808180618083E091A102F091A2022E
:10110000808188608083E091A102F091A2028081B9
:1011100080688083E091A102F091A20280818F7D9E
:10112000808361E080E10E949A0260E080E10E9499
:101130003E0262E085E30E949A0262E08EE00E9435
:101140009A02C0E2D2E000E112E0D8018C910E5F79
:101150001F4F61E00E949A02C017D107B1F785E3E3
:101160000E941502019709F05BC185E30E941502F8
:1011700000E112E00197C1F4F801F0800E5F1F4F0B
:101180008F2D0E94150261E0892B09F060E08F2D00
:101190000E943E02C017D10779F764EF71E080E04A
:1011A00090E00E941A03E1CFD8018C910E5F1F4F8F
:1011B00061E00E943E02C017D107B1F700E112E0E2
:1011C000F80180810E5F1F4F60E00E943E0268ECD4
:1011D00070E080E090E00E941A03C017D10781F709
:1011E00068EC70E080E090E00E941A0300E010E0FC
:1011F00060E0C8010E94050B65E070E080E090E0CF
:101200000E941A030F5F1F4F0830110589F7B0E0E5
:10121000CB2EB2E0DB2E10E1E12E12E0F12E5601D2
:1012200000E010E0D5018C91B2E0AB0EB11C0E9441
:10123000D60297FD0396BC017595679575956795E0
:10124000C8010E94050BF7018081F2E0EF0EF11C4E
:1012500061E00E943E0264E670E080E090E00E945F
:101260001A030F5F1F4F08301105E1F664E670E0C6
:1012700080E090E00E941A0368EC70E080E090E06B
:101280000E941A0385E30E94150200E112E0892BF7
:10129000B1F4D801FC900E5F1F4F8F2D0E941502F4
:1012A00061E0892B09F060E08F2D0E943E02C0179B
:1012B000D10779F76CE271E080E090E0E1CFF801CE
:1012C00080810E5F1F4F61E00E943E02C017D10770
:1012D000B1F700E112E0D8018C910E5F1F4F60E082
:1012E0000E943E0268EC70E080E090E00E941A03E9
:1012F000C017D10781F768EC70E080E090E00E94B1
:101300001A0308E010E060E0C8010E94050B65E0E8
:1013100070E080E090E00E941A030F5F1F4F0031E1
:10132000110589F7F0E1EF2EF2E0FF2E08E010E062
:10133000F6018081F2E0CF0ED11C0E94D60297FD0B
:101340000396BC017595679575956795C8010E94D0
:10135000050BD7018C91B2E0EB0EF11C61E00E940D
:101360003E0264E670E080E090E00E941A030F5FA6
:101370001F4F00311105E1F664E670E080E090E077
:101380000E941A0368EC70E080E090E00E941A036B
:1013900000E112E0F80180810E5F1F4F61E00E94C2
:1013A0003E02C017D107B1F764EF71E080E090E032
:1013B0000E941A0300E112E0D8018C910E5F1F4FCA
:1013C00061E00E943E02C017D107B1F764EF71E0FF
:1013D00080E090E00E941A0300E112E0F8018081B1
:1013E0000E5F1F4F61E00E943E02C017D107B1F7A8
:1013F00064EF71E080E090E00E941A0300E112E0E7
:10140000D8018C910E5F1F4F61E00E943E02C01711
:10141000D107B1F764EF71E080E090E00E941A0319
:1014200085E30E9415020197A9F486E10E94150246
:1014300061E0892B09F060E086E10E943E0282E3D0
:101440000E94150261E0892B09F060E082E30E94AE
:101450003E02E0CF02E712E07801C0E0D0E0CE012A
:101460000E94FD0A90E0F701819391937F016AE069
:1014700070E080E090E00E941A032196C830D10508
:1014800071F762E6C62E62E0D62E7601C8E0D0E0A3
:10149000CE010E94FD0A90E0D7018D939D937D01BE
:1014A0006AE070E080E090E00E941A032196C0316B
:1014B000D10571F792E5A92E92E0B92E22E4E22E31
:1014C00022E0F22E32E8432E32E0532E46EF842EF5
:1014D00099249A945AE0652E712CF801C191D1910A
:1014E0008F01D6012D913D916D01FE01E21BF30BA1
:1014F000EE0FFF1FEE0FFF1FCF01B4010E94B10CD2
:101500006C0F7D1FD5016D937D935D01CF01B301FC
:101510000E94B10C260F371FF701219331937F01F1
:1015200040165106D1F68EE00E9415020197D9F5BA
:10153000C0E1D2E018812296812F0E94150261E05D
:10154000892B09F060E0812F0E943E02F2E0C03258
:10155000DF0781F762E370E080E090E00E941A0309
:10156000E2CFEB016739710514F0C6E9D0E08EE7F0
:1015700093E00E9433068CE793E00E943306B801A3
:1015800017FF02C060E070E08EE793E00E949304D2
:10159000BE01D7FF02C060E070E08CE793E00E94DC
:1015A00093040E945A040E94B8040E94B8048090D8
:1015B000820290908302A0908402B0908502A501DF
:1015C000940160E070E082E093E40E94130B0E94BB
:1015D000800B6B017C0120E030E042E053E4C50168
:1015E000B4010E94140B0E94800B8601073911057B
:1015F0000CF4B7CF06E910E0B4CFF999FECF92BD55
:1016000081BDF89A992780B50895262FF999FECFC4
:101610001FBA92BD81BD20BD0FB6F894FA9AF99A0F
:101620000FBE019608955058BB27AA270E942B0B86
:101630000C940A0C0E94FC0B38F00E94030C20F062
:1016400039F49F3F19F426F40C94F90B0EF4E0954D
:10165000E7FB0C94F30BE92F0E941B0C58F3BA170D
:10166000620773078407950720F079F4A6F50C94B8
:101670003D0C0EF4E0950B2EBA2FA02D0B01B901F5
:1016800090010C01CA01A0011124FF27591B99F0F8
:10169000593F50F4503E68F11A16F040A22F232F04
:1016A000342F4427585FF3CF469537952795A79554
:1016B000F0405395C9F77EF41F16BA0B620B730BFB
:1016C000840BBAF09150A1F0FF0FBB1F661F771F6C
:1016D000881FC2F70EC0BA0F621F731F841F48F421
:1016E000879577956795B795F7959E3F08F0B0CFAA
:1016F0009395880F08F09927EE0F97958795089591
:101700000E94870B6894B1110C943E0C08950E94BE
:10171000230C88F09F5798F0B92F9927B751B0F054
:10172000E1F0660F771F881F991F1AF0BA95C9F765
:1017300014C0B13091F00E943D0CB1E008950C94BA
:101740003D0C672F782F8827B85F39F0B93FCCF36D
:10175000869577956795B395D9F73EF490958095E2
:10176000709561957F4F8F4F9F4F0895E89409C002
:1017700097FB3EF490958095709561957F4F8F4FC4
:101780009F4F9923A9F0F92F96E9BB279395F695DA
:10179000879577956795B795F111F8CFFAF4BB0F58
:1017A00011F460FF1BC06F5F7F4F8F4F9F4F16C0BC
:1017B000882311F096E911C0772321F09EE8872F46
:1017C000762F05C0662371F096E8862F70E060E002
:1017D0002AF09A95660F771F881FDAF7880F96957B
:1017E000879597F9089597F99F6780E870E060E022
:1017F00008959FEF80EC089500240A9416161706AA
:1018000018060906089500240A94121613061406F1
:1018100005060895092E0394000C11F4882352F054
:10182000BB0F40F4BF2B11F460FF04C06F5F7F4F0C
:101830008F4F9F4F089557FD9058440F551F59F0F3
:101840005F3F71F04795880F97FB991F61F09F3FAD
:1018500079F087950895121613061406551FF2CFD6
:101860004695F1DF08C0161617061806991FF1CF26
:1018700086957105610508940895E894BB2766274D
:101880007727CB0197F908950E94570C0C940A0C06
:101890000E94FC0B38F00E94030C20F0952311F0FD
:1018A0000C94F30B0C94F90B11240C943E0C0E9435
:1018B0001B0C70F3959FC1F3950F50E0551F629F6D
:1018C000F001729FBB27F00DB11D639FAA27F00D99
:1018D000B11DAA1F649F6627B00DA11D661F829FC0
:1018E0002227B00DA11D621F739FB00DA11D621FA5
:1018F000839FA00D611D221F749F3327A00D611DC2
:10190000231F849F600D211D822F762F6A2F1124A3
:101910009F5750409AF0F1F088234AF0EE0FFF1FD6
:10192000BB1F661F771F881F91505040A9F79E3F2D
:10193000510580F00C94F30B0C943E0C5F3FE4F3E4
:10194000983ED4F3869577956795B795F795E79583
:101950009F5FC1F7FE2B880F911D9695879597F98C
:10196000089597FB072E16F4009407D077FD09D051
:101970000E94CD0C07FC05D03EF4909581959F4FB9
:101980000895709561957F4F0895EE0FFF1F881F92
:101990008BBF0790F691E02D1994AA1BBB1B51E158
:1019A00007C0AA1FBB1FA617B70710F0A61BB70BCF
:1019B000881F991F5A95A9F780959095BC01CD0174
:1019C000089581E090E0F8940C94E60CF894FFCF31
:1019D0003E003F00400041004200430044004500FB
:1019E00016001A001E00220026002A002E003200D7
:1019F00000000000EB03540382033804B303910397
:021A0000A5033C
:00000001FF
