:100000000C9462000C948A000C948A000C948A0070
:100010000C948A000C948A000C948A000C94970427
:100020000C948A000C948A000C948A000C948A0028
:100030000C948A000C948A000C948A000C948A0018
:100040000C94F5030C948A000C9465040C943F0402
:100050000C948A000C948A000C948A000C948A00F8
:100060000C948A000C948A000000000023002600F3
:10007000290000000008000201000003040700003E
:1000800000000000000000000000250028002B00F8
:1000900000000000240027002A00040404040404D3
:1000A0000404020202020202030303030303010227
:1000B00004081020408001020408102001020408F6
:1000C00010200D0511241FBECFEFD8E0DEBFCDBF3D
:1000D00011E0A0E0B1E0EAE5F3E102C005900D9285
:1000E000A831B107D9F722E0A8E1B1E001C01D9223
:1000F000A633B207E1F710E0C2E6D0E004C02197D2
:10010000FE010E94A009C136D107C9F70E94A105CE
:100110000C94AB090C94000090E0FC01E255FF4FF9
:100120002491FC01E656FF4F8491882399F090E0DA
:10013000880F991FFC01E057FF4FA591B491FC0176
:10014000EA57FF4F859194918FB7F894EC91E22B89
:10015000EC938FBF08954F925F926F927F928F9230
:100160009F92AF92BF92CF92DF92EF92FF92CF9386
:10017000DF9300D000D0CDB7DEB76B017C0180915A
:100180000E0290910F02A0911002B091110289838A
:100190009A83AB83BC83AAE0B2E02D913D914D914F
:1001A0005C9169817A818B819C810E946F079B01A0
:1001B000AC0169817A818B819C810E94DB074B01B4
:1001C0005C0160931E0270931F0280932002909343
:1001D000210240901A0250901B0260901C02709005
:1001E0001D02A3019201C701B6010E946E07A5017D
:1001F00094010E941109A30192010E946F076B01F3
:100200007C016093160270931702809318029093FA
:1002100019029B01AC01C301B2010E946E079F77D6
:100220002091120230911302409114025091150254
:100230000E9411092B013C01A501940160E070E0CE
:1002400080E89FE30E946E0729813A814B815C819F
:100250000E9411099B01AC01C301B2010E946F070A
:1002600060930E0270930F0280931002909311021C
:10027000C0921A02D0921B02E0921C02F0921D0260
:10028000C701B6010F900F900F900F90DF91CF91A3
:10029000FF90EF90DF90CF90BF90AF909F908F90A6
:1002A0007F906F905F904F90089590E0FC01EE5822
:1002B000FF4F2491FC01E255FF4F3491FC01E656BB
:1002C000FF4FE491EE2309F43CC0222339F123309F
:1002D00091F038F42130A9F0223001F584B58F7DFA
:1002E00012C0273091F02830A1F02430B9F4809169
:1002F00080008F7D03C0809180008F778093800085
:100300000DC084B58F7784BD09C08091B0008F7710
:1003100003C08091B0008F7D8093B000F0E0EE0FBD
:10032000FF1FEA57FF4FA591B4919FB7F894611151
:1003300004C08C913095382302C0EC913E2B3C9345
:100340009FBF08953FB7F894809133019091340195
:10035000A0913501B091360126B5A89B05C02F3F6D
:1003600019F00196A11DB11D3FBFBA2FA92F982FDB
:100370008827820F911DA11DB11DBC01CD0142E056
:10038000660F771F881F991F4A95D1F70895CF925E
:10039000DF92EF92FF920F931F93CF93DF936C0145
:1003A0007A018B01C0E0D0E0CE15DF0581F0D801E5
:1003B0006D918D01D601ED91FC910190F081E02DC0
:1003C000C6010995892B11F02196EECF7E01C70158
:1003D000DF91CF911F910F91FF90EF90DF90CF9021
:1003E0000895089580E090E00895FC01538D448DB8
:1003F000252F30E0842F90E0821B930B541710F0D0
:10040000CF96089501970895FC01918D828D9817DC
:1004100061F0828DDF01A80FB11D5D968C91928DE8
:100420009F5F9F73928F90E008958FEF9FEF0895E5
:10043000FC01918D828D981731F0828DE80FF11DAE
:10044000858D90E008958FEF9FEF0895FC01918DC9
:10045000228D892F90E0805C9F4F821B91098F73C2
:100460009927089587E391E00E94260221E0892BD5
:1004700009F420E0822F0895FC01848DDF01A80F8C
:10048000B11DA35ABF4F2C91848D90E001968F73BC
:100490009927848FA689B7892C93A089B1898C91DB
:1004A000837080648C93938D848D981306C002882A
:1004B000F389E02D80818F7D80830895EF92FF92F4
:1004C0000F931F93CF93DF93EC0181E0888F9B8D77
:1004D0008C8D981305C0E889F989808185FD26C037
:1004E000F62E0B8D10E00F5F1F4F0F731127E02EBC
:1004F0008C8DE8120CC00FB607FCFACFE889F98999
:10050000808185FFF5CFCE010E943C02F1CF8B8D1B
:10051000FE01E80FF11DE35AFF4FF0829FB7F894F8
:100520000B8FEA89FB89808180620AC09FB7F894AB
:10053000EE89FF896083E889F9898081837080640E
:1005400080839FBF81E090E0DF91CF911F910F9159
:10055000FF90EF900895CF93DF93EC01888D88236F
:10056000C9F0EA89FB89808185FD05C0A889B98920
:100570008C9186FD0FC00FB607FCF5CF808185FFFB
:10058000F2CFA889B9898C9185FFEDCFCE010E9469
:100590003C02E7CFDF91CF91089580E090E0892B76
:1005A00029F00E94320281110C9400000895EF920C
:1005B000FF920F931F93CF93DF938C0161E0FC01B7
:1005C00081810E94550160E0F80182810E945501FD
:1005D000F801D381ED2EF12CC0818C2F0E948C006C
:1005E000E114F10409F449C0FFEFEF16F10409F436
:1005F00046C0EC2FF0E0EE58FF4FE491E330F9F005
:1006000048F4E130B9F0E230A1F584B5806284BDF0
:10061000D8BD39C0E730E9F0E83019F1E43049F5E8
:1006200080918000806280938000F0928B00E09245
:100630008A0029C084B5806884BDD7BD24C080915C
:100640008000806880938000F0928900E0928800AA
:100650001AC08091B00080688093B000D093B3003E
:1006600012C08091B00080628093B000D093B4003B
:100670000AC080E8E816F10414F460E001C061E00B
:100680008C2F0E94550181E0F8018187DF91CF9185
:100690001F910F91FF90EF9008950F931F93CF93A9
:1006A000DF93FC01A285B3859C918481892B8C9377
:1006B000A681B7819C918481809589238C938BE05E
:1006C00090E00197F1F7A681B7819C918481892BF5
:1006D0008C9383E290E00197F1F7A681B7819C911A
:1006E0008481809589238C93A285B3859C91848194
:1006F000809589238C93A085B1859C9185818923E0
:1007000009F058C0EF010E94A2012C853D858901A6
:1007100020E030E00855194E2F4F3F4FDC01CB0150
:10072000800F911FA21FB31F8E879F87A88BB98B45
:10073000E885F98590818D81892361F40E94A20169
:100740000E851F8528893989061717072807390755
:1007500078F730C00E94A2012C853D85DC01CB01D9
:10076000820F931FA11DB11D8E879F87A88BB98B08
:10077000E885F98590818D81892361F00E94A2012D
:100780000E851F8528893989061717072807390715
:1007900078F710C00E94A2012C853D85A901455023
:1007A00051092E853F85FA01E21BF30BCF01860F1D
:1007B000971F02C080E090E0DF91CF911F910F91D1
:1007C0000895009769F0FC0101900020E9F7319746
:1007D000AF01481B590BBC0187E391E00C94C701A2
:1007E00080E090E008950E94A6091F920F920FB634
:1007F0000F9211242F933F938F939F93AF93BF93A7
:1008000080912F0190913001A0913101B09132017E
:1008100030912E0123E0230F2D3720F40196A11DE6
:10082000B11D05C026E8230F0296A11DB11D20931E
:100830002E0180932F0190933001A0933101B0934A
:1008400032018091330190913401A0913501B09132
:1008500036010196A11DB11D80933301909334019F
:10086000A0933501B0933601BF91AF919F918F91C5
:100870003F912F910F900FBE0F901F9018951F92D0
:100880000F920FB60F9211242F933F934F935F93C4
:100890006F937F938F939F93AF93BF93EF93FF9348
:1008A00087E391E00E943C02FF91EF91BF91AF91ED
:1008B0009F918F917F916F915F914F913F912F9178
:1008C0000F900FBE0F901F9018951F920F920FB6AA
:1008D0000F9211242F938F939F93EF93FF93E091A7
:1008E0004701F09148018081E0914D01F0914E0166
:1008F00082FD12C09081809150018F5F8F73209193
:100900005101821751F0E0915001F0E0E95CFE4F97
:10091000958F8093500101C08081FF91EF919F914D
:100920008F912F910F900FBE0F901F9018951F92CF
:100930000F920FB60F9211242F933F934F935F9313
:100940006F937F938F939F93AF93BF93EF93FF9397
:10095000E0E0F0E00995FF91EF91BF91AF919F9199
:100960008F917F916F915F914F913F912F910F9058
:100970000FBE0F901F901895DC0170E0FB01E2554F
:10098000FF4FE4911496EC93149750E0FA01E2556E
:10099000FF4FE4911596EC93159766567F4FFB0138
:1009A0008491E82FF0E0EE0FFF1FEA57FF4F85918B
:1009B000949117969C938E931697FA01E656FF4FE3
:1009C000E491F0E0EE0FFF1FE859FF4F85919491FD
:1009D00019969C938E931897FB016491E62FF0E093
:1009E000EE0FFF1FE057FF4F859194911B969C934C
:1009F0008E931A972F5F3F4F49E3429FC001439F59
:100A0000900D11248E38FFE69F0710F08DE89FE6C9
:100A10001D969C938E931C9708950F931F93CF93CD
:100A2000DF93E7E3F1E01382128288EE93E0A0E027
:100A3000B0E084839583A683B78384E091E09183BB
:100A4000808385EC90E09587848784EC90E097879D
:100A5000868780EC90E0918B808B81EC90E0938B8B
:100A6000828B82EC90E0958B848B86EC90E0978B68
:100A7000868B118E128E138E148ECCE2D2E08AE019
:100A800088838DE089838CE08A8304E60B83198652
:100A900011E018871C821D821E821F828AE00E943C
:100AA0008C0089810E948C008A810E948C00C2E2A5
:100AB000D2E08BE0888388E0898389E08A830B8396
:100AC000198618871C821D821E821F828BE00E945D
:100AD0008C0089810E948C008A810E948C00EAE04F
:100AE000F2E080E090E0A0E0B0E480839183A28314
:100AF000B38384839583A683B78384EA90E7ADE7C5
:100B0000BFE380879187A287B38724E630E043E084
:100B100062E088EF91E00E94BC0424E630E045E00A
:100B200064E086EE91E00E94BC042FE030E047E0F4
:100B300066E084ED91E0DF91CF911F910F910C94CD
:100B4000BC04CF93DF93CDB7DEB7A1970FB6F8946F
:100B5000DEBF0FBECDBF789484B5826084BD84B5FE
:100B6000816084BD85B5826085BD85B5816085BDA8
:100B700080916E00816080936E0010928100809160
:100B800081008260809381008091810081608093E8
:100B90008100809180008160809380008091B1000D
:100BA00084608093B1008091B00081608093B00038
:100BB00080917A00846080937A0080917A008260CC
:100BC00080937A0080917A00816080937A0080918E
:100BD0007A00806880937A001092C100E09147010A
:100BE000F091480182E08083E0914301F09144015B
:100BF0001082E0914501F09146018FEC80831092C4
:100C00004F01E0914B01F0914C0186E08083E0912F
:100C10004901F0914A01808180618083E09149011E
:100C2000F0914A01808188608083E0914901F091D0
:100C30004A01808180688083E0914901F0914A01F6
:100C400080818F7D808329E3C22ED12CE12CF12C71
:100C500080902C0190902D01092C000CAA08BB0853
:100C6000B7FE22C06DE287E391E00E945E02222778
:100C70003327A901281939094A095B0919A28E01EC
:100C80000F5D1F4FCA01B9012AE030E040E050E09B
:100C90000E947E09605DF80162938F012115310584
:100CA0004105510579F717C0A501940119A28E01DC
:100CB0000F5D1F4FCA01B9012AE030E040E050E06B
:100CC0000E947E09605DF80162938F012115310554
:100CD0004105510579F7C8010E94E10382E191E0E5
:100CE0000E94E10385E191E00E94E10382E191E04D
:100CF0000E94E10388EF91E00E944D038C0186EE93
:100D000091E00E944D035C0184ED91E00E944D034F
:100D10004C01B80180E090E0A70196010E947E0995
:100D2000B901330F880B990B0E9485080E94AB0014
:100D30000E944D087093290160932801B50180E05D
:100D400090E0A70196010E947E09B901330F880B3C
:100D5000990B0E9485080E94AB000E944D082B0150
:100D60003C0170932B0160932A01B40180E090E074
:100D7000A70196010E947E09B901330F880B990BD8
:100D80000E9485080E94AB000E944D0870932D01BF
:100D900060932C0182010A5011090031110514F0F1
:100DA0000FE010E0013FFFEF1F0714F401EF1FEF0A
:100DB0006090220170902301600E711E70922301D9
:100DC00060922201B801012E000C880B990B0E9441
:100DD000850820E030E040EA51E40E9411094B010F
:100DE0005C01B301770C880B990B0E94850820E009
:100DF00030E0A9010E9411099B01AC01C501B401B9
:100E00000E946F074B015C0180911E0190911F01B0
:100E1000B801681B790B072E000C880B990B0E94F8
:100E2000850820E030E048E454E40E9411099B0169
:100E3000AC01C501B4010E946F070E944D08709378
:100E400027016093260110931F0100931E01072EB6
:100E5000000C880B990B0E9485082B013C0120E0B7
:100E600030E04CE852E40E946F070E944D084B01AD
:100E70005C01A301920160E070E08CE892E40E94C2
:100E80006E070E944D089B014AE08416910444F0CD
:100E9000E9EC8E1691043CF098EC892E912C03C05D
:100EA0008AE0882E912C2A3031053CF08B01693C78
:100EB00071052CF008EC10E002C00AE010E08CE2B2
:100EC00092E00E94D70282E292E00E94D7028092D2
:100ED0002F02009325020E94CD02BACE5058BB27A4
:100EE000AA270E9486070C94D7080E94C90838F0E8
:100EF0000E94D00820F039F49F3F19F426F40C9496
:100F0000C6080EF4E095E7FB0C94C008E92F0E9498
:100F1000E80858F3BA17620773078407950720F0AB
:100F200079F4A6F50C940A090EF4E0950B2EBA2F6D
:100F3000A02D0B01B90190010C01CA01A0011124DF
:100F4000FF27591B99F0593F50F4503E68F11A168B
:100F5000F040A22F232F342F4427585FF3CF46951C
:100F600037952795A795F0405395C9F77EF41F163E
:100F7000BA0B620B730B840BBAF09150A1F0FF0F08
:100F8000BB1F661F771F881FC2F70EC0BA0F621FF4
:100F9000731F841F48F4879577956795B795F795E4
:100FA0009E3F08F0B0CF9395880F08F09927EE0F79
:100FB0009795879508950E94EF070C94D7080E9493
:100FC000D00858F00E94C90840F029F45F3F29F08A
:100FD0000C94C00851110C940B090C94C6080E9483
:100FE000E80868F39923B1F3552391F3951B550B4A
:100FF000BB27AA2762177307840738F09F5F5F4FEC
:10100000220F331F441FAA1FA9F335D00E2E3AF02A
:10101000E0E832D091505040E695001CCAF72BD042
:10102000FE2F29D0660F771F881FBB1F2617370793
:101030004807AB07B0E809F0BB0B802DBF01FF27C5
:1010400093585F4F3AF09E3F510578F00C94C008DA
:101050000C940B095F3FE4F3983ED4F386957795A3
:101060006795B795F7959F5FC9F7880F911D96957E
:10107000879597F90895E1E0660F771F881FBB1FDA
:10108000621773078407BA0720F0621B730B840B87
:10109000BA0BEE1F88F7E09508950E9454086894F3
:1010A000B1110C940B0908950E94F00888F09F5725
:1010B00098F0B92F9927B751B0F0E1F0660F771F7C
:1010C000881F991F1AF0BA95C9F714C0B13091F072
:1010D0000E940A09B1E008950C940A09672F782F3D
:1010E0008827B85F39F0B93FCCF386957795679537
:1010F000B395D9F73EF490958095709561957F4FA3
:101100008F4F9F4F0895E89409C097FB3EF4909548
:101110008095709561957F4F8F4F9F4F9923A9F0D0
:10112000F92F96E9BB279395F6958795779567955F
:10113000B795F111F8CFFAF4BB0F11F460FF1BC0A3
:101140006F5F7F4F8F4F9F4F16C0882311F096E936
:1011500011C0772321F09EE8872F762F05C06623E4
:1011600071F096E8862F70E060E02AF09A95660F9D
:10117000771F881FDAF7880F9695879597F9089556
:1011800097F99F6780E870E060E008959FEF80EC3A
:10119000089500240A9416161706180609060895DD
:1011A00000240A9412161306140605060895092E43
:1011B0000394000C11F4882352F0BB0F40F4BF2BB2
:1011C00011F460FF04C06F5F7F4F8F4F9F4F0895F2
:1011D00057FD9058440F551F59F05F3F71F04795E8
:1011E000880F97FB991F61F09F3F79F087950895CD
:1011F000121613061406551FF2CF4695F1DF08C0EC
:10120000161617061806991FF1CF86957105610508
:1012100008940895E894BB2766277727CB0197F9B0
:1012200008950E9424090C94D7080E94C90838F038
:101230000E94D00820F0952311F00C94C0080C9463
:10124000C60811240C940B090E94E80870F3959FBE
:10125000C1F3950F50E0551F629FF001729FBB27AD
:10126000F00DB11D639FAA27F00DB11DAA1F649F49
:101270006627B00DA11D661F829F2227B00DA11DFC
:10128000621F739FB00DA11D621F839FA00D611D82
:10129000221F749F3327A00D611D231F849F600DA3
:1012A000211D822F762F6A2F11249F5750409AF0CC
:1012B000F1F088234AF0EE0FFF1FBB1F661F771F58
:1012C000881F91505040A9F79E3F510580F00C9423
:1012D000C0080C940B095F3FE4F3983ED4F3869565
:1012E00077956795B795F795E7959F5FC1F7FE2BC3
:1012F000880F911D9695879597F90895A1E21A2E6A
:10130000AA1BBB1BFD010DC0AA1FBB1FEE1FFF1FA9
:10131000A217B307E407F50720F0A21BB30BE40BF9
:10132000F50B661F771F881F991F1A9469F7609540
:101330007095809590959B01AC01BD01CF010895FA
:10134000EE0FFF1F0590F491E02D099481E090E0ED
:0A135000F8940C94AB09F894FFCF59
:10135A00000000005E02C701F501AB02260204028A
:08136A0018020D0A002000002A
:00000001FF
