:100000000C948A000C94B2000C94B2000C94B200D0
:100010000C94B2000C94B2000C94B2000C94B20098
:100020000C94B2000C94B2000C94B2000C94B20088
:100030000C94B2000C94B2000C94B2000C94B20078
:100040000C94EC040C94B2000C945C050C943605F2
:100050000C94B2000C94B2000C94B2000C94B20058
:100060000C948E050C94B200036EDB363D9A999980
:10007000993DABAAAA2A3E000000803F072C7AA532
:10008000BA6CC590DA3B9365FC8BBC53F810FD3C11
:100090005692834DBD879D3AB63DCBC9BF5BBE73BB
:1000A000DA0FC93F05A84CCDB2D44EB93836A902F3
:1000B0000C50B9918688083CA6AAAA2ABE00000066
:1000C000803F00000000240027002A0000000000FC
:1000D000250028002B000404040404040404020284
:1000E00002020202030303030303010204081020B7
:1000F00040800102040810200102040810200000C2
:1001000000080002010000030407000000000000D6
:100110000000BC0611241FBECFEFD8E0DEBFCDBF6C
:1001200011E0A0E0B1E0E6E2FDE102C005900D9231
:10013000A833B107D9F722E0A8E3B1E001C01D92CE
:10014000A33DB207E1F710E0CAE8D0E004C0219770
:10015000FE010E94770EC938D107C9F70E94F50643
:100160000C94910E0C94000030912902313208F069
:100170004BC0809105028111FCCF9091280222E0B2
:100180002093050221E0209304022FEF2093030225
:100190001092020230930102E8E0F2E0A1EEB1E039
:1001A00020E0321721F041914D932F5FFACF10924A
:1001B000E0012091E001990F922B9093E001909142
:1001C000DF01913061F41092DF019091E001909392
:1001D000BB009091BC0093FDF8CF95EC01C095EE6B
:1001E0009093BC00909105029230E1F3909103024C
:1001F0009F3F79F080910302803241F080910302A9
:10020000803331F084E005C081E003C082E001C0AA
:1002100083E01092070210922902109206020895BC
:1002200090E0FC01E250FF4F2491FC01E651FF4FAA
:100230003491FC01EA52FF4FE491EE2309F43CC0F3
:10024000222339F1233091F038F42130A9F0223003
:1002500001F584B58F7D12C0273091F02830A1F0D0
:100260002430B9F4809180008F7D03C0809180009C
:100270008F77809380000DC084B58F7784BD09C0CF
:100280008091B0008F7703C08091B0008F7D809304
:10029000B000F0E0EE0FFF1FE453FF4FA591B491C3
:1002A0009FB7F894611104C08C913095382302C037
:1002B000EC913E2B3C939FBF08953FB7F8948091FB
:1002C000DB019091DC01A091DD01B091DE0126B54A
:1002D000A89B05C02F3F19F00196A11DB11D3FBF7E
:1002E000BA2FA92F982F8827820F911DA11DB11D0C
:1002F000BC01CD0142E0660F771F881F991F4A9508
:10030000D1F708958F929F92AF92BF92CF92DF92D2
:10031000EF92FF926B017C010E945D014B015C0139
:10032000C114D104E104F104F1F00E945D01DC018B
:10033000CB0188199909AA09BB09883E9340A105F8
:10034000B10570F321E0C21AD108E108F10888EE86
:10035000880E83E0981EA11CB11CC114D104E104D5
:10036000F10419F7DDCFFF90EF90DF90CF90BF90B1
:10037000AF909F908F900895CF92DF92EF92FF926F
:100380000F931F93CF93DF936C017A018B01C0E031
:10039000D0E0CE15DF0581F0D8016D918D01D60139
:1003A000ED91FC910190F081E02DC6010995892B1A
:1003B00011F02196EECF7E01C701DF91CF911F9101
:1003C0000F91FF90EF90DF90CF90089508950895DA
:1003D000FC01538D448D252F30E0842F90E0821B4B
:1003E000930B541710F0CF96089501970895FC01D0
:1003F000918D828D981761F0828DDF01A80FB11D5C
:100400005D968C91928D9F5F9F73928F90E008957F
:100410008FEF9FEF0895FC01918D828D981731F039
:10042000828DE80FF11D858D90E008958FEF9FEF8D
:100430000895FC01918D228D892F90E0805C9F4F63
:10044000821B91098F73992708958AE292E00E9496
:10045000190221E0892B09F420E0822F0895FC0184
:10046000848DDF01A80FB11DA35ABF4F2C91848D3D
:1004700090E001968F739927848FA689B7892C9372
:10048000A089B1898C91837080648C93938D848DC5
:10049000981306C00288F389E02D80818F7D8083C8
:1004A0000895EF92FF920F931F93CF93DF93EC0188
:1004B00081E0888F9B8D8C8D981305C0E889F98920
:1004C000808185FD26C0F62E0B8D10E00F5F1F4F3B
:1004D0000F731127E02E8C8DE8120CC00FB607FCAD
:1004E000FACFE889F989808185FFF5CFCE010E9496
:1004F0002F02F1CF8B8DFE01E80FF11DE35AFF4F64
:10050000F0829FB7F8940B8FEA89FB898081806223
:100510000AC09FB7F894EE89FF896083E889F9895A
:1005200080818370806480839FBF81E090E0DF9151
:10053000CF911F910F91FF90EF900895CF93DF938C
:10054000EC01888D8823C9F0EA89FB89808185FDCB
:1005500005C0A889B9898C9186FD0FC00FB607FC2C
:10056000F5CF808185FFF2CFA889B9898C9185FF6D
:10057000EDCFCE010E942F02E7CFDF91CF910895FA
:1005800080E090E0892B29F00E94250281110C94D3
:100590000000089585ED8093BC008091BC0084FD2F
:1005A000FCCF10920502089540917801262F30E08B
:1005B000240F311D21323105DCF420910502243055
:1005C000C9F4FC0180E090E0861758F4309178017E
:1005D0002191DC01A85ABE4FA30FB11D2C930196A7
:1005E000F3CF80917801680F6093780180E00895DF
:1005F00081E0089582E008950895E091A00180913E
:100600009F01E81730F4F0E0E85CFE4F808190E055
:1006100008958FEF9FEF08959091A00180919F0121
:10062000981750F4E92FF0E0E85CFE4F208130E0AD
:100630009F5F9093A00102C02FEF3FEFC901089583
:1006400080919F0190E02091A001821B9109089563
:10065000CF92DF92EF92FF920F931F93CF93DF938E
:100660007C01CB018A0120910602222389F0EB0153
:100670006B01C40ED51ECC15DD0569F06991D7015B
:10068000ED91FC910190F081E02DC7010995F3CF28
:10069000642F0E94D402C801DF91CF911F910F9166
:1006A000FF90EF90DF90CF900895CF93DF931F924C
:1006B000CDB7DEB76983209106022223D1F02091C5
:1006C0002902203240F021E030E0FC013383228314
:1006D00080E090E015C080910702E82FF0E0E85F2D
:1006E000FD4F998190838F5F809307028093290249
:1006F00005C061E0CE0101960E94D40281E090E045
:100700000F90DF91CF910895682F87EC92E00C94C1
:100710005503089580E090E00895009769F0FC018A
:1007200001900020E9F73197AF01481B590BBC013C
:100730008AE292E00C94BC0180E090E008958F92F0
:100740009F92AF92BF920F931F93CF93DF93CDB73A
:10075000DEB7A1970FB6F894DEBF0FBECDBF19A2CA
:10076000423008F44AE08E010F5D1F4F842E912C19
:10077000A12CB12CA50194010E94170EE62FB901FE
:10078000CA0101501109EA3014F4E05D01C0E95CCE
:10079000D801EC93232B242B252B61F7C8010E9451
:1007A0008D03A1960FB6F894DEBF0FBECDBFDF91CB
:1007B000CF911F910F91BF90AF909F908F90089510
:1007C000CF92DF92EF92FF92CF93DF936B017C0188
:1007D0006DE28AE292E00E945102EC0166277727DF
:1007E000CB016C197D098E099F094AE00E949F0385
:1007F0008C0F9D1FDF91CF91FF90EF90DF90CF90F6
:100800000895CF9381E08093060288E680932802C2
:1008100010920702109229028BE390E00E94840359
:100820000E94B400809105028111FCCF81E0809389
:100830000502809304029FEF90930302109202023C
:100840009DE0909301028093E0018091E001806D32
:100850008093E0018091DF01813061F41092DF012B
:100860008091E0018093BB008091BC0083FDF8CFB4
:1008700085EC01C085EE8093BC008091050281303B
:10088000E1F3809102028E3018F49091020201C0CF
:100890009EE0A1EEB1E0E8E3F1E080E0891721F00D
:1008A0002D9121938F5FFACF1092A00180939F0129
:1008B00090E08E309105ECF387EC92E00E940C03FF
:1008C000C82F87EC92E00E940C0320E030E03C2F20
:1008D000822B932B092E000CAA0BBB0B8093B80123
:1008E0009093B901A093BA01B093BB0187EC92E059
:1008F0000E940C03C82F87EC92E00E940C0320E0BA
:1009000030E03C2F822B932B092E000CAA0BBB0B43
:100910008093B4019093B501A093B601B093B70151
:1009200087EC92E00E940C03C82F87EC92E00E94B3
:100930000C0320E030E03C2F822B932B092E000C7F
:10094000AA0BBB0B8093B0019093B101A093B201AD
:10095000B093B30187EC92E00E940C0387EC92E025
:100960000E940C0387EC92E00E940C03C82F87ECD6
:1009700092E00E940C0320E030E03C2F822B932B6E
:100980009093D5018093D40187EC92E00E940C03F0
:10099000C82F87EC92E00E940C0320E030E03C2F4F
:1009A000822B932B9093CF018093CE0187EC92E022
:1009B0000E940C03C82F87EC92E00E940C0320E0F9
:1009C00030E03C2F822B932B9093C9018093C80178
:1009D000CF9108950E948C0E1F920F920FB60F9226
:1009E00011242F933F938F939F93AF93BF93809145
:1009F000D7019091D801A091D901B091DA0130913D
:100A0000D60123E0230F2D3720F40196A11DB11D3F
:100A100005C026E8230F0296A11DB11D2093D60123
:100A20008093D7019093D801A093D901B093DA01B4
:100A30008091DB019091DC01A091DD01B091DE019C
:100A40000196A11DB11D8093DB019093DC01A09361
:100A5000DD01B093DE01BF91AF919F918F913F91E6
:100A60002F910F900FBE0F901F9018951F920F920D
:100A70000FB60F9211242F933F934F935F936F9371
:100A80007F938F939F93AF93BF93EF93FF938AE2EC
:100A900092E00E942F02FF91EF91BF91AF919F9141
:100AA0008F917F916F915F914F913F912F910F9017
:100AB0000FBE0F901F9018951F920F920FB60F92B6
:100AC00011242F938F939F93EF93FF93E0913A021A
:100AD000F0913B028081E0914002F091410282FD61
:100AE00012C09081809143028F5F8F7320914402E6
:100AF000821751F0E0914302F0E0E65DFD4F958FE3
:100B00008093430201C08081FF91EF919F918F916B
:100B10002F910F900FBE0F901F9018951F920F925C
:100B20000FB60F9211242F933F934F935F936F93C0
:100B30007F938F939F93AF93BF93EF93FF93809196
:100B4000B900887F803609F49CC068F5883209F4C2
:100B50005BC090F4803109F454C038F4882309F460
:100B6000F6C0883009F44DC0F6C0883109F44CC095
:100B7000803209F45DC0EFC0803409F468C048F4E5
:100B8000803309F455C0883309F0E5C0809303022F
:100B9000D8C0803509F44FC0883509F45DC0883469
:100BA00009F0D9C0D6C0883909F4C7C0A8F488377D
:100BB00009F467C038F4883609F463C0803709F453
:100BC00060C0C9C0883809F4B8C0803909F45FC072
:100BD000803809F0C0C05BC0803B09F486C038F49F
:100BE000803A09F466C0883A09F47FC0B4C0803CFA
:100BF00009F4A7C0883C09F4A4C0883B09F48AC062
:100C0000AAC08091E00110C090910202809101027F
:100C1000981770F5E091020281E08E0F8093020236
:100C2000F0E0EF51FE4F80818093BB0085EC86C0E1
:100C3000809303028EC0E091020281E08E0F8093C8
:100C400002028091BB00F0E0EF51FE4F8083909153
:100C50000202809101026EC0E091020281E08E0FDB
:100C6000809302028091BB00F0E0EF51FE4F808341
:100C70008091040281116DC081E08093DF0184EADC
:100C800061C083E08093050210929A01CFCF8091DA
:100C90009A01803208F051C0E0919A0181E08E0FF4
:100CA00080939A018091BB00F0E0E658FE4F80836C
:100CB000BDCF85EC8093BC001092050280919A0113
:100CC000803230F4E0919A01F0E0E658FE4F108255
:100CD00060919A0170E0E0919B01F0919C018AE79C
:100CE00091E0099510929A0136C084E08093050244
:100CF0001092790110927801E0919D01F0919E018E
:100D0000099580917801811105C081E08093780177
:100D100010925801E091790181E08E0F8093790162
:100D2000F0E0E85AFE4F80818093BB0090917901FA
:100D300080917801981708F479CF85E88093BC00FA
:100D40000AC085EC8093BC001092050204C010928A
:100D500003020E94CA02FF91EF91BF91AF919F9150
:100D60008F917F916F915F914F913F912F910F9054
:100D70000FBE0F901F901895EAE2F2E013821282E4
:100D800088EE93E0A0E0B0E084839583A683B783E8
:100D900024E031E03183208325EC30E0358724875F
:100DA00024EC30E03787268720EC30E0318B208B35
:100DB00021EC30E0338B228B22EC30E0358B248B1E
:100DC00026EC30E0378B268B118E128E138E148E0C
:100DD000E7ECF2E01382128284839583A683B783C3
:100DE00086E191E0918380830895CF93DF93CDB71F
:100DF000DEB72C970FB6F894DEBF0FBECDBF789448
:100E000084B5826084BD84B5816084BD85B582600F
:100E100085BD85B5816085BD80916E0081608093C0
:100E20006E00109281008091810082608093810029
:100E30008091810081608093810080918000816039
:100E4000809380008091B10084608093B100809194
:100E5000B00081608093B00080917A0084608093BC
:100E60007A0080917A00826080937A0080917A0083
:100E7000816080937A0080917A00806880937A0004
:100E80001092C1001092A00110929F0110920702CF
:100E9000109229021092050281E0809304021092C0
:100EA000DF0161E082E10E94100161E083E10E94C4
:100EB00010018091B9008E7F8093B9008091B900B4
:100EC0008D7F8093B90088E48093B80085E4809397
:100ED000BC0086EE91E090939E0180939D0187EE89
:100EE00091E090939C0180939B01E0913A02F091F4
:100EF0003B0282E08083E0913602F091370210825B
:100F0000E0913802F09139028FEC80831092420216
:100F1000E0913E02F0913F0286E08083E0913C0246
:100F2000F0913D02808180618083E0913C02F091EC
:100F30003D02808188608083E0913C02F0913D0217
:100F4000808180688083E0913C02F0913D02808145
:100F50008F7D8083E7EFF0E02491E3EEF0E0849171
:100F6000882399F090E0880F991FFC01EE53FF4F02
:100F7000A591B491FC01E453FF4F859194918FB7F3
:100F8000F894EC91E22BEC938FBF21E020930602C2
:100F900088E68093280210920702109229028BE6BD
:100FA00090E00E94840380E090E00E9484030E940D
:100FB000B40031E030930602109207021092290229
:100FC0008CE190E00E94840380E190E00E94840321
:100FD0000E94B40041E04093060210920702109272
:100FE00029028BE190E00E94840388E090E00E9457
:100FF00084030E94B40061E08DE00E9410016CED5A
:1010000075E080E090E00E9482011E821D820DE763
:1010100010E08D819E81B8010E94030E892B11F48E
:101020000E9401044090D4015090D501052C000C81
:10103000660877088091D0019091D101A091D201EA
:10104000B091D301480E591E6A1E7B1E4092D001FA
:101050005092D1016092D2017092D3018090CE0162
:101060009090CF01092C000CAA08BB088091CA01FE
:101070009091CB01A091CC01B091CD01880E991E29
:10108000AA1EBB1E8092CA019092CB01A092CC01F5
:10109000B092CD01C090C801D090C9010D2C000CB8
:1010A000EE08FF088091C4019091C501A091C6018E
:1010B000B091C701A7019601280F391F4A1F5B1F76
:1010C00029833A834B835C832093C4013093C50109
:1010D0004093C6015093C70163E070E080E090E068
:1010E0000E9482014D815E814F5F5F4F5E834D8321
:1010F000403D574009F08DCF80EDC82E87E0D82EB7
:10110000E12CF12CC301B201A70196010E94390E16
:101110002093D0013093D1014093D2015093D30159
:10112000C501B401A70196010E94390E2093CA019E
:101130003093CB014093CC015093CD0169817A81EA
:101140008B819C81A70196010E94390E2093C401D6
:101150003093C5014093C6015093C70160E08DE014
:101160000E9410010E945D010E9401040091D401BF
:101170001091D5018091D0019091D101081B190BDC
:101180001093D5010093D4016091CE017091CF01ED
:101190008091CA019091CB01681B790B7093CF01AC
:1011A0006093CE01E090C801F090C9018091C40124
:1011B0009091C501E81AF90AF092C901E092C801BC
:1011C000072E000C880B990B0E94FD0B20ED32E2DC
:1011D00040E858E30E94E40C2091BC013091BD012D
:1011E0004091BE015091BF010E94CC0A4B015C01AD
:1011F000B701FF0C880B990B0E94FD0B2BE733E125
:101200004FE855E30E94E40C0E94510D6B017C01F4
:10121000B801110F880B990B0E94FD0B20ED32E2F3
:1012200040E858E30E94E40C2091C0013091C101D4
:101230004091C2015091C3010E94CC0A2B013C0194
:10124000A7019601C501B4010E94E40C9B01AC0109
:10125000C301B2010E94CC0A6D837E838F8398877D
:101260009B01AC01C701B6010E94E40C9B01AC01DB
:10127000C501B4010E94CB0A69877A878B879C8756
:101280004090B8015090B9016090BA017090BB01D4
:101290008090B4019090B501A090B601B090B701D4
:1012A0002091B0013091B1014091B2015091B30150
:1012B00029833A834B835C83A3019201C301B2016A
:1012C0000E94F30D6B017C01A5019401C501B401DD
:1012D0000E94F30DC60ED71EE81EF91E29813A8121
:1012E0004B815C81CA01B9010E94F30D6C0D7D1D1B
:1012F0008E1D9F1D0E94FD0B0E945F0D0E94C50B5D
:101300000E94FD0B6B017C01C501B4010E94FD0B25
:10131000A70196010E94530B0E94380B2BE13FE27C
:1013200045E652E40E94E40C4B015C01C301B201AA
:101330000E94FD0BA70196010E94530B0E94380BDF
:101340002BE13FE245E652EC0E94E40C6B017C018C
:101350008091AF01882309F445C029EC35EE4FE7B1
:101360005FE36D817E818F8198850E94E40C2B0163
:101370003C0127E137EB41ED59E3C501B4010E947F
:10138000E40C9B01AC01C301B2010E94CC0A609342
:10139000C0017093C1018093C2019093C30129ECF5
:1013A00035EE4FE75FE369857A858B859C850E94E2
:1013B000E40C4B015C0127E137EB41ED59E3C70138
:1013C000B6010E94E40C9B01AC01C501B4010E946E
:1013D000CC0A6093BC017093BD018093BE019093D1
:1013E000BF0113C08092C0019092C101A092C201BE
:1013F000B092C301C092BC01D092BD01E092BE0187
:10140000F092BF0131E03093AF0126E636E646E6C2
:101410005FE36091AB017091AC018091AD0190915F
:10142000AE010E94E40C6B017C012DEC3CEC4CEC19
:101430005DE36091C0017091C1018091C201909102
:10144000C3010E94E40C9B01AC01C701B6010E94DC
:10145000CC0A6B017C016093AB017093AC0180936B
:10146000AD019093AE0126E636E646E65FE3609175
:10147000A7017091A8018091A9019091AA010E94F1
:10148000E40C4B015C012DEC3CEC4CEC5DE3609119
:10149000BC017091BD018091BE019091BF010E947D
:1014A000E40C9B01AC01C501B4010E94CC0A60931D
:1014B000A7017093A8018093A9019093AA0180913C
:1014C000A5019091A601029721F41092A601109215
:1014D000A5018091A5019091A60101969093A60186
:1014E0008093A501019711F520E030E040E251E43E
:1014F000C701B6010E94E40C0E94C50B7093A401C1
:101500006093A30184E291E00E948D036091A301A6
:101510007091A401072E000C880B990B97FF03C054
:101520000E94E00303C04AE00E949F038091A5014E
:101530009091A601029761F520E030E040E251E48D
:101540006091A7017091A8018091A9019091AA01D1
:101550000E94E40C0E94C50B7093A2016093A1014C
:101560008DE291E00E948D036091A1017091A20132
:10157000072E000C880B990B97FF03C00E94E00315
:1015800003C04AE00E949F0385E391E00E948D031F
:101590000E94C002E9CD5058BB27AA270E94E30A47
:1015A0000C94AA0C0E949C0C38F00E94A30C20F012
:1015B00039F49F3F19F426F40C945E0C0EF4E09578
:1015C000E7FB0C94580CE92F0E94BB0C58F3BA1798
:1015D000620773078407950720F079F4A6F50C9449
:1015E000DD0C0EF4E0950B2EBA2FA02D0B01B901E6
:1015F00090010C01CA01A0011124FF27591B99F089
:10160000593F50F4503E68F11A16F040A22F232F94
:10161000342F4427585FF3CF469537952795A795E4
:10162000F0405395C9F77EF41F16BA0B620B730B8B
:10163000840BBAF09150A1F0FF0FBB1F661F771FFC
:10164000881FC2F70EC0BA0F621F731F841F48F4B1
:10165000879577956795B795F7959E3F08F0B0CF3A
:101660009395880F08F09927EE0F97958795089521
:101670009F939F77EEE389379E0728F4E8E6F0E032
:101680000E94880C0CC00E94380C9058A2EA2AEDE7
:101690003FE049EC5FE30E94E30A0E94AA0C0F902E
:1016A00007FC905808950E94670B0C94AA0C0E94A6
:1016B000A30C58F00E949C0C40F029F45F3F29F0E5
:1016C0000C94580C51110C94DE0C0C945E0C0E947E
:1016D000BB0C68F39923B1F3552391F3951B550B7C
:1016E000BB27AA2762177307840738F09F5F5F4FF5
:1016F000220F331F441FAA1FA9F335D00E2E3AF034
:10170000E0E832D091505040E695001CCAF72BD04B
:10171000FE2F29D0660F771F881FBB1F261737079C
:101720004807AB07B0E809F0BB0B802DBF01FF27CE
:1017300093585F4F3AF09E3F510578F00C94580C47
:101740000C94DE0C5F3FE4F3983ED4F386957795D6
:101750006795B795F7959F5FC9F7880F911D969587
:10176000879597F90895E1E0660F771F881FBB1FE3
:10177000621773078407BA0720F0621B730B840B90
:10178000BA0BEE1F88F7E09508950E94CC0B689481
:10179000B1110C94DE0C08950E94C30C88F09F5781
:1017A00098F0B92F9927B751B0F0E1F0660F771F85
:1017B000881F991F1AF0BA95C9F714C0B13091F07B
:1017C0000E94DD0CB1E008950C94DD0C672F782F9A
:1017D0008827B85F39F0B93FCCF386957795679540
:1017E000B395D9F73EF490958095709561957F4FAC
:1017F0008F4F9F4F0895E89409C097FB3EF4909552
:101800008095709561957F4F8F4F9F4F9923A9F0D9
:10181000F92F96E9BB279395F69587957795679568
:10182000B795F111F8CFFAF4BB0F11F460FF1BC0AC
:101830006F5F7F4F8F4F9F4F16C0882311F096E93F
:1018400011C0772321F09EE8872F762F05C06623ED
:1018500071F096E8862F70E060E02AF09A95660FA6
:10186000771F881FDAF7880F9695879597F908955F
:10187000DF93CF931F930F938B01EC01ECE7F0E024
:101880000E94610C0E94AA0C9801AE018B01EC0130
:1018900060E070E080E89FE30E94CB0A0E945F0D49
:1018A0009801AE010F911F91CF91DF910C94F70C2D
:1018B00097F99F6780E870E060E008959FEF80EC03
:1018C0000895DF93CF931F930F93FF92EF92DF92D0
:1018D0007B018C01689406C0DA2EEF010E94F70CA0
:1018E000FE01E894A5912591359145915591A6F376
:1018F000EF010E94E30AFE019701A801DA9469F75B
:10190000DF90EF90FF900F911F91CF91DF9108959D
:101910009F938F937F936F93FF93EF939B01AC0102
:101920000E94E40CEF91FF910E94610C2F913F9176
:101930004F915F910C94E40C00240A94161617063C
:1019400018060906089500240A94121613061406B0
:1019500005060895092E0394000C11F4882352F013
:10196000BB0F40F4BF2B11F460FF04C06F5F7F4FCB
:101970008F4F9F4F089557FD9058440F551F59F0B2
:101980005F3F71F04795880F97FB991F61F09F3F6C
:1019900079F087950895121613061406551FF2CF95
:1019A0004695F1DF08C0161617061806991FF1CFE5
:1019B00086957105610508940895E894BB2766270C
:1019C0007727CB0197F908950E94F70C0C94AA0C85
:1019D0000E949C0C38F00E94A30C20F0952311F07B
:1019E0000C94580C0C945E0C11240C94DE0C0E9488
:1019F000BB0C70F3959FC1F3950F50E0551F629F8C
:101A0000F001729FBB27F00DB11D639FAA27F00D57
:101A1000B11DAA1F649F6627B00DA11D661F829F7E
:101A20002227B00DA11D621F739FB00DA11D621F63
:101A3000839FA00D611D221F749F3327A00D611D80
:101A4000231F849F600D211D822F762F6A2F112462
:101A50009F5750409AF0F1F088234AF0EE0FFF1F95
:101A6000BB1F661F771F881F91505040A9F79E3FEC
:101A7000510580F00C94580C0C94DE0C5F3FE4F39D
:101A8000983ED4F3869577956795B795F795E79542
:101A90009F5FC1F7FE2B880F911D9695879597F94B
:101AA00008959F930E94B60D0F9007FCEE5F0C9473
:101AB000DF0D19F416F40C945E0C0C949F0D0E942B
:101AC000C30CB8F39923C9F3B6F39F57550B87FF9F
:101AD0000E94AD0D0024A0E640EA90018058569582
:101AE000979528F4805C660F771F881F20F02617D3
:101AF0003707480730F4621B730B840B2029312908
:101B00004A2BA69517940794202531254A2758F784
:101B1000660F771F881F20F026173707480730F415
:101B2000620B730B840B200D311D411DA09581F7B5
:101B3000B901842F9158880F9695879508959F3FF6
:101B400031F0915020F4879577956795B795880F78
:101B5000911D9695879597F9089591505040660F7D
:101B6000771F881FD2F708950C945E0C0E94C30C57
:101B7000D8F3E894E0E0BB279F57F0F02AED3FE070
:101B800049EC06C0EE0FBB0F661F771F881F28F0B9
:101B9000B23A62077307840728F0B25A620B730BDC
:101BA000840BE3959A9572F7803830F49A95BB0FC1
:101BB000661F771F881FD2F790480C94A10DEF93F2
:101BC000E0FF07C0A2EA2AED3FE049EC5FEB0E948C
:101BD000E30A0E94AA0C0F90039401FC9058E4EAD7
:101BE000F0E00C94880CDB018F939F930E94580EB9
:101BF000BF91AF91A29F800D911DA39F900DB29FA9
:101C0000900D1124089597FB072E16F4009407D029
:101C100077FD09D00E94630E07FC05D03EF4909535
:101C200081959F4F0895709561957F4F0895A1E22A
:101C30001A2EAA1BBB1BFD010DC0AA1FBB1FEE1F46
:101C4000FF1FA217B307E407F50720F0A21BB30B91
:101C5000E40BF50B661F771F881F991F1A9469F70D
:101C600060957095809590959B01AC01BD01CF0169
:101C70000895052E97FB1EF400940E94500E57FD08
:101C800007D00E94170E07FC03D04EF40C94500EA0
:101C900050954095309521953F4F4F4F5F4F089598
:101CA00090958095709561957F4F8F4F9F4F0895C8
:101CB0000E947D0EA59F900DB49F900DA49F800D56
:101CC000911D11240895AA1BBB1B51E107C0AA1F37
:101CD000BB1FA617B70710F0A61BB70B881F991FCD
:101CE0005A95A9F780959095BC01CD010895EE0F06
:101CF000FF1F0590F491E02D0994A29FB001B39FBE
:101D0000C001A39F700D811D1124911DB29F700D04
:101D1000811D1124911D089581E090E0F8940C94A8
:061D2000910EF894FFCFC4
:101D2600000000005102BC01E8019E021902F70101
:101D36000B0200000000550328038A03FC0220035F
:101D46000C03FD022070697463683A200020726FEC
:081D56006C6C3A20000D0A003C
:00000001FF
